:020000040800F2
:10000000D8200020390200082B2B0008D725000833
:10001000292B00086F150008092F000800000000B8
:10002000000000000000000000000000A101000826
:100030007115000800000000E5010008092E000805
:10004000530200085302000853020008530200083C
:10005000530200085302000853020008530200082C
:10006000530200085302000853020008530200081C
:10007000530200085302000853020008530200080C
:1000800053020008530200085302000853020008FC
:1000900053020008530200085302000853020008EC
:1000A00053020008530200085302000853020008DC
:1000B0005302000853020008852E0008530200086E
:1000C00053020008530200085302000853020008BC
:1000D00053020008530200085302000853020008AC
:1000E00053020008530200085302000800F002F80F
:1000F00000F047F80AA090E8000C82448344AAF17B
:100100000107DA4501D100F03CF8AFF2090EBAE878
:100110000F0013F0010F18BFFB1A43F0010318473B
:10012000386F0000586F0000103A24BF78C878C1BB
:10013000FAD8520724BF30C830C144BF04680C60ED
:10014000704700000023002400250026103A28BF35
:1001500078C1FBD8520728BF30C148BF0B60704739
:10016000662906F01582002070471FB500F0BEFC1E
:1001700004000020002105F013FBE0601FBD10B556
:1001800010BD00F0B7FD1146FFF7EFFF03F04EF989
:1001900000F0D5FD03B4FFF7F2FF03BC00F018FE3A
:1001A000224B19680868B0E8F00F80F30988BFF3A4
:1001B0006F8F4FF0000080F311884EF00D0E7047E6
:1001C0000000000006480068006880F3088862B6F6
:1001D00061B6BFF34F8FBFF36F8F00DF00BF00BF6B
:1001E00008ED00E0EFF30980BFF36F8F0F4B1A6843
:1001F00020E9F00F106008B54FF0500080F311882F
:10020000BFF34F8FBFF36F8F04F0AAFD4FF00000D4
:1002100080F31188BDE8084019680868B0E8F00F5D
:1002200080F30988BFF36F8F704700BF180000206C
:10023000EFF30580704700000948804709480047F0
:10024000FEE7FEE7FEE7FEE7FEE7FEE7FEE7FEE786
:10025000FEE7FEE704480549054A064B70470000E3
:10026000812E0008ED000008D81A0020D8200020B8
:10027000D81C0020D81C002010B54C1084EA530470
:1002800004D54042C1F1000138BF491E1B4204D5CC
:100290005242C3F1000338BF5B1E00F023F914F093
:1002A000804F04D04042C1F1000138BF491E14F014
:1002B000004F04D05242C3F1000338BF5B1E10BD93
:1002C0000FB41CB5074B06AA7B44694600900598FD
:1002D00000F09FFB0020694600F0AEFB1CBC5DF8FF
:1002E00014FB00006D0700002DE9F0474FF0000AF5
:1002F00089460446C0F820A02046E16888470028C7
:1003000076D0252806D0D4E901219047206A401CE8
:100310002062F1E7E168204600258847C4F81CA068
:1003200006460027C4F818A02A2E09D0304602F04D
:1003300085FE38B304EB8708303EC8F8186019E032
:1003400059F8041B204604EB87029161E168884755
:10035000012F064618D1E069002820DA25F0200593
:100360001DE0D8F8180000EB800006EB40003038A4
:10037000C8F818002046E1688847064602F05EFE8D
:100380000028EED1012F0AD02E2E08D12046E16898
:1003900088477F1C0646022F45F02005C4DBA06974
:1003A000002803DA404245F00105A061E80701D0CA
:1003B00025F01005B6B1A6F14100192802D8203663
:1003C00045F400654A463146204625604D46FFF714
:1003D000C7FE58B1012806D0ED1D25F0070000F139
:1003E000080989E704E005F1040985E730468AE752
:1003F000206ABDE8F087032A40F2308010F0030C39
:1004000000F0158011F8013BBCF1020F624498BF67
:1004100011F801CB00F8013B38BF11F8013BA2F104
:10042000040298BF00F801CB38BF00F8013B11F07F
:10043000030300F00683083AC0F0088051F8043B3B
:10044000083A51F804CBA0E80810F5E7121D5CBF8C
:1004500051F8043B40F8043BAFF30080D20724BFBF
:1004600011F8013B11F801CB48BF11F8012B24BF53
:1004700000F8013B00F801CB48BF00F8012B7047A2
:1004800002F0FF0343EA032242EA024200F00DBBFE
:100490004FF0000200B5134694469646203922BF1D
:1004A000A0E80C50A0E80C50B1F12001BFF4F7AF68
:1004B000090728BFA0E80C5048BF0CC05DF804EB4A
:1004C000890028BF40F8042B08BF704748BF20F8B8
:1004D000022B11F0804F18BF00F8012B70477047B6
:1004E0007047704753EA020C00F069802DE9F04B29
:1004F0004FF00006002B1FBFB3FA83F503FA05F493
:1005000024FA05F65E4012BF1643B2FA82F502FAEB
:1005100005F4C5F120051EBF22FA05FC44EA0C04CF
:10052000203556EA044C4FEA144418BF641C4FF0BF
:1005300000084FF00009904271EB030C39D30029F9
:1005400019BFB1FA81F701FA07F6B0FA80F700FA9D
:1005500007F6C7F120071EBF20FA07FC46EA0C0683
:100560002037B6FBF4FCA7EB0507103F07F01F0B85
:10057000CBF120060CFA0BFB2CFA06F644BFB3466F
:100580000026202FA4BF5E464FF0000B5BEA060C4E
:1005900008BF4FF0010B19EB0B09ABFB027C48EBDA
:1005A0000608C01B06FB02CC0BFB03CC71EB0C0155
:1005B000C1E70B46024641464846BDE8F08B13B5FD
:1005C0004FF000004FF00001AFF30080BDE81C4089
:1005D000704710B500F08EFA006810BD10B50446E3
:1005E00000F088FA046010BD70472DE9FF4F0C46FB
:1005F0001E464FF0FF378BB0D2E90001DDF8608076
:100600000A908A46C1F30A5505B93D4600210846BD
:100610004FF00000BAF1000F00F4400005DA00EBE3
:1006200080004FF4400101EA50004FEA9059B9F1BF
:10063000010F00DDB9460A9850EA4A000ED044F690
:100640001050A5F2FF3545432F14B8F1000F1ED00E
:100650007542291E1EDDC9F100021CE0B8F1010F30
:100660004FF0000001D0302103E0F24305E02154B7
:10067000401CB042FBDB30460022002121540B9984
:10068000C1F80880C1E900200FB0BDE8F08FBD1BA4
:100690006D1CDEE74A4600DA694206A800F0B4FAAB
:1006A00006AB93E8070003AB83E8070050460A99BE
:1006B00000F095FB8DE80700A0F500501F38009072
:1006C0000398002D0ADD42F21F014A460844002328
:1006D00003A90390684600F0FEFD09E0A0F5005074
:1006E0004A461F38002303A90390684600F008FE1D
:1006F0008DE807000004000C03D04FF0FF304108E4
:1007000000E01046B8F1000F03D000220092154619
:100710001EE0751E05D400F0F1F9303262556D1EF1
:10072000F9D5B3460122084302D000227F1C04E021
:100730002078302801D100227F1E002A099784D01A
:100740001DE0112D07DA00F0D9F9303262556D1C29
:1007500050EA0102F5D1084302D00098C8B10EE07A
:100760000021681E05E0235C625C63542254401E35
:10077000491C8142F7DBAB46A81B401E09900020B4
:1007800004F80B000B98099AC0F80880C0E9002B08
:100790007AE711264FF0000857E72DE9F04F884619
:1007A0000446D21D22F0070191B0D1E90001CDE944
:1007B0000A0102F0AAFB02460B98C00F01D02D20BF
:1007C00007E02068810701D52B2002E0202101EA03
:1007D000C000032A099001D0072A05DB03464146E1
:1007E000204600F0D1F90BE12078800601D5E069C0
:1007F00000E00620B8F1650F814606D0B8F1660F1B
:1008000018D0B8F1670F70D131E00020B9F1110FA5
:10081000009001DB112301E009F101030AAA01A9FB
:100820000CA8FFF7E2FEDDE90C70002609F10105D6
:10083000834647E001204B4600904FF000470AAA4C
:1008400001A90CA8FFF7D1FEDDE90DB00C995D46BA
:10085000002610B909F101000D18B9EB050003D409
:10086000C0F1FF3609F10105A5EB09002BE0B9F154
:10087000010F01DA4FF001090020B9F1110F0090CA
:10088000484601DD112300E003460AAA01A90CA88D
:10089000FFF7ABFEDDE90C704D460026834620785D
:1008A00000070AD4AB4500DA5D4601A8012D04DD3E
:1008B000411911F8011C302907D04F4502DA17F110
:1008C000040F04DA012082460FE06D1EEEE7002FD0
:1008D00002DCED1B3E4403E0781CA84200DD7D1CD9
:1008E000B81B00F1010A4FF000472078000703D43D
:1008F000AA4501DB4FF0FF3A0021B7F1004F0DF19F
:1009000043088DF8431024D002202B23002F01DA56
:100910007F422D230A21021EA0F1010000DC5FB1FD
:1009200097FBF1FC97FBF1F201FB1C7C17460CF1E5
:10093000300C08F801CDEEE7A8F101000370218822
:10094000090501D5452100E06521A0F1010800F865
:10095000011C09980FA9A1EB0807FF1D00B1012098
:10096000411901EBEA70A1693844081A401EA061E0
:100970002078C00602D42046AFF30080099828B141
:10098000D4E901219047206A401C20622078C006EB
:1009900022D52046AFF300801EE0002E04DBB345D5
:1009A00002DD01A8805D00E03020D4E901219047FC
:1009B000206A401C2062761CAAF101005FEA000A4E
:1009C0000AD100F093F8C0680168405CD4E90121C5
:1009D0009047206A401C2062281EA5F10105DCDC3E
:1009E00007E0D4E9012118F8010B9047206A401C68
:1009F0002062381EA7F10107F3DC2046AFF3008028
:100A0000032011B041E6000001694A1C0261087828
:100A1000704700B58FB0CDE901310021059105493E
:100A20007944CDE9031011466846FFF75DFC0FB02D
:100A300000BD0000E5FFFFFF0A6802F8010B0A6035
:100A4000704710B5203AC0F00B80B1E81850203A3A
:100A5000A0E81850B1E81850A0E81850BFF4F5AF5E
:100A60005FEA027C24BFB1E81850A0E8185044BFE8
:100A700018C918C0BDE810405FEA827C24BF51F855
:100A8000043B40F8043B08BF7047D20728BF31F849
:100A9000023B48BF11F8012B28BF20F8023B48BF9A
:100AA00000F8012B70474FF000020429C0F01280BB
:100AB00010F0030C3FF4EEACCCF1040CBCF1020FCF
:100AC00018BF00F8012BA8BF20F8022BA1EB0C01E6
:100AD000FFF7E0BC5FEAC17C24BF00F8012B00F8FF
:100AE000012B48BF00F8012B7047000000487047F9
:100AF000941A002000487047741A002030B5B0F1F5
:100B00000A024FEA900E71F100034EEA817EB0EBCB
:100B10000E0061EB91014FEA101E4EEA017E10EBD0
:100B20000E0041EB11114FEA102E4EEA016E10EB50
:100B30000E0041EB11214FEA104E4EEA014E10EB30
:100B40000E0041EB1141401841F100014FEAD00085
:100B500040EA41704FEAD10110EB80054FEA810471
:100B600044EA907444EB01046D1944EB0404521BF5
:100B7000A3414FF0000348BF0A3200D530BD401CEE
:100B800041F1000130BD00002DE9F0411F4604464F
:100B900003260168072A01F4006004DB08B116A5EA
:100BA00005E016A503E008B115A500E015A521F0A4
:100BB00010002060A069C01EA0610FB1401EA0619E
:100BC0002046AFF300804FB1D4E901213846904769
:100BD000206A401C2062C01C206206E0206AFAE7FE
:100BE000D4E9012115F8010B9047761EF8D2204672
:100BF000AFF30080BDE8F0814E414E006E616E00A3
:100C0000494E4600696E66002DE9F047814616465A
:100C10008AB0354878440DC88DE80D0032487844D4
:100C2000801C03AC0DC884E80D0041F69B300844DD
:100C3000372190FBF1F290FBF1F5A5F1800501FB66
:100C400012041B3C02D56442012000E00020DFF8C2
:100C500098A080460027FA44AAF1BE0A0EE0E007F9
:100C60000AD03246684607EB470101230AEB8101AF
:100C700000F046FB8DE8070064107F1C002CEED1CD
:100C8000194F7F44AE3F19E0E80715D007EB041079
:100C90000DF1180A90E80E008AE80E00C068F042D4
:100CA00001D1981908903246012306A903A800F043
:100CB00027FB03AB83E807006D10641C002DE3D114
:100CC0004FF0010332466946B8F1000F03A802D085
:100CD00000F001FB01E000F013FBC9E90001C9F8D5
:100CE00008200AB0BDE8F0871C6400000048704787
:100CF000741A00207546FFF7F9FFAE4605006946F5
:100D0000534620F00700854618B020B5FFF7A2FA39
:100D1000BDE820404FF000064FF000074FF00008FC
:100D20004FF0000B21F00701AC46ACE8C009ACE87D
:100D3000C009ACE8C009ACE8C0098D46704710B5E1
:100D40000446AFF300802046BDE81040FFF722BA0A
:100D50004FF0013C50F8042B51F8043B9A4221D14A
:100D6000A2EB0C03934313EACC1317D150F8042BD6
:100D700051F8043B9A4215D1A2EB0C03934313EABA
:100D8000CC130BD150F8042B51F8043B9A4209D1F3
:100D9000A2EB0C03934313EACC13DBD04FF000001B
:100DA000704700BFD01A01BAB1FA81F101F0180101
:100DB00022FA01F0CB40C1F12001DBB2C0B2C01A6F
:100DC0002CFA01F3D11A914311EAC311E6D170470D
:100DD00001491820ABBEFEE72600020070475FEA1B
:100DE000400C08BF91F0000F4FEA8C234FEAC1225C
:100DF00043EA51514FEA1C5018BF00F5F0404FEA4A
:100E0000300018BF41F000415FEA6C5C00F02980BF
:100E1000BCF1FF3F08BF40F080407047130C06BF95
:100E200012044FF0100C4FF0000C130E04BF12020E
:100E30000CF1080C130F04BF12010CF1040C930FFA
:100E400004BF92000CF1020CD30F04BF52000CF14E
:100E5000010C11464FF00002A0F11F00A0EB0C00A6
:100E6000704711F0004F08BF704731F000413FF468
:100E7000D5AF0B0C06BF09044FF0100C4FF0000C5F
:100E80000B0E04BF09020CF1080C0B0F04BF090183
:100E90000CF1040C8B0F04BF89000CF1020CCB0F7A
:100EA00004BF49000CF1010CCCF12003A0EB0C00B5
:100EB00022FA03F302FA0CF241EA030100F1010005
:100EC000704720F07F4C80EA030023F07F47ACEBB3
:100ED000070303F57C5300F0004003F1FF032DE905
:100EE00080494FEA154B09B44FEA144325EA0B4EEB
:100EF00024EA03480FF2042606EB132749083E783C
:100F00005FEA320203FB0667C7F5000707FB06F638
:100F10004FEA54374FEAD64606F1020607FB066C45
:100F2000CCF1005C4FEA1C472CEA074C07FB06F4A7
:100F30000CFB06F504EB15464FEA961634BF00206D
:100F40004FF000404FEAD13706FB07FC4FEA1C4C3C
:100F50000CFB0BF7D21B03FB0CF761EB07010CFB3F
:100F60000EF7B0EB074072EB17420CFB08F734BFEB
:100F7000A2EB0742B2EB074261EB17414FEA0C4488
:100F80004FEA910706FB07FC4FEA1C4C0CFB0BF7E2
:100F9000B0EBC74072EB573203FB0CF734BFA2EB48
:100FA000C742B2EBC74261EB57310CFB0EF7B0EB17
:100FB000C70072EB57720CFB08F734BFA2EBC702F5
:100FC000B2EBC70261EB5771039F4FEA816141EABF
:100FD000921104EBCC044FEAD1374FEA826206FB50
:100FE00007FC42EA90124FEA80604FEA1C4C0CFB6F
:100FF0000BF7D21B03FB0CF761EB07010CFB0EF7A1
:10100000B0EB074072EB17420CFB08F734BFA2EBC2
:101010000742B2EB074261EB17414FEA8C554FEAAA
:10102000910704EB9C2406FB07FC4FEA1C4C0CFBCD
:101030000BF7B0EBC74072EB573203FB0CF734BF32
:10104000A2EBC742B2EBC74261EB57310CFB0EF784
:10105000B0EBC70072EB57720CFB08F734BFA2EB82
:10106000C702B2EBC70261EB577115EB4C254FEA93
:10107000816141EA92114FEA82624FEAD13742EA36
:10108000901206FB07FC44F100044FEA80604FEA2F
:101090001C4C0CFB0BF7D21B03FB0CF761EB07019D
:1010A0000CFB0EF7B0EB074072EB17420CFB08F796
:1010B00034BFA2EB0742B2EB074261EB174115EBDD
:1010C0001C154FEA813141EA92414FEA823242EAED
:1010D00090424FEA80304FEA0C7644F1000448EA2F
:1010E00003434EEA0B484FF0000EB2EB080C71EBD5
:1010F000030724BF624639464EEB0E0E4FF0000B3D
:101100000018524149414BEB0B0BB2EB080C71EB51
:1011100003077BF1000B24BF624639464EEB0E0EEF
:101120004FF0000B0018524149414BEB0B0BB2EB57
:10113000080C71EB03077BF1000B24BF62463946B4
:101140004EEB0E0E51EA020718BF46F0010616EBF1
:101150000E7655F1000254F1000103D5BDE8890176
:10116000BDE80088BDE88901BDE80048B6195241D4
:1011700041EB0101A3F10103704780807F7E7D7CFC
:101180007B7A7978777676757473727171706F6E19
:101190006E6D6C6C6B6A6A696868676666656464C4
:1011A000636362616160605F5F5E5E5D5D5C5C5B4E
:1011B0005B5A5A59595858575756565555555454BD
:1011C000535352525251515050504F4F4F4E4E4D1B
:1011D0004D4D4C4C4C4B4B4B4A4A4A494949484867
:1011E00048474747474646464545454444444443A7
:1011F00043434342424242414141002B9C4630D44A
:1012000077002BD01CB54FEA370703B44FF010001E
:101210004FF01001BAF1000F06D0BCF1000FDCBF97
:1012200040F0080040F008014FF000000FBCBDE89E
:1012300010400BF1010BBBF1010F08BF5FEA17076C
:1012400022BF12F1010211F101014FF0004143F1FF
:10125000000300F0004043EA00007047F9D357084C
:10126000D0E746EA064613F1400F4FEA16461FDD67
:1012700013F1200FDFBF16430A46002120335B42E3
:10128000BED0C3F1200746EA064602FA07F74FEA46
:10129000164646EA0706C3F1200722FA03F201FACE
:1012A00007F721FA03F14FF0000342EA0702A7E72C
:1012B00046EA020646EA06464FEA164646EA0106AE
:1012C000BCBF46EA0646360C4FF000034FF0000262
:1012D0004FF0000194E72DE9804C9A46934670B494
:1012E00091E8380007C831EA400C48BF34EA430CA3
:1012F00003D5FFF7E6FDFFF780FFF0BCBDE8008CEB
:101300002DE9804C9A46934670B491E8380007C89E
:1013100010F0804F08BF13F0804F03D100F005F8A4
:10132000FFF76BFFF0BCBDE8008C20F07F4780EA40
:10133000030023F07F4C07EB0C03A3F57C5300F074
:101340000040A3F1FE0392F0000F00F0B38095F08F
:10135000000F00F077802DE901494FEA11404FEA74
:10136000144621EA004800FB06FC24EA064708FB75
:1013700006F607FB08F800FB07F718EB06484CEBEE
:10138000164C4FEA124B18EB07484FEA15464CEB48
:10139000174022EA0B4E0BFB06FC25EA06470EFB24
:1013A00006F607FB0EFE0BFB07F71EEB064E4CEB9B
:1013B000164C4FF000061EEB074E4CEB174B18EB8C
:1013C0000B0840F1000018EB0E0B58EB000840F141
:1013D00000008F1A4FF000013CBFC943661B14BFC9
:1013E000B5EB040C00213CBFC943F61B4FEA174480
:1013F0004EEA8E0E27EA04454FEA1C4704FB0762BB
:101400002CEA074C05FB07F70CFB05F604FB0CFC6C
:1014100016EB074642EB174216EB0C4642EB1C421A
:101420001BEB060658EB0202414146EA9E0601D537
:10143000BDE80189B619524141EB0101A3F1010355
:10144000BDE801894FEA14454FEA114724EA0546F1
:1014500021EA074C05FB07F406FB07F70CFB06F136
:1014600005FB0CFC11EB074144EB17444FEA124714
:1014700011EB0C4144EB1C4422EA074C05FB07F23C
:1014800006FB07F70CFB06F605FB0CFC16EB074604
:1014900042EB174216EB0C4642EB1C456A1854F11E
:1014A000000148BF7047B619524141EB0101A3F159
:1014B0000103704795F0000F37D04FEA11424FEA11
:1014C000144721EA024624EA074C02FB07F106FB17
:1014D00007F70CFB06F402FB0CFC14EB074441EB92
:1014E00017414FEA154714EB0C4441EB1C4125EA28
:1014F000074C02FB07F506FB07F70CFB06F602FBA1
:101500000CFC16EB074645EB174516EB0C4645EB76
:101510001C42121951F1000148BF7047B6195241DF
:1015200041EB0101A3F1010370474FEA14454FEA73
:10153000114724EA054621EA074C05FB07F106FBA3
:1015400007F70CFB06F24FF0000605FB0CFC12EB54
:10155000074241EB174112EB0C4251EB1C4148BFD3
:101560007047921841EB0101A3F101037047FEE7B8
:10157000704772B6FEE7000070B5044600F0FEF852
:101580000546601C02D004480078044400F0F6F8D8
:10159000401BA042FAD370BD080000202DE9F84F8F
:1015A000DFF8B8910024A9F1040B23460F2709F1B5
:1015B000040AABF1040EC9E00125A5402A40AA4265
:1015C0007DD1674ED1F804C0ACEB0608B44532D0EB
:1015D00014DCBCF1030F3AD009DCBCF1000F2AD0B7
:1015E000BCF1010F1CD0BCF1020F31D11DE0BCF1E8
:1015F000110F17D0BCF1120F2AD119E0B8F5881FCE
:1016000019D006DCB8F5803F15D0B8F5801F1FD182
:1016100011E0B8F5001F0ED0B8F5041F18D10AE08C
:10162000CB6815E0CB681B1D12E0CB6808330FE0D8
:10163000CB680C330CE08B682BB1012B4FF0080307
:1016400003D0456104E0042302E0056100E00023CB
:10165000FF2A01D8064601E000F104064FEA84059E
:1016600001D9A5F12005D6F8008007FA05FC28EA83
:101670000C0803FA05F548EA0508C6F800804D682D
:10168000ED0062D5374DAE6946F00106AE61AD6939
:1016900024F0030605F001050095334D06EB050C1B
:1016A000DCF80850A607360F07FA06F825EA080501
:1016B000DFF8B880404503D14FF0000817E044E060
:1016C000DFF8AC80404502D14FF001080FE0DFF8B1
:1016D000A480404502D14FF0020808E0DFF898806E
:1016E000404502D14FF0030801E04FF0040808FA2A
:1016F00006F848EA0508CCF808804D68D9F800607B
:10170000ED024D4601D5164300E096432E604D682C
:10171000DAF80060AD02554601D5164300E0964365
:101720002E604D68DBF80060AD035D4601D51643C1
:1017300000E096432E604D68DEF80060ED037546CC
:1017400001D5164300E096432E60641C0D682A46BE
:10175000E5407FF431AFBDE8F88F00000804014098
:10176000000011100010024000000140000801407C
:10177000000C014000100140001401400148806845
:10178000704700000800002070B5040025D094F8D0
:101790003D00002520B984F83C50204600F07EFA38
:1017A000242084F83D002068016821F001010160D7
:1017B0002068016841F4004101602068016821F45B
:1017C0000041016000F03EFC4D4A6168914201D841
:1017D0004C4900E04C49884201D2012070BD4B4980
:1017E0002368B0FBF1F15E6826F03F060E435E60B1
:1017F0006368934206D94FF4967359434FF47A7352
:10180000B1FBF3F12368491C1E6A26F03F06314301
:1018100019626168914210D84900401EB0FBF1F294
:10182000521CC2F30B02042A01D2042022E0B0FBB6
:10183000F1F0401CC0F30B001CE0A268F2B301EB16
:10184000C10303EB0116431EB3FBF6F35B1C43F429
:1018500080431B0549D092B301EBC10202EB011199
:10186000401EB0FBF1F0401CC0F30B0040F4804080
:1018700040F400402168CA694CF6FF739A43104354
:10188000C861D4E9071001432068026822F0C00251
:1018900011430160D4E9030101432068826848F2E2
:1018A000FF339A4311438160D4E90501084321685D
:1018B000CA6822F0FF021043C86001E00EE016E0A3
:1018C0002068016841F0010101602564202084F84E
:1018D0003D00256384F83E50002070BD01EB4106B9
:1018E000431EB3FBF6F35B1CB3E70120C2E701EB39
:1018F0004101401EB0FBF1F0401CC0F30B00B7E704
:10190000A086010080841E0000093D0040420F00B7
:101910002DE9FF4F83B00025DDE910799A46934603
:101920000446DDF848800095FFF728FF064694F846
:101930003D0020287CD119230122884920460096A9
:1019400000F060FF0028F5D194F83C0001286FD02A
:10195000012084F83C0020680168C90703D10168B0
:1019600041F0010101602068016821F4006101601B
:10197000222084F83D00402084F83E002564676200
:10198000A4F82A90608D20857548E062CDE9008634
:1019900053465A462046049900F036FE00287CD172
:1019A000208DDFF8C091202768B1012814D00228CB
:1019B000206801681ED041F480610160206841699F
:1019C00080690090BCE020684169816900910168EC
:1019D00041F400710160B3E02068016821F4806186
:1019E000016072B62068416981690091016841F423
:1019F00000710AE041F40061016072B6206841693B
:101A000081690091016821F48061016062B697E00C
:101A1000032865D801280CD0022843464FF0000265
:101A20004946204600960BD000F0ECFEA8BB0CE027
:101A300091E032464146204600F08AFF68BB72E0E2
:101A400000F0E0FE48BB72B633E02068016821F484
:101A50008061016072B620680069616A0870606A1E
:101A6000401C6062208D401E2085608D401E608578
:101A70003D4846F2A8110068B0FBF1F0C0EBC00091
:101A800000EB80000090401E009007D02068406965
:101A9000C04340070DD50098F5E727E044F8305FD4
:101AA0006773A573206940F02000206162B625733A
:101AB0001CE02068016841F4007101602068006941
:101AC000616A0870606A401C6062218D491E218530
:101AD000618D491E618562B621680969017026E041
:101AE00032464146204600F033FF18B1012007B0CE
:101AF000BDE8F08F20680069616A0870606A401C68
:101B00006062208D401E81B22185608D401E6085FF
:101B100020684269D243520712D4032903D10168D5
:101B200021F48061016020680069616A0870606A60
:101B3000401C6062208D401E2085608D401E6085A7
:101B4000208D00287FF464AF84F83D7084F83E5007
:101B500084F83C50CBE70220C9E7000002001000E7
:101B60000000FFFF04000100140000202DE9FF4FDA
:101B700083B09A46DDE9119793460446DDF840802C
:101B8000FFF7FCFD054694F83D0020287FD119237E
:101B9000012240492046009500F034FE002876D10D
:101BA00094F83C00012872D0012084F83C002068A1
:101BB0000168C90703D1016841F001010160206893
:101BC000016821F400610160212084F83D0040207B
:101BD00084F83E0000262664C4F82480A4F82A90E5
:101BE000608D20852C48E062CDE9007553465A4649
:101BF0002046049900F086FD70B930E02A46394647
:101C0000204600F0DDFE58B1206C042804D1206885
:101C1000016841F400710160012007B0BDE8F08F58
:101C2000606A216800780861606A401C6062218DEA
:101C3000491E89B22185628D521E628522685369D0
:101C4000DB435B070BD469B100781061606A401C0C
:101C50006062208D401E2085608D401E6085208D35
:101C60000028CBD12A463946204600F09FFD0028A7
:101C7000CAD154F83D0B016841F400710160202085
:101C800004F81E09E67766770020C6E7FFE7022022
:101C9000C3E70000020010000000FFFF30B585B070
:101CA00000210091019102910391214D0368214C83
:101CB000122103222048AB421DD1A36943F008033F
:101CC000A361A369039203F0080304931302CDE90F
:101CD00000316946FFF762FC1848416841F0E06155
:101CE00041F002014160E06940F40010E061E06908
:101CF00000F4001019E0124DAB4217D1A36943F074
:101D00000803A361A369039203F0080304934FF44B
:101D10004063CDE900316946FFF740FCE06940F4DB
:101D20008000E061E06900F48000049005B030BDFF
:101D30000054004000100240000C0140000001402F
:101D40000058004002488168027811448160704761
:101D500008000020074810B5016841F0100101603B
:101D6000032000F0A7F80F2000F006F800F050F86C
:101D7000002010BD0020024030B505461F4887B046
:101D8000C16941F00401C161C06906A900F0040005
:101D9000009001A800F036F90498B0B100F052F9B3
:101DA00040001749174AB0FBF1F11748491E02607D
:101DB000416040F2E7320021C0E903218160816186
:101DC00000F008FB040003D015E000F03BF9E8E761
:101DD0000D4800F02DFB04000DD11E2000F03CF852
:101DE000102D07D2002229461E2000F043F8074894
:101DF000056000E0012407B0204630BD001002401D
:101E000040420F0000080040580100200C00002054
:101E10000F4808B5816941F001018161816901F0D4
:101E200001010091C16941F08051C161C069002286
:101E300000F0805000900F21901E00F01BF8054824
:101E4000416821F0E06141F00071416008BD00008F
:101E50000010024000000140002809DB00F01F02D2
:101E6000012191404009800000F1E020C0F80011FC
:101E700070470000F0B40E4B1B680C46C3F30223FE
:101E8000C3F10705042D00D90425191D072901D226
:101E9000002300E0DB1E012606FA05F1491E214061
:101EA00099409E40761E16403143F0BC01F041B887
:101EB0000CED00E0064900F0070208684FF6FF034A
:101EC000184040EA0220034A1043086070470000AF
:101ED0000CED00E00000FA052DE9F0470F46050083
:101EE00061D0434E306800F00700B84209D2306834
:101EF00020F0070038433060306800F00700B84237
:101F000051D128683B4C810712D5400703D5606842
:101F100040F4E06060602878000703D5606840F412
:101F2000605060606068A96820F0F000084360605D
:101F30002878C00728D06868012810D021680228B6
:101F400010D0890700292EDA616821F003010143CE
:101F50006160FFF713FC804641F288390DE021688B
:101F60008903EFE78901EDE7FFF708FCA0EB080123
:101F7000494502D90320BDE8F0876068696800F030
:101F80000C00B0EB810FEFD1306800F00700B842D1
:101F90000BD9306820F0070038433060306800F01B
:101FA0000700B84201D00120E5E72878400705D5B1
:101FB0006068E96820F4E060084360602878000702
:101FC00006D56068296920F4605040EAC10060606D
:101FD00000F048F86168084AC1F30311515CC84039
:101FE0000649086006480068FFF7C6FE0020C2E701
:101FF0000020024000100240066700081400002084
:102000000C0000200F2202600C4A536803F0030307
:102010004360536803F0F0038360536803F4E063A4
:10202000C36052684FF4E06303EAD20202610448DD
:10203000006800F0070008607047000000100240D0
:10204000002002400448054900684968044AC1F379
:102050000221515CC840704714000020001002406B
:10206000166700080E4A51680E4801F00C03042B55
:1020700011D0082B0FD10C48C1F38343C903C05CB6
:102080000AD55168084AC1F34041921E515C054A85
:102090005043B0FBF1F070470449484370470000DB
:1020A0000010024000127A00F666000800093D00A8
:1020B0002DE9F84F040070D02078C04DC00749D0FA
:1020C0006868C0F38100012807D06868C0F3810008
:1020D000022809D16868C00306D52868800339D56D
:1020E00060680028E7D035E06068B0F5803F0BD02D
:1020F00010B1B0F5A02F11D0286820F480302860EE
:10210000286820F4802002E0286840F480302860AD
:10211000606890B1FFF732FB06460AE0286840F499
:1021200080202860F0E700BFFFF728FB801B6428B1
:1021300073D828688003F7D50CE0FFF71FFB06462D
:1021400005E000BFFFF71AFB801B6428F0D8286861
:102150008003F7D420789A4E80074FF001094FF0A2
:10216000000839D5686810F00C0F07D06868C0F314
:102170008100022809D16868C00306D42868800756
:1021800014D52069012808D110E02069B0B1C6F843
:102190000090FFF7F3FA074605E00AE1FFF7EEFAD1
:1021A000C01B0228C4D828688007F7D52868616951
:1021B00020F0F80040EAC10028600DE0C6F8008079
:1021C000FFF7DCFA074604E0FFF7D8FAC01B022845
:1021D00023D828688007F7D4207800072CD57948C1
:1021E000A169D9B1C0F80090FFF7C8FA074604E02A
:1021F000FFF7C4FAC01B02280FD8686A8007F7D51A
:1022000071484FF4FA510068B0FBF1F0009000BF44
:102210000098411E0091FAD20EE080E0C0F80080E4
:10222000FFF7ACFA074604E0FFF7A8FAC01B022844
:1022300075D8686A8007F7D42078400760D5E869C8
:102240000027C00008D4E86940F08050E861E869E0
:10225000012700F0805000905C480168C90513D444
:102260000168834641F480710160FFF787FA824676
:1022700006E000BFFFF782FAA0EB0A0064284ED800
:10228000DBF80000C005F5D5E06801280AD008B1E8
:10229000052813D0286A20F001002862286A20F05F
:1022A000040002E0286A40F001002862E06841F280
:1022B000883B98B1FFF762FA82460BE0286A40F04B
:1022C00004002862EEE700BFFFF758FAA0EB0A010E
:1022D00059455AD8286A8007F6D50CE0FFF74EFA20
:1022E000824605E0FFF74AFAA0EB0A0159454CD8AF
:1022F000286A8007F6D41FB1E86920F08050E861B1
:10230000E06988B36968C1F38101022944D00228D9
:10231000C6F8608004D0FFF731FA044638E034E0B4
:10232000FFF72CFA074604E0FFF728FAC01B022843
:102330002BD828688001F7D4206AB0F5803F05D1FA
:102340006868A16820F4003008436860D4E9080197
:102350000843696821F4741108436860C6F8609006
:10236000FFF70CFA044606E025E000BFFFF706FA87
:10237000001B022809D828688001F7D51BE000BFA0
:10238000FFF7FCF9001B022802D90320BDE8F88FF3
:1023900028688001F4D40EE00128F7D06868226A2A
:1023A00000F48031914204D1616A00F470108842D7
:1023B00001D00120EAE70020E8E700000010024019
:1023C000000042428004424214000020007000409D
:1023D0007047704710B5040003D094F83D0010B169
:1023E00007E0012010BD002084F83C00204600F0EA
:1023F0001EF8022084F83D00211D206800F048FDF1
:10240000012084F8460084F83E0084F83F0084F8F8
:10241000400084F8410084F8420084F8430084F8C6
:10242000440084F8450084F83D00002010BD70474A
:1024300090F83D10012901D001207047022180F859
:102440003D100168CA6842F00102CA6000680B4989
:10245000884208D0B0F1804F05D00949884202D0A7
:102460000849884204D1816801F00701062903D098
:10247000016841F00101016000207047002C01401B
:10248000000400400008004070472DE9F041044678
:102490000068C66805694FF00007A90713D5B107A2
:1024A00011D5F91E0161012020772068806980071D
:1024B000204602D0FFF7E8FF04E000F07EF8204657
:1024C00000F07CF82777680716D5700714D52168C7
:1024D0006FF004000861022020772068806910F402
:1024E000407F204602D0FFF7CFFF04E000F065F800
:1024F000204600F063F82777280715D5300713D555
:1025000021686FF008000861042020772068C06906
:102510008007204602D0FFF7B7FF04E000F04DF837
:10252000204600F04BF82777E80616D5F00614D5BC
:1025300021686FF010000861082020772068C069CA
:1025400010F4407F204602D0FFF79EFF04E000F029
:1025500034F8204600F032F82777E80708D0F00773
:1025600006D021686FF001000861204600F028F8CD
:10257000280608D5300606D521686FF0800008616E
:102580002046FFF725FF680608D5700606D52168A6
:102590006FF040000861204600F01CF8A8060AD53C
:1025A000B00608D521686FF0200008612046BDE81C
:1025B000F041FFF70EBFBDE8F081704770470000A3
:1025C00000680349884201D1FFF7BCBB7047000097
:1025D000000800407047FEE701684A69D24352058F
:1025E0000FD46FF480624A61002140F8301F20222E
:1025F00042738173026942F0040202610173012097
:1026000070470020704700002DE9F84F044600682D
:1026100089460B9D01689846174641F48061016028
:102620002068016841F48071016000954FF0011B42
:102630000022594620460A9B00F0E4F84FF4007A45
:1026400040B120680068C00501D5C4F840A003204F
:10265000BDE8F88F216809F0FE0008612B46284983
:1026600020460A9A00F016F9F0BB2068416980699B
:1026700000902A4620460A9900F0A2F940B1206C49
:1026800004283AD12068016841F40071016034E007
:10269000FEB2B8F1010F09D02168380A08612A4654
:1026A00020460A9900F08CF90028E8D120680661DC
:1026B0002A4620460A9900F083F90028DFD12068D5
:1026C000016841F48071016000950022594620465E
:1026D0000A9B00F097F80028B3D1216809F0FF00A9
:1026E00040F00100086100E007E02B460449204665
:1026F0000A9A00F0CFF80028AAD00120A8E700002D
:10270000020001002DE9F843044600680D46DDE9AA
:10271000089701689846164641F4807101604B465F
:1027200000224FF001112046009700F06BF848B1ED
:1027300020680068C00502D54FF4007020640320B3
:10274000BDE8F883216805F0FE0008613B464A4673
:102750001549204600F09EF888B9206841698069D3
:1027600000903A464946204600F02AF948B1206CCC
:10277000042804D12068016841F40071016001203F
:10278000DEE7F5B2B8F1010F09D02168300A08611F
:102790003A464946204600F013F90028E7D1206860
:1027A00005610020CCE700000200010070B516466C
:1027B0000D4604461EE02046FFF70EFF08B101203B
:1027C00070BD681C16D0FEF7D9FF801BA84200D848
:1027D00085B920684069C04340070BD5002044F804
:1027E000300F20216173A073216941F02001216124
:1027F0002073E4E720684069C0434007DBD4002031
:1028000070BD00002DE9F047984617460D46044676
:10281000C1F30746DDF820902AE000BFB8F1FF3F82
:1028200026D0FEF7ABFFA0EB0901414502D8B8F175
:10283000000F1DD12068012E16D0806925EA000006
:102840000004000C12D00020B84211D1002044F83E
:10285000300F20216173A073216941F020012161B3
:1028600020730120BDE8F0874069E7E70120EBE72E
:102870002068012E0AD0806925EA00000004000CBF
:1028800006D00020B842C9D00020EBE74069F3E74A
:102890000120F7E72DE9F047984616460D46044615
:1028A0004FF000094FF0200AC1F3074723E02068EA
:1028B0004069C043400515D42068016841F40071A7
:1028C000016021686FF480604861C4F8309084F83A
:1028D0003DA084F83E90216C41F00401216484F80D
:1028E0003C9021E0701C06D0FEF748FFA0EB0800EA
:1028F000B04203D816B1012F1FD021E02068012F6C
:1029000015D0806925EA00000004000C18D000BF33
:1029100044F8309F84F80DA084F80E90216941F0AE
:102920002001216184F80C900120BDE8F087406906
:1029300025EA00000004000CEAD12068406901E0AB
:102940002068806925EA00000004000CAFD1ECE7A4
:102950002DE9F041002590460E460446202728E048
:102960004069C043C0060CD454F8301B6FF010000F
:10297000486144F810596777A577206A2062257767
:1029800014E0FEF7FBFEA0EB0800B04200D886B9C9
:1029900020684069C04340060BD544F8305F677338
:1029A000A573206940F02000206125730120BDE857
:1029B000F08120684169C9434906D1D40020F6E777
:1029C00070B516460D4604461EE02046FFF704FE8D
:1029D00008B1012070BD681C16D0FEF7CFFE801B29
:1029E000A84200D885B920684069C04300060BD5CD
:1029F000002044F8300F20216173A073216941F059
:102A0000200121612073E4E720684069C04300068B
:102A1000DBD4002070BD00001CB5084A0021084826
:102A200000F050FD07490023802248601820CDE9BE
:102A3000000105A1084802F0A5FC1CBDD0660008F5
:102A4000012E00080000002053686F77424D50327D
:102A500038305461736B0000E12C0008114808B550
:102A6000816941F010018161816901F010010091DB
:102A7000816941F020018161816901F020010091AB
:102A8000816941F008018161816901F008010091CB
:102A9000816941F004018161806900F004000090C7
:102AA00008BD0000001002400D4810B50B49016040
:102AB0000C49416000214FF480428160C0E903125B
:102AC00041618161C1610162FEF75EFE002803D0B1
:102AD000BDE81040FEF74DBD10BD000000540040A1
:102AE000B0000020801A06000D4810B50B490160A7
:102AF0000C49416000214FF480428160C0E903121B
:102B000041618161C1610162FEF73EFE002803D090
:102B1000BDE81040FEF72DBD10BD0000005800407C
:102B200004010020801A0600FEE7FEE770B50024CD
:102B300004F1B000C0B200F0AFF8002000F0ACF833
:102B4000102000F0A9F80025002000F0B7F86D1C57
:102B5000EDB2802DF8D3641CE4B2082CE8D370BD2C
:102B600070B5C820FEF708FD044D0024285D00F074
:102B700093F8641CE4B2172CF8D370BD98000020C1
:102B800010B50446B031C8B200F086F8102040EA13
:102B9000141000F081F804F00F00BDE8104000F0C0
:102BA0007BB800002DE9F047203A0024089E0F462C
:102BB0008146D5B27F2803D900208F1C8146FFB201
:102BC000102B394612D0FFF7DBFF1B4905EB450000
:102BD00001EB4005285D0EB1C043C0B200F06EF8B5
:102BE000641CE4B2062CF5D3BDE8F087FFF7C8FFFC
:102BF000DFF8488004EB051118F801000EB1C0435E
:102C0000C0B200F05BF8641CE4B2082CF2D37F1C65
:102C1000F9B24846FFF7B4FF0024474604EB05101D
:102C20003844007A0EB1C043C0B200F047F8641CCB
:102C3000E4B2082CF2D3D7E71E6700084669000803
:102C40002DE9F8431E461746894604460025DDF85F
:102C5000208014E0334649462046CDF80080FFF737
:102C6000A1FF0C2E10D00834E4B27A2C01D90C2E1E
:102C70000CD0782C01D9102E08D06D1CEDB27A5DE5
:102C8000002AE7D1BDE8F883A41DEDE709F10100B2
:102C9000002400F0FF09F0E701B584B001214FF4F2
:102CA000807204A88DE807000B46002278210248B4
:102CB000FEF75CFF05B000BDB000002001B584B098
:102CC00001214FF4807204A88DE807000B464022D2
:102CD00078210248FEF74AFF05B000BDB000002091
:102CE000A4B0FFF73DFFFFF721FF21A800F011FA84
:102CF0007620ADF85C003248189021A90EA800F0AB
:102D0000A4F99DF86A00602850D00027002420AB69
:102D10001EAA1FA90EA800F08DFA1F9803F0CEFA84
:102D200005460E461E9803F0C9FA2A46334600F0BF
:102D300057FB05460E461E9803F0C0FA02460B46A6
:102D400020A101A8FDF7BCFA0021102301AA084622
:102D50000094FFF775FF1F9803F0B0FA02460B4688
:102D60001BA101A8FDF7ACFA102301AA0221002043
:102D70000094FFF765FF2A46334618A101A8FDF726
:102D80009FFA102301AA042100200094FFF758FFA6
:102D900077B1209803F092FA02460B4612A101A8DF
:102DA000FDF78EFA102301AA009404E00127ADE795
:102DB000102310A2009406210020FFF741FFA6E790
:102DC000040100207072653A20252E326600000052
:102DD00074656D703A20252E32660000616C743A7D
:102DE00020252E326600000068756D3A20252E32AF
:102DF0006600000068756D3A204E2F41000000000B
:102E0000012000F024FBFBE710B54FF0E020006943
:102E100002F010FB012803D0BDE8104002F03EB8DC
:102E200010BD30B58FB028216846FDF731FB142165
:102E30000AA8FDF72DFB01210804CDE900100024AC
:102E4000029402250491CDE907504FF4E010099057
:102E50006846FFF72DF908B172B6FEE70F20CDE9FD
:102E60000A054FF48060CDE90C4002210AA80E94B7
:102E7000FFF732F8002801D072B6FEE70FB030BD80
:102E8000704700000148FFF700BB00005801002018
:102E9000F0B50268194B1A4C1A4D4FF08047984212
:102EA00005D0B84203D0A04201D0A84203D122F0FD
:102EB00070064A683243984205D0B84203D0A04217
:102EC00001D0A84203D122F44074CA6822434C695D
:102ED00022F08002224302608A68C2620A6882622B
:102EE000984201D109690163012141610169C90762
:102EF00003D0016921F001010161F0BD002C014006
:102F00000004004000080040FEE7490050EAC120EC
:102F100018BF04204A0D18BF40F0010040F2FF72B4
:102F2000B2EB515F08BF40F00200012808BF052046
:102F300070470907090E002804DB00F1E02080F843
:102F40000014704700F00F0000F1E02080F8141D1D
:102F500070472DE9F0414F1E00EBC7010446D1E94F
:102F6000000115461E4637F006020DD02A463346AC
:102F700002F094FE7F1E04EBC703D3E9002302F0A6
:102F800025FC37F00602F1D1022F25D0042F13D0F3
:102F9000062F18BFBDE8F0812A46334602F07EFEB8
:102FA000D4E90A2302F012FC2A46334602F076FEE8
:102FB000D4E9082302F00AFC2A46334602F06EFEEA
:102FC000D4E9062302F002FC2A46334602F066FEEC
:102FD000D4E9042302F0FAFB2A46334602F05EFEEF
:102FE000D4E9022302F0F2FB2A46334602F056FEF1
:102FF000D4E90023BDE8F04102F0E8BB002213460B
:103000001046014902F09EBC0000F03F02F0DEBB1A
:10301000002213461046114602F094BC40F20132E1
:1030200000204FF0E04103F0E7BA0000024A002020
:10303000110703F0E1BA000001FDFFFF30380A2854
:1030400001D20120704700207047F8B50546808CFA
:103050000C46762801D0772857D1012305F132029A
:10306000D021284601F002FCE8BB95F83200582830
:1030700001D0602849D1B622E021284601F0A2FE05
:1030800088BB01236A46F321284601F0EFFB0028A4
:10309000F7D19DF80000C007F3D1284601F08EFB60
:1030A000002833D095F83200602804D1284601F07A
:1030B000F2FB00282AD060796178400140EA810063
:1030C000C2B2F521284601F07DFE60B920780128C2
:1030D00001D100202070E078A178400140EA810011
:1030E0002178084300E010E0C6B295F8320060286D
:1030F00005D12279F221284601F064FE28B9324632
:10310000F421284601F05EFE08B10020F8BD012040
:10311000F8BD03210170002242708170C1700171FD
:10312000417170472DE9FC41044690F83200904609
:103130000F461E46602804D00EB1002018600026FD
:1031400002E00EB1082300E006236A46F72120467C
:1031500001F08CFB10B10020BDE8FC819DF800005F
:103160009DF8042001039DF80100238841EA001125
:103170009DF80200B4F9025041EA10119DF80300D5
:10318000000340EA02109DF8052040EA1210C21028
:10319000A2EB4302C3EB20104043B4F904306A436E
:1031A0000013D212584302EBA03505EB85008030A6
:1031B000001238602A46204600F066F8C8F8000081
:1031C000AEB3BDF80600E18B40BA8003A0EB01501E
:1031D000A5F59635B4F92010227F01FB150094F96E
:1031E00022106A4369434FF40043891203EBE22241
:1031F00051439A0102EBA121B4F91A2000F5804055
:10320000514301F50051C01389134843C113494389
:10321000227EC9115143B0EB211001D5002004E0FA
:103220004FF0C851884200DD08460013306001208D
:1032300092E70000FEB51C0015460E4601D002AB19
:1032400000E0002301AA6946FFF76CFF002818D0B0
:10325000009803F027F90B4903F062F830600198F9
:1032600003F038F96FF0070103F0F4F928603CB17E
:10327000029803F02FF96FF0090103F0EBF92060D9
:103280000120FEBD0000C8422DE9F05F04468B46D8
:103290005249D0175118A1FB0182B4F9103040F106
:1032A000FF30A8FB039700FB012201FB0022DE1781
:1032B00002FB0373B4F90E5008FB0633A5FB017C37
:1032C000EE1706FB01C605FB00656E0446EAD7361D
:1032D0007F0417EB09055E41B4F90C304FF0000A8A
:1032E0001AEB050546EBC309B4F90A30A8FB037CC9
:1032F00002FB03C24FEAE37608FB0622B4F908306A
:103300004FEA1726A3FB01C84FEAE37707FB0181C9
:1033100003FB00104FEA003146EA02664FEA0C3028
:1033200041EA1C51301841EB2222001CE18842F591
:103330000043A0FB016703FB017100FB0A10421070
:10334000C31752EA030047D0CBF58016F017C10728
:1033500041EA5601F607751B40F63547A5FB070CF9
:1033600061EB090101FB07C1002605FB0611FCF713
:1033700083FFB4F91630420B42EAC142A3FB027C40
:10338000DD1705FB02C54E1303FB0653A7FB025CCA
:1033900003FB02C207FB06226B0E43EAC21356165A
:1033A000B4F91420A2FB007CD51705FB00C502FB75
:1033B0000155FA0CC01842EA45327141801841EBC0
:1033C000E5414FEA102040EA0160B4F912104FEADB
:1033D00001114018BDE8F09F0020FBE7000CFEFF44
:1033E00070B514461D4602460B4600200A4902F0FD
:1033F000A9FA0A4A0A4B00F0ABF80022094B02F086
:1034000073FE22462B4602F049FCBDE870404FF0A7
:103410000042054B02F096BAD0BCF8404A2DEE7D32
:103420003659C83F0000F03FBE9F7A3FFEF792FC3E
:10343000FFF7F7FCFFF712FBFFF736FBFFF754FB34
:1034400000F012F8FFF7E8FA00F020F8FEE710B5F8
:10345000EFF3058111B16FF0050403E0002408B11A
:1034600001F0CAFB204610BDEFF3058010B16FF0EC
:10347000050070470448016811B14FF0FF307047F4
:1034800001210160002070476800002010B5EFF3B3
:10349000058010B16FF0050010BD084801680129D2
:1034A00002D04FF0FF3010BD054A002182F8141DF4
:1034B0000221016001F008FC002010BD680000201E
:1034C0000BE000E02DE9FF414FEA01034FF000055A
:1034D000EFF30581039549BB40B3802718210024F1
:1034E0004AB3166806B1344696691EB13146761E57
:1034F000382E02D21679F60703D0002004B0BDE8BA
:10350000F081566906B1B708D2F808C0BCF1000FC7
:103510000DD0D5685C2D18D312693AB136B18DE85B
:1035200006103A46214601F05AFF03900DE0D66896
:103530005EB912694AB903AACDE90012BAB22146AE
:1035400001F020FF012800D003950398D6E7000082
:103550002DE9F04D1D460C4698B0174621F000416C
:1035600023F00043002814BF4FF0010C4FF0000C73
:103570000CEB440CFE4A0CEB02064FEA620C66456B
:103580002BD33E0018BF012606EB45061644F94A28
:10359000964222D3F84A53EA070C02D0944205D14E
:1035A00048B918B000201146BDE8F08D002808BFCA
:1035B0004FF0000C01D04FF0010C0CEB440212F55F
:1035C000001F0AD8002F14BF4FF0010C4FF0000C61
:1035D0000CEB450212F5001F07D918B03A462B46EE
:1035E0002146BDE8F04DFFF711BD0022DFF88CA3A6
:1035F000002CB8BF534526DADFF884C36345A8BF63
:10360000022220DADFF870C39C451CDCDFF874C3AB
:103610000CEB235CBCF1140F08DDCCF1340627FA67
:1036200006FC0CFA06F6BE420DD108E05FB9CCF1FB
:10363000140623FA06FC0CFA06F69E4203D10CF09F
:103640000102C2F1020251EA000C19D1002D17DA71
:10365000002C18BF022A01D0012A07D00220FCF753
:10366000BDFF18B0BDE8F04DFFF7C8BC0220FCF765
:10367000B5FFFFF7C3FC18B081F00041BDE8F08D45
:10368000B7F1000C6CD1534525D104F1804212F5FD
:10369000801201BF00280020B74918B008BFBDE85C
:1036A000F08DB548884207DC002DA1BF6046294651
:1036B00018B0BDE8F08D07E0281E05DA80F0004163
:1036C00018B06046BDE8F08DAF497944D1E90001FA
:1036D00018B0BDE8F08DDFF8A0C2634525D1002DFC
:1036E0001FDA19B1514512D1D8B909E0002840F0CC
:1036F000EC82A24A214618B062F31E01BDE8F08DAB
:103700000020214618B060F31E01BDE8F08D08DAF4
:1037100018B02346BDE8F04D02460020614602F095
:1037200011B918B02146BDE8F08D514518DAB5F150
:10373000804F0DD0A5F1005CBCF1FF5C10D1B4F15D
:10374000000C0DDB18B06146BDE8F04D01F0FBB890
:10375000234618B00246BDE8F04D194602F09EBA65
:10376000060024F0004C3BD1D9B1514533D1002C97
:1037700006DD002DA1BF0020514618B0BDE8F08D38
:10378000002C01DD002D1BDB002C13DA002D11DBDA
:10379000012A4FF0000014BF78497C4918B0BDE8F9
:1037A000F08D022A18BF002C0AD0012A08D1002C63
:1037B00006DA0AE0002CB8BF002D11DA012A04D085
:1037C000002018B00146BDE8F08D18B000204FF081
:1037D0000041BDE8F08DA1F14050B0F17F601AD0FA
:1037E000012000EBE47050EA020421D0624C521E2A
:1037F0004FF0000B104304BF4FF0000B644C6548C2
:1038000083427CDD644A654893421FDD884217DBB2
:10381000002D25DB37E0002C00DA4AB1022A0CBF6C
:1038200001204FF0FF3018B0BDE8F04D02F0E2B9D2
:103830000120FCF7D3FE18B0BDE8F04DFFF7E8BB60
:103840004D4A8A4202DC002D0ADC1CE0814202DA89
:10385000002D18DA04E0484B994220DD002D12DDDE
:103860000220FCF7BBFEFFF7D9FB05460E460022FF
:1038700053465846214602F011FA18B066F31E016D
:103880002846BDE8F08D0220FCF7A8FEFFF7CEFB2E
:103890000A46214618B062F31E01BDE8F08D0022F1
:1038A0003046614602F020FC80460E466FF0010271
:1038B00002F0A2FE4FF05532394B02F023FB424694
:1038C000334602F0EBF90022364B02F01BFB824636
:1038D0004246334604911046194602F0DFF952463B
:1038E000049B02F0DBF98A4600904FF0C0422E4B59
:1038F0004046314602F0D2F92C4A2B4B00E027E03B
:10390000CDE906015146009802F0C8F982460191BE
:10391000274A284B4046314602F0C0F95246019BE7
:1039200002F0E2FB82460B4602460591DDE9060104
:1039300001F04CFFDDE9062300268846304602F000
:10394000D3FB5246059B02F0DDFA024600F07EB939
:103950000020B1F5801F07DA35223046614602F0BB
:103960004BFE06466FF0340000EB215024E00000CF
:10397000FFFF1F00FFFF0F000000F03F0000F07F7F
:103980000000404301FCFFFFE23800000000F0FFB0
:103990000000F0BF0000E0410000F043FFFFEF3FF8
:1039A0005555D53F0000E03F4715F73FFE822B6598
:1039B00044DF5DF80BAE543EA0F2FF300190C1F33E
:1039C000130040F07F6141F040510291FE4988426E
:1039D000D8BF002004DDFD498142C8BF012001DDC0
:1039E0000D9008E000200D900198401C0190029875
:1039F000A0F5801002900299F54878440B910D993A
:103A000000EBC100D0E900230F9330460A920B99D6
:103A100002F06AFBCDE90601DDE90A2130460F9B81
:103A200001F0D4FE02460B460020EA4901F08AFF6D
:103A3000059102460B460090DDE9060102F02EF9E1
:103A40001490E5488A464FF00008784402990068CF
:103A500012904FF0005040EA61010D980F9B01EB6E
:103A6000804000F5002109910A9A129802F03CFB6F
:103A700032460B9B02F046FA4246534602F00EF9DC
:103A80000646029140465146099B129A02F006F9F9
:103A9000DDE9062302F036FA3246029B02F024FBEF
:103AA000059B009A02F0FAF80091149A049053468C
:103AB0001046194602F0F2F806460246C7480B4681
:103AC000029106217844FFF744FACDE90510029BE4
:103AD00032461046194602F0E1F8DDE9053202F0FF
:103AE000DDF805910646534640461946149A01F002
:103AF0006DFE009B049A02F0D1F83246059B01F05E
:103B000065FECDE90510424653461046194602F0BF
:103B1000C5F80022B24B02910A9001F057FEDDE990
:103B2000053201F053FE0E464246AD4B404602F0D0
:103B3000DBFA029B0A9A02F0D7FADDE9053202F0BD
:103B4000E1F9424602910A9033461046514602F08E
:103B5000A5F8CDE906015346149A02990A9802F095
:103B60009DF88A460290334642460099049802F036
:103B700095F85346029A01F029FE82460B4602460A
:103B80000591DDE9060101F021FEDDE906230020B3
:103B90008846064602F0A8FA5246059B02F0B2F9A2
:103BA000824609914FF060428E4B3046414602F00A
:103BB00075F8049006918C4A8A4B5046099902F098
:103BC0006DF882460291894A894B3046414602F09F
:103BD00065F85246029B01F0F9FD864B7B440D9A35
:103BE00003EBC203D3E9002301F0F0FD0E9007912F
:103BF000019801F0FFFF0591DDE9061382460E9A58
:103C0000049801F0E3FD7C4A7A440D9B02EBC30368
:103C1000D3E900230093029201F0D8FD5246059BA0
:103C200001F0D4FD0026884652463046059B02F03E
:103C30005BFA009B029A02F057FA069B049A02F084
:103C400053FA079B0E9A02F05DF9024600200B46DC
:103C500002903846294602F021F8824601912B460F
:103C600038461946029A02F03FFA3246434602F0BD
:103C700015F85246019B01F0A9FD07468A463246D7
:103C800043462946029802F009F805460E463A4690
:103C9000534601F09BFD594A8846914221DBA8EB2F
:103CA000020353EA000210D12A46334602F01CFAFE
:103CB000CDE90401524A534B3846514601F086FD86
:103CC000DDE9042302F0E8F821D20220FCF786FCAB
:103CD000FFF7A4F90A46214618B062F31E01BDE8B9
:103CE000F08D494B28F000429A4210D3474A08EB26
:103CF000020353EA00027FF4C6AD2A46334602F0BF
:103D0000F3F93A46534602F0C7F87FF6BCAD0022FD
:103D1000019228F000403E493E4A01EB2051824288
:103D200023DA481C4FF4801121FA00F040443A4A4B
:103D3000C0F30A517A44394BA1F2FF31CB4020EA5B
:103D40000303C0F3130040F48010C1F11401C84014
:103D500012680190B8F1000FBCBF404201902846A4
:103D6000314602F0C1F905460E462A46334638462A
:103D7000514601F02BFD4FF000084246284B4046CB
:103D8000059101F08BFFCDE90601264A264B4046FE
:103D9000059901F083FF009102902A463346404680
:103DA000059902F0A1F93A46534602F0ABF81F4AD2
:103DB0001F4B01F073FF009B029A01F007FD0746BD
:103DC000884602460B4635E08E9803007AB60B0013
:103DD0002A3500000000F03F6235000090340000FA
:103DE0000000084009C7EE3FFD033ADCF5015B1413
:103DF000E02F3EBE683300002C33000000009040EE
:103E0000FE822B654715973C00CC904000346F3FF5
:103E100001FCFFFF0000E03F78320000FFFF0F00D1
:103E2000432EE63F396CA80C615C20BEEF39FAFEE8
:103E3000422EE63FDDE9060101F0C8FCDDE906237C
:103E400005460E4602F050F93A46434602F05AF84B
:103E50000F462A46334600901046194601F01EFFD1
:103E6000824602462E4888460B4605217844FFF7D5
:103E700070F85246434601F011FF2A46334602F0DD
:103E800041F880468A463B4628463146009A01F072
:103E900005FF3B46009A01F099FC06910090002234
:103EA0004FF080434046514602F01EF90F460C90F9
:103EB000424653462846314601F0F0FE3B460C9AF6
:103EC00001F040FD069B009A02F00EF92A463346A7
:103ED00002F00AF90022134B02F014F8054601988B
:103EE0000E4601EB00510815002810DC284631462B
:103EF000019A02F081FBFFF708F8042808BFFFF7DA
:103F000095F828463146019A02F076FB05460B46A5
:103F100018B02A4658462146BDE8F04D01F0BEBE15
:103F2000183100000000F03F2DE9F041134C0F461E
:103F30000546E6682068001D00F02BFD681C07D1CF
:103F400037B12168BDE8F0410D48091D00F070BD92
:103F500020683544B5424560216805D2A06BBDE8B4
:103F6000F041091D00F04CBD606B091D00F048FDDB
:103F7000A06A854200D2A562BDE8F0811800002049
:103F8000900600202DE9F041054600F05DFD2D4C26
:103F9000A068401CA06020682B4F10B1606930B34E
:103FA0002BE02560A068012827D1002606EB8600BB
:103FB00007EB800000F016FD761C382EF6D3234860
:103FC00000F010FD2148143000F00CFD1F4828308F
:103FD00000F008FD1D483C3000F004FD1B48503047
:103FE00000F000FD194860631430A06305E020680C
:103FF000E96AC06A884200D82560606A401C606235
:104000006864E86A2169884200D9206100EB800079
:1040100007EB8000291D00F00BFD00F035FD606905
:1040200000280CD02068E96AC06A884207D2084993
:104030004FF080500860BFF34F8FBFF36F8FBDE824
:10404000F081000018000020E00100204006002060
:1040500004ED00E038B500F0F7FC104C2068C8B95A
:104060000F4800F0BFFC0E48143000F0BBFC0C48B9
:10407000E060143020610A4B0020F03B009003F117
:10408000500210210A2000F01FFF206010B105A18E
:1040900000F07CFDBDE8384000F0F6BC5400002084
:1040A00094070020546D72510000000030B4026C7F
:1040B0000B46002A0BD0C1681144C1608468A1423C
:1040C00001D30168C16030BC1846FCF794B930BC1C
:1040D00070472DE9F041856B174604460026026CB7
:1040E00082B1C7B1E068FCF786F9E168206C091A73
:1040F000E1602268914202D2A168081AE060022FB2
:1041000016D017E02068A8B9A06801F00BFA06469F
:104110000020A0600EE06068FCF76DF9216C60681B
:1041200008446060A168884204D32068606001E0B0
:1041300005B16D1E6D1CA5633046BDE8F08110B55C
:10414000044690F8590058B101280CD002280FD02D
:10415000502080F31188BFF34F8FBFF36F8FFEE7BE
:10416000206B00F0A5FC2046BDE8104000F0A0BC8C
:1041700010BD000010484FF44061420706D0C01D3A
:104180000D4920F00700411AC1F540610B4A002398
:104190000144C2E900030839183A21F0070111600F
:1041A0004B600B600B1AC0E9001393604FF00040A6
:1041B0005360506170470000740E0020840000209E
:1041C000144E154CA6F29C474FF08058DFF84C90E7
:1041D00012E000BF00F038FCF068C568281D00F050
:1041E000D8FBA068401EA0606068401E606000F0C0
:1041F0004BFC2846FFF7A3FF60680028EAD1386827
:104200000128F9D9C9F80080BFF34F8FBFF36F8F32
:10421000F2E700007C0600201800002004ED00E01A
:1042200070B51D46049C51B1C4F80020C4E90F01CB
:104230000121204600F07CFE84F84C5070BD2460C3
:10424000F4E700002DE9F05F8846DDE90B941546A0
:10425000834691009A460A9EA522206BFCF710F92E
:104260006FF00301206B01EB8501084420F0070784
:10427000780707D0502080F31188BFF34F8FBFF32A
:104280006F8FFEE70025B8F1000F0FD05FF0000040
:10429000221818F8001082F8341018F8001011B124
:1042A000401C1028F4D384F8435001E084F83450C3
:1042B000382E00D33726E662C4E91365201D00F0CE
:1042C0009CFB04F1180000F098FB2461C6F1380053
:1042D0006462A061656584F8585052465946384674
:1042E00000F05AFA2060B9F1000F01D0C9F800407F
:1042F000BDE8F09F30B5114900E011460A688242DE
:10430000FBD34B685C18844203D140681844486072
:10431000084643681C18944209D1084C183C24688C
:10432000A24209D052681A4442600A6812680260C8
:10433000814200D0086030BD0460F9E784000020AD
:1043400070B5002441600B4D0061914206D8D11A2E
:104350008269914206D2011D286907E09A4203D280
:10436000994201D3012403E0011DE86800F048FBF5
:10437000204670BD5400002010B5044600F064FBD8
:10438000A06B28B15FF0000400F07EFB204610BD5A
:104390000124F9E730B589B03C4D6EE0049800285F
:1043A00006DADDE90601059A90470498002864DBE7
:1043B000069C606910B1201D00F0EBFA03A800F024
:1043C000D7F8024604980A2857D2DFE800F005051E
:1043D000052D334A05052D3394F8280040F00100DF
:1043E00084F828000599A069059B01442046FFF741
:1043F000A7FF68B3216A2046884794F82800400741
:104400003BD5002000900598A16900234218194669
:10441000204601F091F9D8B9502080F31188BFF3FC
:104420004F8FBFF36F8FFEE714F8280F20F00100C5
:10443000207022E094F8280040F0010084F8280061
:104440000598A06128B1811813462046FFF778FF30
:1044500013E0502080F31188BFF34F8FBFF36F8FAD
:10446000FEE794F82800810703D4204600F020FBE3
:1044700003E020F0010084F82800002204A9286845
:1044800000F0AAFE002889D109B030BD54000020F8
:104490002DE9FC410F46054600F05AFC01A800F04A
:1044A00067F80446019818B101F0B4F8BDE8FC8142
:1044B000254EAFB130690068D0B30027291B3A46BA
:1044C000306800F077FB01F0A5F80028EED11F4915
:1044D0004FF080500860BFF34F8FBFF36F8FE5E759
:1044E000A542EBD801F096F8F0682746C068C4688A
:1044F000201D00F04EFA94F82800410719D5A06954
:104500002B4641193A462046FFF71AFFA8B1002072
:104510000346014600902A46204601F00DF960B995
:10452000502080F31188BFF34F8FBFF36F8FFEE7EA
:1045300007E020F0010084F82800216A204688471F
:10454000B4E70127BAE700005400002004ED00E0C2
:104550000648416B096829B1416BC968C968496857
:10456000816270474FF0FF31FAE700001800002029
:1045700070B5054600F06CFF064E0446B0688442F4
:1045800003D200F009F8012000E000202860204656
:10459000B46070BD54000020F8B5194D20E0C0682B
:1045A000C4680668201D00F0F4F9216A2046884797
:1045B00094F82800400713D5A0693044B04206D9CA
:1045C00024616060211DE86800F01AFA08E000200C
:1045D0000346014600903246204601F0ADF838B15E
:1045E000E86801680029DAD12969C5E90310F8BD36
:1045F000502080F31188BFF34F8FBFF36F8FFEE71A
:104600005400002008484068401C4FF0500080F3E0
:10461000118804D0BFF34F8FBFF36F8FFEE7BFF356
:104620004F8FBFF36F8FFEE78C000020074CE068D0
:10463000016841B1C0680021D0F80000FFF728FFF1
:10464000FFF7A8FEF3E701210020F7E75400002060
:104650002DE9F041044600F0F7F994F9455004F1D2
:10466000240609E0606A48B1304600F09BFF08B1BB
:1046700000F0F0FA6D1E6DB2002DF3DC4FF0FF3646
:1046800084F8456000F000FA00F0DEF994F9445037
:1046900004F1100709E0206948B1384600F082FFB4
:1046A00008B100F0D7FA6D1E6DB2002DF3DC84F86E
:1046B0004460BDE8F04100F0E7B900002DE9F041A9
:1046C0000546002700F044FB324E306808B9FFF77A
:1046D00051FD706905424ED1C5B3083568070ED04B
:1046E00005F00700C0F108000544680707D0502016
:1046F00080F31188BFF34F8FBFF36F8FFEE72DB3A9
:104700007068854237D82348183001460C6801E0AC
:1047100020460C466168A94202D221680029F7D1DF
:1047200031688C4227D007682168016060680837CB
:10473000411B10290FD96019420708D0502080F37F
:104740001188BFF34F8FBFF36F8FFEE713E0416017
:104750006560FFF7CFFD61687068401A7060B268ED
:10476000904200D2B060706901430020C4E90001AA
:10477000F068401CF06000F04DFF780707D0502033
:1047800080F31188BFF34F8FBFF36F8FFEE738467A
:10479000BDE8F0816C00002010B5031F4FF080745D
:1047A0001C601B1F21F001011960191F024B0B60D7
:1047B000143940380A6010BD0546000810B504469B
:1047C0000246882100F0A3F800284DD0A21C8A21BF
:1047D000204600F09CF8E8B3221D8C21204600F012
:1047E00096F8B8B3A21D8E21204600F090F888B349
:1047F00004F108029021204600F089F850B304F13A
:104800000A029221204600F082F818B304F10C024B
:104810009421204600F07BF8E0B104F10E029621CD
:10482000204600F074F8A8B104F110029821204647
:1048300000F06DF870B104F112029A21204600F0E8
:1048400066F838B104F114029C21204600F05FF8AC
:1048500000B100E008E004F116029E21204600F0BD
:1048600056F808B1012010BD002010BD3EB5144619
:104870000A46818C4FF6FF75CDE9004305EA4101F8
:1048800041F288350295806A0123FDF741F800283E
:1048900000D001203EBD1CB50446012300F11802E2
:1048A000A121FFF7E3FF10BB04F11A02E12120462A
:1048B00000F02DF8D8B1012304F11C02E3212046B9
:1048C000FFF7D4FF98B96A46E421204600F01FF8AC
:1048D00068B101AAE521204600F019F838B101239A
:1048E00004F12202E7212046FFF7C0FF08B10020B3
:1048F0001CBDBDF80000C1B2C0F3032040EA0110A6
:10490000E083BDF804000009208401201CBD7FB5B0
:104910001446828C4FF6FF7303EA420541F2883653
:10492000022303AA8DE84C000A46806A0123294627
:10493000FCF7EEFF10B1002004B070BDBDF80C0014
:1049400020800120F8E72DE9F04106460F4601F0EE
:10495000E5FA041E0D4618BF0120284320F0004050
:10496000C0F17F6000F1E040C00F0ED0301C18BFD6
:104970000120384320F00040C0F17F6000F1E040AA
:10498000C00F04BF0120FBF729FE20462946BDE8E1
:10499000F081D0E9013201699A60D0E901235A60BF
:1049A0004A68824201D182684A6000220261086836
:1049B000401E086008687047034B036003F15C0009
:1049C0000860802010607047BC070020044B036023
:1049D00003F15C0008604FF48070106070470000C5
:1049E000180A002000F108014FF0FF32C0E901125F
:1049F000C1600161002101607047002101617047C1
:104A000030B50B685A1C02D000F1080202E00269BE
:104A100004E02246546825689D42FAD953684B60E9
:104A200099608A60516008610168491C016030BD6D
:104A300042684A6093688B6093685960916008612E
:104A40000168491C01607047502080F31188BFF352
:104A50004F8FBFF36F8F0A494868401C4860012898
:104A60000CD10848006810F0FF0F07D0502080F3E9
:104A70001188BFF34F8FBFF36F8FFEE770470000C1
:104A80008C00002004ED00E00849486828B1401E71
:104A9000486001D180F311887047502080F311885D
:104AA000BFF34F8FBFF36F8FFEE700008C00002035
:104AB00070B500282AD0164DA0F108046068696915
:104AC000084207D1502080F31188BFF34F8FBFF306
:104AD0006F8FFEE722683AB1502080F31188BFF350
:104AE0004F8FBFF36F8FFEE78843606000F030F9AF
:104AF00060686968084468602046FFF7FBFB286926
:104B0000401C2861BDE8704000F084BD70BD00000D
:104B10006C0000204FF0E020002101618161054917
:104B20004FF47A720968B1FBF2F1491E4161072125
:104B3000016170471400002010B5FBF779FB1149A3
:104B400010280ED300F1E02090F8F0030A7890428C
:104B500007D2502080F31188BFF34F8FBFF36F8FC0
:104B6000FEE709480068896800F4E060884207D9D8
:104B7000502080F31188BFF34F8FBFF36F8FFEE794
:104B800010BD00008C0000200CED00E010B5084BBB
:104B9000002200BF53F832401CB1521C082AF9D33E
:104BA00010BD43F8321003EBC201486010BD000095
:104BB000A001002070B515460E460446FFF744FFDD
:104BC00094F944100020491C01D184F8440094F960
:104BD0004510491C01D184F84500FFF755FFA06B33
:104BE00028B92A46314604F1240000F051F8204645
:104BF000BDE87040FFF72CBD10B5020014D00F487F
:104C0000006B38B1502080F31188BFF34F8FBFF392
:104C10006F8FFEE700F09CF800211046FFF784F943
:104C200000F0F8FC002807D105494FF080500860DB
:104C3000BFF34F8FBFF36F8F10BD0000180000202F
:104C400004ED00E002490A6A0260C96841607047E9
:104C50001800002001490120C86170471800002099
:104C600010B50C4650B1094909681831FFF7C8FE64
:104C70002046BDE810400121FFF756B9502080F3CF
:104C80001188BFF34F8FBFF36F8FFEE7180000202E
:104C900070B514460D4668B10A4909681831FFF726
:104CA000C7FE0CB14FF0FF3521462846BDE87040E5
:104CB000FFF73AB9502080F31188BFF34F8FBFF34D
:104CC0006F8FFEE71800002030B587B000240394F2
:104CD00005AA04A903A80494FFF76EFEDDE9030109
:104CE0000094CDE90110002315A11748059A00F0A2
:104CF00076FB164D0028E8621FD000F0EDFC01287D
:104D000009D0401C19D1502080F31188BFF34F8F78
:104D1000BFF36F8FFEE7502080F31188BFF34F8FF2
:104D2000BFF36F8F4FF0FF30A86201206861EC6025
:104D300007B0BDE8304000F05DB807B030BD0000FE
:104D400049444C4500000000C14100081800002003
:104D50000248016B491C01637047000018000020E5
:104D6000164810B5016B11B10121C16110BD0021C0
:104D7000C1610169124A01E0B9B1491E01EB810329
:104D800052F82330002BF7D001EB810302EB8302B2
:104D900002F1080453685B685360A34201D15B6869
:104DA0005360DA680260016110BD502080F3118801
:104DB000BFF34F8FBFF36F8FFEE700001800002096
:104DC000E001002037B5828C4FF6FF7303EA4204FE
:104DD00084B042F21075012306AA8DE82C000A4621
:104DE000806A2146FCF7C2FE002800D0012007B0EF
:104DF00030BD00001CB5264908780190FF200870DE
:104E000008788DF800009DF800009DF8002000F063
:104E1000F000904207D0502080F31188BFF34F8FED
:104E2000BFF36F8FFEE79DF800001A4C00F05000B2
:104E300020700720A06005E09DF8002052008DF84A
:104E40000020401E9DF800201206F5D4A060032823
:104E500007D0502080F31188BFF34F8FBFF36F8FBF
:104E6000FEE74FF44070A060019808700A4801689E
:104E700041F470010160016841F070410160FFF789
:104E800049FE00206060FBF79DF900201CBD00007A
:104E900000E400E08C00002020ED00E010B5502080
:104EA00080F31188BFF34F8FBFF36F8F00F0D6FAF6
:104EB00018B104494FF080500860002080F3118839
:104EC00010BD000004ED00E038B5049D18B153B1E9
:104ED000CAB181B120E0502080F31188BFF34F8F19
:104EE000BFF36F8FFEE7502080F31188BFF34F8F21
:104EF000BFF36F8FFEE7502080F31188BFF34F8F11
:104F0000BFF36F8FFEE739B1502080F31188BFF3F4
:104F10004F8FBFF36F8FFEE750241C46012384F8A8
:104F200046302B460094FFF77BF9204638BD000041
:104F300070B50D46040025D0FFF786FDD4E90F209B
:104F4000216802FB0011A1600021A163216861605A
:104F50000A46D4E90F01401E00FB0121E160214611
:104F60004FF0FF3001F8440F487004F110008DB18C
:104F7000FFF738FD04F12400FFF734FDFFF784FD4F
:104F8000012070BD502080F31188BFF34F8FBFF315
:104F90006F8FFEE721690029F0D000F003FB0028A5
:104FA000ECD004494FF080500860BFF34F8FBFF33F
:104FB0006F8FE3E704ED00E02DE9FF4782B01D4667
:104FC0008A464FF00008040003D0BAF1000F08D061
:104FD00011E0502080F31188BFF34F8FBFF36F8F24
:104FE000FEE7206C38B1502080F31188BFF34F8F5B
:104FF000BFF36F8FFEE7022D0AD1E06B012807D0C7
:10500000502080F31188BFF34F8FBFF36F8FFEE7FF
:1050100000F010FA3F4F4FF000094FF0805648B9AA
:10502000049838B1502080F31188BFF34F8FBFF33D
:105030006F8FFEE7FFF708FDA06BE16B884207D397
:10504000022D05D00498D0B1B8F1000F1AD01EE09F
:105050002A4651462046FFF73CF8616A19B104F12F
:10506000240000F09FFA20B13E60BFF34F8FBFF3E2
:105070006F8FFFF709FD012006B0BDE8F087FFF74D
:1050800003FD22E06846FFF7DDFD4FF00108FFF762
:10509000FBFCFFF75DFEFFF7D7FC94F94400401CD2
:1050A00001D184F8449094F94500401C01D184F862
:1050B0004590FFF7E9FC04A9684600F029F930B1F2
:1050C0002046FFF7C5FA00F0A5FA0020D4E7FFF765
:1050D000BBFCA06BE16B884213D1FFF7D5FC04F158
:1050E00010000499FFF7BCFD2046FFF7B1FA00F06D
:1050F00091FA00289ED13E60BFF34F8FBFF36F8FB0
:1051000098E7FFF7C1FC2046FFF7A2FA00F082FA09
:1051100090E7000004ED00E02DE9F0471F469046BF
:105120008946040003D0B9F1000F08D011E05020E7
:1051300080F31188BFF34F8FBFF36F8FFEE7206CB2
:1051400038B1502080F31188BFF34F8FBFF36F8FBA
:10515000FEE7022F0AD1E06B012807D0502080F330
:105160001188BFF34F8FBFF36F8FFEE7FFF7E4FCAB
:105170005020EFF3118680F31188BFF34F8FBFF3F8
:105180006F8FA06BE16B884206D3022F04D0002002
:1051900086F31188BDE8F08794F94550A06B3A4634
:1051A00049462046FEF795FF681C04D06D1C84F824
:1051B00045500120ECE7606A0028FAD004F1240091
:1051C00000F0F0F90028F4D0B8F1000FF1D001217F
:1051D000C8F80010EDE700002DE9F747002683B07E
:1051E0008A46040003D0BAF1000F08D011E0502025
:1051F00080F31188BFF34F8FBFF36F8FFEE7206CF2
:1052000038B1502080F31188BFF34F8FBFF36F8FF9
:10521000FEE700F00FF9DFF8F4804FF000094FF0DF
:10522000805748B9059838B1502080F31188BFF3F2
:105230004F8FBFF36F8FFEE7FFF706FCA56BC5B17D
:1052400051462046FEF732FF6D1EA563206950B11E
:1052500004F1100000F0A6F928B1C8F80070BFF3FF
:105260004F8FBFF36F8FFFF70FFC012006B0BDE833
:10527000F087059808B11EB106E0FFF705FC27E0AE
:105280006846FFF7DFFC0126FFF7FEFBFFF760FD36
:10529000FFF7DAFB94F94400401C01D184F84490F4
:1052A00094F94500401C01D184F84590FFF7ECFBD0
:1052B00005A9684600F02CF8002820460AD0FFF720
:1052C000C7F900F0A7F92046FFF756F80028B3D039
:1052D0000020CBE7FFF750F890B104F124000599C6
:1052E000FFF7BEFC2046FFF7B3F900F093F9002862
:1052F000A2D1C8F80070BFF34F8FBFF36F8F9BE749
:105300002046FFF7A5F900F085F995E704ED00E0E8
:105310002DE9F0410C46050011D0C4B1FFF794FB14
:10532000174BDA686E682068911B471C17D02F68EE
:105330001B6A9F4219D0964217D8012410E05020D2
:1053400080F31188BFF34F8FBFF36F8FFEE75020BC
:1053500080F31188BFF34F8FBFF36F8FFEE70024F8
:10536000FFF792FB2046BDE8F081884205D9401A3C
:1053700020602846FFF766FCF1E700202060DCE7AC
:10538000180000202DE9FF5F8346DDE90E8799466E
:1053900016468A469000FFF791F905001CD05C2064
:1053A000FFF78CF9040014D00020256384F859001D
:1053B000CDE90240CDE900874B463246514658467A
:1053C000FEF740FF2046FEF7DDFD012004B0BDE8FA
:1053D000F09F2846FFF76CFB4FF0FF30F6E7F0B583
:1053E00085B0DDE90B640A9DA6B1DCB15C270097AE
:1053F0002663022684F85960002604AFCDE90246F0
:10540000CDE90057FEF71EFF2046FEF7BBFD0498CE
:1054100005B0F0BD502080F31188BFF34F8FBFF36C
:105420006F8FFEE7502080F31188BFF34F8FBFF3DB
:105430006F8FFEE70548416919B1006B18B1002074
:1054400070470120704702207047000018000020BC
:105450000148C06870470000180000202DE9F041A5
:105460002E4C0027206B28B1A069401CA061384653
:10547000BDE8F081E668761CE66013D1606B0068D9
:1054800038B1502080F31188BFF34F8FBFF36F8F77
:10549000FEE7606BA16B6163A063206A401C206221
:1054A000FFF756F8A06ADFF87880864209D3606B70
:1054B0000068A0B1606BC068C5686868864211D298
:1054C000A0622068C06A00EB800158F82100012822
:1054D00000D90127E0690028C9D00127C7E74FF0AC
:1054E000FF30EDE7281DFFF754FAA86A18B105F15F
:1054F0001800FFF74EFAE86A2169884200D9206156
:1055000000EB800108EB8100291DFFF791FAE86AA2
:105510002168C96A8842CAD30127C8E71800002059
:10552000E001002070B504004FF0000133D01B4DA6
:105530002868844207D0502080F31188BFF34F8F32
:10554000BFF36F8FFEE7206D38B1401E2065E36C1E
:10555000E26A9A421FD040B11DE0502080F31188CA
:10556000BFF34F8FBFF36F8FFEE7201DFFF711FAD8
:10557000E06CE062C0F13800A061E06A296988420D
:1055800000D92861064900EB800001EB8000211D55
:10559000FFF74EFA0121084670BD000018000020F8
:1055A000E001002070B5C068C46854B104F118006F
:1055B0000646FFF7EEF9144D286B50B131461348FB
:1055C00015E0502080F31188BFF34F8FBFF36F8F2A
:1055D000FEE7201DFFF7DDF9E06A2969884200D95E
:1055E00028610B4900EB800001EB8000211DFFF7D3
:1055F0001FFAE06A2968C96A884202D90120E86175
:1056000070BD002070BD000018000020680600205A
:10561000E00100202DE9F0472C4D00242746286B9F
:1056200038B1FFF711FA286B401E2863286B40B190
:1056300046E0502080F31188BFF34F8FBFF36F8F88
:10564000FEE7A968224E0120D1B3A6F591698046F4
:105650003068E0B1F068C46804F11800FFF799F908
:10566000201DFFF796F9E06A2969884200D9286170
:1056700000EB800109EB8100211DFFF7D9F9E06AF9
:105680002968C96A8842E3D3C5F81C80E0E70CB1F9
:10569000FEF75EFFAC694CB14FEA0806FFF7DEFE8D
:1056A00000B1EE61641EF9D10020A861E86938B14B
:1056B0000849012738070860BFF34F8FBFF36F8F8A
:1056C000FFF7E2F93846BDE8F08700001800002037
:1056D0006806002004ED00E010B586B0FEF7BAFCC5
:1056E000114C2068B8B100200390049005AA04A9C9
:1056F00003A8FFF76BF9DDE9032102208DE807001D
:1057000000230AA10B48059AFFF769FE606010B1FB
:1057100006B0012010BD502080F31188BFF34F8FD9
:10572000BFF36F8FFEE7000054000020546D72201D
:10573000537663002D4600082DE9FF411E461346AF
:1057400002000A9D4FF0000016D0144C2768002F6D
:105750000FD0CDE900130292062917DAFFF76AFE8F
:1057600002284FF000030FD0002269462068FFF79F
:1057700023FC04B0BDE8F081502080F31188BFF312
:105780004F8FBFF36F8FFEE72A46EEE700233246C6
:1057900069463846FFF7C0FCEBE7000054000020E4
:1057A00010B500290AD00878002807D005487844A9
:1057B000FBF7CEFA002801D0002010BD0248784443
:1057C00010BD0000CA180000C218000010B591EA10
:1057D000030F48BF83F0004300F18E84841A71EBFD
:1057E000030C05D2121943EB0C03001B61EB0C01F7
:1057F000DFF824E14FEA1154A4EB135C1EEA430FD7
:1058000018BF9EEA445F73D023EA0E03DCF1200E3A
:1058100021EA045143F4801332D322FA0CFE10EB38
:105820000E0023FA0CFE41EB0E01CCF1200E03FA20
:105830000EFE10EB0E0051F10001B1F5801FCCF10E
:10584000200E32D201EB045112FA0EF2BDE81040E4
:1058500058BF7047401C38BF5FEA420218BF70470C
:10586000002814BF20F0010041F100014FEA41037C
:1058700013F5001F38BF7047A1F1C04100F006BB0F
:10588000012A43EB0302ACF1200CDCF11F0E32BF06
:105890004FF0000E23FA0CF310EB030041EB045120
:1058A000B4EB115FD0D0A1EB045101F58011490890
:1058B0005FEA300001EB04510ED350F1000038BF15
:1058C00012FA0EFE08D1BDE81040C9E7401C38BFEF
:1058D0005FEA4202CAD1C3E7BDE810404FEA410384
:1058E00013F5001F38BF7047A1F1C04100F0CEBAD8
:1058F0009EEA445F08D011EA5E0FBDE8104004BF85
:1059000001F0004100207047BDE8104070B500F084
:105910006FFA00BF64FBBE3E0000E0FF02494FF09B
:10592000000000F037BE00BF0000F87F491058BFEC
:10593000C1F140415B1058BFC3F140438B42EFF3CC
:10594000008070472DE9C04130B4DFF8A0C23CEAC6
:10595000111418BF3CEA131400F0EC8081EA03052F
:105960001CEA111444EAD57418BF1CEA131500F0A0
:10597000C780A4EB05044FF0004545EAC12145EA84
:10598000C32341EA505143EA525304F17F749942D0
:1059900004F500344FEAC0204FEAC22208BF90420B
:1059A00000F09C804FEA13650FF24016765D4FEAD7
:1059B000134506FB05F7C7F1807706FB07F74FEAAB
:1059C000D737A7FB03687642C8F58038A7FB06CE19
:1059D00038BFA8F1010807FB08E64FF0000EA6FB50
:1059E000028CE6FB03CEDCF1000CCEF1004E38BF9A
:1059F000AEF1010EA6FB0C584FF000074FF000056A
:105A0000E6FB0E87A1FB08C6A0FB07CE16EB0E0631
:105A100045F10005E1FB076515F1E04E7EBFA4F5F9
:105A200080345FEA46066D4116F1800745F10005B6
:105A30004FEA17274FEA066647EA0567A6F1DE46F2
:105A4000B6F1805F4FEA15251FD9384624F0010CC6
:105A500005EBC471BCF1FE6F01EB0C1102D8F0BC78
:105A6000BDE8008124425CBF01F5801E9EEAC47F30
:105A700002D4F0BCBDE80081244238D4F0BCA1F1CE
:105A8000C041BDE8004100F001BA4FEAD22242EA2B
:105A900043524FEAD323A7FB02864FEAD02040EAC5
:105AA000415007FB03661EEA0E0F4FEAD12105FBAA
:105AB000026658BFA6EB0056B6EB00564FEA520EF0
:105AC0004EEAC37E18EB0E0E56EB530EBDD518EB07
:105AD00002085E417F1C55F10005B6E74FF48015C2
