:020000040800F2
:1000000080350020610200086B1F00086719000896
:10001000691F0008AB0400088D32000800000000D2
:10002000000000000000000000000000C9010008FE
:100030002B060008000000000D020008512F0008E8
:100040007B0200087B0200087B0200087B0200089C
:100050007B0200087B0200082D0600084906000804
:100060007B0200087B0200087B0200087B0200087C
:100070007B0200087B0200087B0200087B0200086C
:100080007B0200087B0200087B0200087B0200085C
:100090007B0200087B0200087B0200087B0200084C
:1000A000E52F00087B0200087B0200087B020008A5
:1000B0007B0200087B020008F12F00087B02000889
:1000C0007B0200087B0200087B0200087B0200081C
:1000D0007B0200087B0200087B0200087B0200080C
:1000E000330600087B0200087B02000800F002F8DB
:1000F00000F05AF80AA090E8000C82448344AAF168
:100100000107DA4501D100F04FF8AFF2090EBAE865
:100110000F0013F0010F18BFFB1A43F0010318473B
:1001200000560000205600000A444FF0000C10F862
:10013000013B13F0070408BF10F8014B1D1108BF65
:1001400010F8015B641E05D010F8016B641E01F805
:10015000016BF9D113F0080F1EBF10F8014BAD1C55
:100160000C1B09D16D1E58BF01F801CBFAD505E073
:1001700014F8016B01F8016B6D1EF9D59142D6D3CD
:10018000704700000023002400250026103A28BFF5
:1001900078C1FBD8520728BF30C148BF0B607047F9
:1001A0001FB51FBD10B510BD00F045F91146FFF792
:1001B000F7FF03F0DDF800F063F903B4FFF7F2FF97
:1001C00003BC00F06BF90000224B19680868B0E826
:1001D000F00F80F30988BFF36F8F4FF0000080F3BA
:1001E00011884EF00D0E70470000000006480068B0
:1001F000006880F3088862B661B6BFF34F8FBFF323
:100200006F8F00DF00BF00BF08ED00E0EFF3098053
:10021000BFF36F8F0F4B1A6820E9F00F106008B51D
:100220004FF0500080F31188BFF34F8FBFF36F8FF3
:1002300004F080F84FF0000080F31188BDE808401A
:1002400019680868B0E8F00F80F30988BFF36F8F72
:10025000704700BF3C000020EFF3058070470000AE
:100260000948804709480047FEE7FEE7FEE7FEE74A
:10027000FEE7FEE7FEE7FEE7FEE7FEE70448054986
:10028000054A064B70470000DB2F0008ED00000810
:10029000802F002080350020803100208031002018
:1002A000032A40F2308010F0030C00F0158011F8A2
:1002B000013BBCF1020F624498BF11F801CB00F87A
:1002C000013B38BF11F8013BA2F1040298BF00F8CE
:1002D00001CB38BF00F8013B11F0030300F025808B
:1002E000083AC0F0088051F8043B083A51F804CBB2
:1002F000A0E80810F5E7121D5CBF51F8043B40F878
:10030000043BAFF30080D20724BF11F8013B11F882
:1003100001CB48BF11F8012B24BF00F8013B00F8C6
:1003200001CB48BF00F8012B704710B5203AC0F050
:100330000B80B1E81850203AA0E81850B1E81850E6
:10034000A0E81850BFF4F5AF5FEA027C24BFB1E823
:100350001850A0E8185044BF18C918C0BDE8104094
:100360005FEA827C24BF51F8043B40F8043B08BF9D
:100370007047D20728BF31F8023B48BF11F8012B64
:1003800028BF20F8023B48BF00F8012B704702F05D
:10039000FF0343EA032242EA024200F02CB84FF086
:1003A000000200B5134694469646203922BFA0E8C5
:1003B0000C50A0E80C50B1F12001BFF4F7AF0907D1
:1003C00028BFA0E80C5048BF0CC05DF804EB8900C2
:1003D00028BF40F8042B08BF704748BF20F8022B05
:1003E00011F0804F18BF00F8012B7047704770471D
:1003F00070474FF000020429C0F0128010F0030C87
:100400003FF4CFAFCCF1040CBCF1020F18BF00F8E1
:10041000012BA8BF20F8022BA1EB0C01FFF7C1BFF5
:100420005FEAC17C24BF00F8012B00F8012B48BF14
:1004300000F8012B7047754600F02CF8AE46050019
:100440006946534620F00700854618B020B5FFF7EF
:1004500015FFBDE820404FF000064FF000074FF0B9
:1004600000084FF0000B21F00701AC46ACE8C009D2
:10047000ACE8C009ACE8C009ACE8C0098D467047DB
:1004800010B50446AFF300802046BDE81040FFF7EA
:1004900094BE0000004870471C2F0020014918201E
:1004A000ABBEFEE7260002007047FEE71148418818
:1004B000491C89B2418009291AD9002141800C3098
:1004C000C288521C92B2C280092A11D98288521C59
:1004D00092B28280C180052A0AD94288521C92B207
:1004E00042808180092A03D90288521C02804180FF
:1004F00070470000EC000020012000F00DB8000063
:1005000010B50221034800F035FA012800D0002080
:1005100010BD000000080140044B08B1012200E0BA
:1005200000220221184600F02ABA0000000801400B
:100530002DE9F05F82468B460020FFF7EDFF142087
:1005400002F027FF012202211C4800F018FA3C208B
:1005500003F04AFCFFF7D4FF4FF0FF3958BB4FF4CC
:100560007A742146012000F04EF820BB214600207D
:1005700000F049F8F8B900F023F8C5B200F020F80F
:1005800000F0FF0800F01CF8C4B200F019F8C7B280
:1005900000F016F8C6B20120FFF7BEFF05EB080019
:1005A00020443844B04206D1CAF800500020CBF8AD
:1005B0000040BDE8F09F4846FBE70000000801400E
:1005C0002DE9F04100242546671E4FF47A76314626
:1005D000012000F018F870B9282003F005FC640031
:1005E000FFF78EFF012801D144F0010431460020BD
:1005F00000F009F810B13846BDE8F0816D1C082DF7
:10060000E5DB2046F8E770B50C46054608E0FFF745
:1006100077FFA84201D1002070BD012003F0E4FB68
:10062000641EF4D24FF0FF3070BD7047012000F01F
:10063000A5B810B54FF4806000F0A0F8BDE81040F8
:100640004FF4006000F09AB8022000F097B872B63C
:10065000FEE7000070B5044600F096F90546601C00
:1006600002D004480078044400F08EF9401BA042F8
:10067000FAD370BD000000202DE9F84F4FF400615F
:100680000126DFF8E480DFF8E490DFF8E4A0394FDA
:1006900005464FF4005B44F62064884213D122469D
:1006A0000220401C9042FCDB504600F063F9012818
:1006B00022D1386801281FD1D8F8000000283CD189
:1006C0008DF800602DE04FF480618D4212D1022040
:1006D000401CA042FCDB504600F04CF901282CD114
:1006E0003868012829D1D8F80000002825D18DF8D4
:1006F000016016E0022D22D0012D1ED10220401CE7
:10070000A042FCDB0121504600F034F9012814D14D
:100710003868012811D1D8F8000000280DD18DF8D3
:10072000036000231A466946D9F8240003F0D4FF79
:1007300000225946104800F022F9BDE8F88F022047
:10074000401CA042FCDB0221504600F013F90128B6
:10075000F3D138680128F0D1D8F800000028ECD196
:100760008DF80260DDE70000E800002010000020A6
:10077000000C0140E400002000100140044910B5C5
:100780000A68024202D00860FFF776FF10BD000041
:10079000140401402DE9F84FDFF8B8910024A9F1C5
:1007A000040B23460F2709F1040AABF1040EC9E03C
:1007B0000125A5402A40AA427DD1674ED1F804C048
:1007C000ACEB0608B44532D014DCBCF1030F3AD0D0
:1007D00009DCBCF1000F2AD0BCF1010F1CD0BCF128
:1007E000020F31D11DE0BCF1110F17D0BCF1120F77
:1007F0002AD119E0B8F5881F19D006DCB8F5803F7A
:1008000015D0B8F5801F1FD111E0B8F5001F0ED02C
:10081000B8F5041F18D10AE0CB6815E0CB681B1DA2
:1008200012E0CB6808330FE0CB680C330CE08B6828
:100830002BB1012B4FF0080303D0456104E00423E2
:1008400002E0056100E00023FF2A01D8064601E02E
:1008500000F104064FEA840501D9A5F12005D6F878
:10086000008007FA05FC28EA0C0803FA05F548EAB7
:100870000508C6F800804D68ED0062D5374DAE69B9
:1008800046F00106AE61AD6924F0030605F00105EE
:100890000095334D06EB050CDCF80850A607360F23
:1008A00007FA06F825EA0805DFF8B880404503D1C5
:1008B0004FF0000817E044E0DFF8AC80404502D17B
:1008C0004FF001080FE0DFF8A480404502D14FF05F
:1008D000020808E0DFF89880404502D14FF0030895
:1008E00001E04FF0040808FA06F848EA0508CCF8D9
:1008F00008804D68D9F80060ED024D4601D51643D9
:1009000000E096432E604D68DAF80060AD0255466F
:1009100001D5164300E096432E604D68DBF8006079
:10092000AD035D4601D5164300E096432E604D6849
:10093000DEF80060ED03754601D5164300E09643EE
:100940002E60641C0D682A46E5407FF431AFBDE897
:10095000F88F000008040140000011100010024050
:100960000000014000080140000C0140001001405F
:10097000001401408068084000D0012070470AB18F
:10098000016170470904FBE7014880687047000077
:100990000000002070B5040025D094F83D0000252B
:1009A00020B984F83C50204600F050F9242084F807
:1009B0003D002068016821F00101016020680168A4
:1009C00041F4004101602068016821F400410160A8
:1009D00000F0FAFA4D4A6168914201D84C4900E0B2
:1009E0004C49884201D2012070BD4B492368B0FBBD
:1009F000F1F15E6826F03F060E435E606368934245
:100A000006D94FF4967359434FF47A73B1FBF3F15F
:100A10002368491C1E6A26F03F063143196261684B
:100A2000914210D84900401EB0FBF1F2521CC2F3B3
:100A30000B02042A01D2042022E0B0FBF1F0401C9A
:100A4000C0F30B001CE0A268F2B301EBC10303EB9F
:100A50000116431EB3FBF6F35B1C43F480431B05F6
:100A600049D092B301EBC10202EB0111401EB0FB71
:100A7000F1F0401CC0F30B0040F4804040F4004013
:100A80002168CA694CF6FF739A431043C861D4E9E0
:100A9000071001432068026822F0C0021143016080
:100AA000D4E9030101432068826848F2FF339A4386
:100AB00011438160D4E9050108432168CA6822F026
:100AC000FF021043C86001E00EE016E020680168F4
:100AD00041F0010101602564202084F83D00256378
:100AE00084F83E50002070BD01EB4106431EB3FB6D
:100AF000F6F35B1CB3E70120C2E701EB4101401EA6
:100B0000B0FBF1F0401CC0F30B00B7E7A08601007A
:100B100080841E0000093D0040420F002DE9FF4F78
:100B200083B09A46DDE9119793460446DDF840808C
:100B3000FFF72AFF054694F83D0020287FD11923AE
:100B4000012240492046009500F0A6FF002876D1FA
:100B500094F83C00012872D0012084F83C00206801
:100B60000168C90703D1016841F0010101602068F3
:100B7000016821F400610160212084F83D004020DB
:100B800084F83E0000262664C4F82480A4F82A9045
:100B9000608D20852C48E062CDE9007553465A46A9
:100BA0002046049900F0F8FE70B930E02A46394634
:100BB000204601F017F858B1206C042804D12068B1
:100BC000016841F400710160012007B0BDE8F08FB9
:100BD000606A216800780861606A401C6062218D4B
:100BE000491E89B22185628D521E62852268536931
:100BF000DB435B070BD469B100781061606A401C6D
:100C00006062208D401E2085608D401E6085208D95
:100C10000028CBD12A463946204600F011FF002893
:100C2000CAD154F83D0B016841F4007101602020E5
:100C300004F81E09E67766770020C6E7FFE7022082
:100C4000C3E70000020010000000FFFF10B586B0EF
:100C50000021009101910291039100680F4988429F
:100C60001AD10F4CA06940F00800A061A069694644
:100C700000F008000490C020009012200190032092
:100C800003900848FFF786FDE06940F40010E0613A
:100C9000E06900F40010049006B010BD005400405C
:100CA00000100240000C01400248816802781144A3
:100CB0008160704700000020074810B5016841F0CE
:100CC00010010160032000F0B7F80F2000F006F8D3
:100CD00000F050F8002010BD0020024030B505465D
:100CE0001F4887B0C16941F00401C161C06906A90C
:100CF00000F00400009001A800F046F90498B0B19B
:100D000000F062F940001749174AB0FBF1F11748AB
:100D1000491E0260416040F2E7320021C0E9032130
:100D20008160816100F07AFB040003D015E000F0DF
:100D30004BF9E8E70D4800F0CFFB04000DD11E2071
:100D400000F04DF8102D07D2002229461E2000F099
:100D500053F80748056000E0012407B0204630BD85
:100D60000010024040420F00000800400002002036
:100D7000040000200F4808B5816941F0010181613C
:100D8000816901F001010091C16941F08051C161A7
:100D9000C069002200F0805000900F21901E00F0EA
:100DA0002BF80548416821F0E06141F00071416095
:100DB00008BD0000001002400000014000280DDBCB
:100DC00000F01F02012191404009800000F1E02065
:100DD000C0F88011BFF34F8FBFF36F8F70470028AB
:100DE00009DB00F01F02012191404009800000F161
:100DF000E020C0F800117047F0B40E4B1B680C46A1
:100E0000C3F30223C3F10705042D00D90425191DDE
:100E1000072901D2002300E0DB1E012606FA05F1B6
:100E2000491E214099409E40761E16403143F0BC39
:100E300002F02DBA0CED00E0064900F00702086848
:100E40004FF6FF03184040EA0220034A10430860AF
:100E5000704700000CED00E00000FA052DE9F047B6
:100E60000F46050061D0434E306800F00700B842DD
:100E700009D2306820F0070038433060306800F055
:100E80000700B84251D128683B4C810712D5400772
:100E900003D5606840F4E06060602878000703D5FF
:100EA000606840F4605060606068A96820F0F000FD
:100EB000084360602878C00728D06868012810D0EF
:100EC0002168022810D0890700292EDA616821F0F4
:100ED000030101436160FFF757FD804641F2883905
:100EE0000DE021688903EFE78901EDE7FFF74CFD8D
:100EF000A0EB0801494502D90320BDE8F0876068EE
:100F0000696800F00C00B0EB810FEFD1306800F0A1
:100F10000700B8420BD9306820F007003843306032
:100F2000306800F00700B84201D00120E5E72878DA
:100F3000400705D56068E96820F4E0600843606018
:100F40002878000706D56068296920F4605040EAD7
:100F5000C100606000F048F86168084AC1F30311FD
:100F6000515CC8400649086006480068FFF7B6FEB5
:100F70000020C2E70020024000100240A24D0008FD
:100F80000C000020040000200F2202600C4A53686D
:100F900003F003034360536803F0F0038360536876
:100FA00003F4E063C36052684FF4E06303EAD202E3
:100FB00002610448006800F0070008607047000004
:100FC00000100240002002400448054900684968BA
:100FD000044AC1F30221515CC84070470C00002054
:100FE00000100240B24D00080E4A51680E4801F050
:100FF0000C03042B11D0082B0FD10C48C1F38343F1
:10100000C903C05C0AD55168084AC1F34041921E29
:10101000515C054A5043B0FBF1F070470449484326
:10102000704700000010024000127A00924D000844
:1010300000093D002DE9F84F040070D02078C04D24
:10104000C00749D06868C0F38100012807D06868EC
:10105000C0F38100022809D16868C00306D528685A
:10106000800339D560680028E7D035E06068B0F5C6
:10107000803F0BD010B1B0F5A02F11D0286820F41C
:1010800080302860286820F4802002E0286840F43E
:1010900080302860606890B1FFF776FC06460AE071
:1010A000286840F480202860F0E700BFFFF76CFC60
:1010B000801B642873D828688003F7D50CE0FFF7FD
:1010C00063FC064605E000BFFFF75EFC801B64285A
:1010D000F0D828688003F7D420789A4E80074FF024
:1010E00001094FF0000839D5686810F00C0F07D0DF
:1010F0006868C0F38100022809D16868C00306D47B
:101100002868800714D52069012808D110E02069DB
:10111000B0B1C6F80090FFF737FC074605E00AE1DA
:10112000FFF732FCC01B0228C4D828688007F7D517
:101130002868616920F0F80040EAC10028600DE0ED
:10114000C6F80080FFF720FC074604E0FFF71CFC10
:10115000C01B022823D828688007F7D4207800070E
:101160002CD57948A169D9B1C0F80090FFF70CFCE3
:10117000074604E0FFF708FCC01B02280FD8686A86
:101180008007F7D571484FF4FA510068B0FBF1F0D1
:10119000009000BF0098411E0091FAD20EE080E05E
:1011A000C0F80080FFF7F0FB074604E0FFF7ECFB18
:1011B000C01B022875D8686A8007F7D420784007DA
:1011C00060D5E8690027C00008D4E86940F0805085
:1011D000E861E869012700F0805000905C480168F0
:1011E000C90513D40168834641F480710160FFF79B
:1011F000CBFB824606E000BFFFF7C6FBA0EB0A0070
:1012000064284ED8DBF80000C005F5D5E068012859
:101210000AD008B1052813D0286A20F001002862FE
:10122000286A20F0040002E0286A40F001002862E9
:10123000E06841F2883B98B1FFF7A6FB82460BE0DD
:10124000286A40F004002862EEE700BFFFF79CFB2D
:10125000A0EB0A0159455AD8286A8007F6D50CE058
:10126000FFF792FB824605E0FFF78EFBA0EB0A0139
:1012700059454CD8286A8007F6D41FB1E86920F098
:101280008050E861E06988B36968C1F3810102298F
:1012900044D00228C6F8608004D0FFF775FB0446EE
:1012A00038E034E0FFF770FB074604E0FFF76CFB23
:1012B000C01B02282BD828688001F7D4206AB0F51B
:1012C000803F05D16868A16820F400300843686059
:1012D000D4E908010843696821F47411084368607F
:1012E000C6F86090FFF750FB044606E025E000BF1B
:1012F000FFF74AFB001B022809D828688001F7D5B0
:101300001BE000BFFFF740FB001B022802D90320AF
:10131000BDE8F88F28688001F4D40EE00128F7D0EA
:101320006868226A00F48031914204D1616A00F455
:101330007010884201D00120EAE70020E8E70000B1
:101340000010024000004242800442420C00002093
:10135000007000407047704770B590F83C20012A3B
:1013600026D0012480F83C40022280F83D2003680A
:101370005A689D6822F070060A6832435A600D4B25
:1013800002689A4208D0B2F1804F05D00A4B9A42C7
:1013900002D00A4B9A4204D1496825F080031943D0
:1013A000916080F83D40002180F83C10084670BDF7
:1013B000022070BD002C01400004004000080040E5
:1013C00010B50446022084F83D002068016A41F20D
:1013D0001112114207D1016A9210114203D1016822
:1013E00021F001010160204600F046F8002084F859
:1013F000460084F83E0084F83F0084F8400084F8FA
:10140000410084F8420084F8430084F8440084F8E2
:10141000450084F83D0084F83C0010BD10B5040080
:1014200003D094F83D0010B107E0012010BD00206A
:1014300084F83C00204600F031F8022084F83D009A
:10144000211D206801F0DAFD012084F8460084F8AF
:101450003E0084F83F0084F8400084F8410084F89E
:10146000420084F8430084F8440084F8450084F87E
:101470003D00002010BD000000680649884207D1E9
:101480000548816921F4006181611820FFF796BC4D
:1014900070470000002C01400010024008B50068B1
:1014A0000B49884212D10B48816941F40061816186
:1014B0008069002200F40060009005211820FFF7E9
:1014C0009BFCBDE808401820FFF789BC08BD000060
:1014D000002C01400010024090F83D10012901D07D
:1014E00001207047022180F83D100168CA6842F06F
:1014F0000102CA6000680B49884208D0B0F1804FF1
:1015000005D00949884202D00849884204D181683F
:1015100001F00701062903D0016841F001010160D3
:1015200000207047002C01400004004000080040EB
:1015300070B5044690F83C000025012817D001261C
:1015400084F83C60022084F83D002068826822F024
:10155000770222F47F4282600868502838D00DDC80
:1015600020284FD005DC90B3102811D14AE002208A
:1015700070BD302846D040280AD13BE060282FD0EB
:1015800070280DD0B0F5805F03D0B0F5005F12D0A9
:10159000012584F83D60002084F83C00284670BD99
:1015A000CB68D1E90121206801F06BFD20688168DA
:1015B00041F0770109E0CB68D1E90121206801F011
:1015C00060FD2068816841F480418160E1E719E0B5
:1015D000CA684968206801F009FE5021206806E0C9
:1015E000CA684968206801F012FE6021206801F095
:1015F00052FDCEE7CA684968206801F0F7FD402136
:101600002068F4E7226801461046F0E7704770B59D
:101610000446006801694FF00005C943890715D4E5
:10162000C168C943890711D4E91E016101202077EF
:10163000206880698007204602D0FFF7E7FF04E0BA
:1016400000F098F8204600F0FCF825772068016942
:10165000C943490717D4C168C943490713D46FF078
:1016600004010161022020772068806910F4407F26
:10167000204602D0FFF7CAFF04E000F07BF82046C6
:1016800000F0DFF8257720680169C943090716D4FF
:10169000C168C943090712D46FF008010161042031
:1016A00020772068C0698007204602D0FFF7AEFF90
:1016B00004E000F05FF8204600F0C3F825772068CA
:1016C0000169C943C90617D4C168C943C90613D4FF
:1016D0006FF010010161082020772068C06910F4C4
:1016E000407F204602D0FFF791FF04E000F042F86F
:1016F000204600F0A6F8257720680169C943C9078C
:1017000008D1C168C943C90704D1891E01612046B7
:1017100000F01EF920680169C943090609D4C168AF
:10172000C943090605D46FF0800101612046FFF727
:1017300011FE20680169C943490609D4C168C9433B
:10174000490605D46FF040010161204600F00AF916
:1017500020680169C94389060BD4C168C943890659
:1017600007D46FF0200101612046BDE87040FFF70B
:10177000F2BD70BD704770B5044690F83C0000267D
:101780000D4601280FD0012084F83C006AB1042ADC
:101790001DD0082A2FD00C2A3FD00126002084F823
:1017A0003C00304670BD022070BD206801F07CFC1A
:1017B0002068816941F0080181612068816921F018
:1017C00004018161206881692A69114311E0206860
:1017D00001F092FC2068816941F400618161206818
:1017E000816921F480618161206881692A6941EA07
:1017F00002218161D2E7206801F0AAFC2068C1695A
:1018000041F00801C1612068C16921F00401C16192
:101810002068C1692A69114311E0206801F0C4FC05
:101820002068C16941F40061C1612068C16921F487
:101830008061C1612068C1692A6941EA0221C161F0
:10184000ACE7704710B50446022249B104290ED016
:10185000082913D094F84100012816D0012010BDAA
:1018600094F83E000128F9D184F83E200FE094F866
:101870003F000128F2D184F83F2008E094F84000AE
:101880000128EBD184F8402001E084F841200122B6
:10189000206801F0E9FB0F492068884203D1426CBF
:1018A00042F4004242642068884208D0B0F1804F80
:1018B00005D00949884202D00849884204D181688C
:1018C00001F00701062903D0016841F00101016020
:1018D000002010BD002C0140000400400008004022
:1018E00030B504460D460068002201F0BDFB174BE1
:1018F00041F2111120688A10984209D1036A0B4203
:1019000006D1036A134203D1436C23F400434364BA
:101910002068036A0B4206D1016A114203D10168B3
:1019200021F00101016001203DB1042D08D0082DF6
:1019300009D084F84100002030BD84F83E00FAE769
:1019400084F83F00F7E784F84000F4E7002C0140FA
:1019500000680349884201D1FFF7A6B9704700002B
:10196000000800407047FEE701684A69D24352050B
:101970000FD46FF480624A61002140F8301F2022AA
:1019800042738173026942F0040202610173012013
:1019900070470020704700002DE9F84304460068B6
:1019A0000D46DDE9089701689846164641F48071B6
:1019B00001604B4600224FF001112046009700F0D5
:1019C0006BF848B120680068C00502D54FF400707C
:1019D00020640320BDE8F883216805F0FE0008615B
:1019E0003B464A461549204600F09EF888B92068D3
:1019F0004169806900903A464946204600F0F2F875
:101A000048B1206C042804D12068016841F40071B9
:101A100001600120DEE7F5B2B8F1010F09D02168BD
:101A2000300A08613A464946204600F0DBF80028B3
:101A3000E7D1206805610020CCE70000020001002A
:101A400070B516460D4604461EE02046FFF78CFF93
:101A500008B1012070BD681C16D0FEF795FF801BF1
:101A6000A84200D885B920684069C04340070BD51B
:101A7000002044F8300F20216173A073216941F0E8
:101A8000200121612073E4E720684069C0434007DA
:101A9000DBD4002070BD00002DE9F04798461746C2
:101AA0000D460446C1F30746DDF820902AE000BF4A
:101AB000B8F1FF3F26D0FEF767FFA0EB09014145D3
:101AC00002D8B8F1000F1DD12068012E16D0806910
:101AD00025EA00000004000C12D00020B84211D109
:101AE000002044F8300F20216173A073216941F078
:101AF0002001216120730120BDE8F0874069E7E7FC
:101B00000120EBE72068012E0AD0806925EA000059
:101B10000004000C06D00020B842C9D00020EBE73A
:101B20004069F3E70120F7E72DE9F04798461646AC
:101B30000D4604464FF000094FF0200AC1F3074755
:101B400023E020684069C043400515D4206801683F
:101B500041F40071016021686FF480604861C4F84D
:101B6000309084F83DA084F83E90216C41F004014F
:101B7000216484F83C9021E0701C06D0FEF704FF3D
:101B8000A0EB0800B04203D816B1012F1FD021E00E
:101B90002068012F15D0806925EA00000004000CA0
:101BA00018D000BF44F8309F84F80DA084F80E9040
:101BB000216941F02001216184F80C900120BDE8E9
:101BC000F087406925EA00000004000CEAD1206893
:101BD000406901E02068806925EA00000004000CEB
:101BE000AFD1ECE770B516460D4604461EE0204620
:101BF000FFF7BAFE08B1012070BD681C16D0FEF7D1
:101C0000C3FE801BA84200D885B920684069C04344
:101C100000060BD5002044F8300F20216173A0731B
:101C2000216941F0200121612073E4E720684069C7
:101C3000C0430006DBD4002070BD00007CB501F07D
:101C40004FFB31480090002301224FF47A712FA0FE
:101C500003F020F82F4C00230122E0612E48009071
:101C600064212EA003F016F820622E4A00212E488F
:101C700001F00CFCA06220461824CDE900400023AE
:101C800080222AA12D4802F05BFE22484FF4807585
:101C9000001DCDE9004000232A4629A12C4802F06E
:101CA0004FFE1C4800230830CDE900402A4629A1F8
:101CB0002D4802F045FE174800231030CDE90040C2
:101CC00080222AA12E4802F03BFE12480023183041
:101CD000CDE9004080222BA12E4802F031FE0D48B4
:101CE00000230C30CDE9004080222BA12F4802F0C8
:101CF00027FE084800231430CDE900402A462CA1D5
:101D0000304802F01DFE7CBD3532000854696D6517
:101D10007231000010000020AD04000854696D65A8
:101D200072320000BC4D0008292F000853686F77FD
:101D300054696D655461736B00000000792D0008D3
:101D400053686F774D656E755461736B00000000CA
:101D50008529000853686F7743616C656E64617212
:101D60005461736B000000008523000853686F778F
:101D7000466C6173684C696768745461736B0000EA
:101D8000C928000853686F7744485431315461734F
:101D90006B0000008D27000853686F77436C6F63FA
:101DA0006B54696D655461736B0000002126000857
:101DB00053686F7753657474696E675F5461736BB2
:101DC00000000000E92A0008F0B585B0002535487C
:101DD0000095019502950395816941F0100181619B
:101DE000816901F010010491816941F02001816154
:101DF000816901F020010491816941F00401816150
:101E0000816901F004010491816941F00801816157
:101E10008069254E00F008004FF400540490002221
:101E200021463046FEF7ABFD204F00220221384606
:101E3000FEF7A5FD00940124CDE901450225694680
:101E400030460395FEF7A6FC1120CDE90050694607
:101E50003846CDE90245FEF79DFC40F60340009070
:101E60001348CDE9010469461248FEF793FC0022AD
:101E700005210620FEF7C0FF0620FEF7B0FF002276
:101E800005210720FEF7B8FF0720FEF7A8FF002274
:101E900005212820FEF7B0FF2820FEF7A0FF05B09F
:101EA000F0BD000000100240001001400008014099
:101EB00000001110000C01400D4810B50B490160E5
:101EC0000C49416000214FF480428160C0E9031257
:101ED00041618161C1610162FEF75CFD002803D0B0
:101EE000BDE81040FEF7B3BB10BD00000054004039
:101EF00064010020801A060010B586B0002419483D
:101F0000009401940294039404941549059401608B
:101F100041F61F41C0E9011442F20F71C1604FF454
:101F20008071C0E9041480218161FFF777FA08B15C
:101F3000FEF78DFB4FF48050009069460948FFF78B
:101F4000F7FA08B1FEF783FB049404A90548059449
:101F5000FFF702FA002801D0FEF779FB06B010BDAA
:101F6000002C0140B8010020FEE7FEE770B5002418
:101F700004F1B000C0B200F00FF9002000F00CF93D
:101F8000102000F009F90025002000F017F96D1C61
:101F9000EDB2802DF8D3641CE4B2082CE8D370BDF8
:101FA00010B58D2000F0F8F8142000F0F5F8BDE829
:101FB0001040AF2000F0F0B870B5C820FEF74AFB23
:101FC000044D0024285D00F0E7F8641CE4B2172CEF
:101FD000F8D370BDBC00002070B5002404F1B0003F
:101FE000C0B200F0D9F8002000F0D6F8102000F0C0
:101FF000D3F80025012000F0E1F86D1CEDB2802D32
:10200000F8D3641CE4B2082CE8D370BD10B50446C4
:10201000B031C8B200F0C0F8102040EA141000F04F
:10202000BBF804F00F00BDE8104000F0B5B80000A8
:102030002DE9F047203A0024089E0F468146D5B28C
:102040007F2803D900208F1C8146FFB2102B394610
:1020500012D0FFF7DBFF1B4905EB450001EB400504
:10206000285D0EB1C043C0B200F0A8F8641CE4B211
:10207000062CF5D3BDE8F087FFF7C8FFDFF84880EE
:1020800004EB051118F801000EB1C043C0B200F016
:1020900095F8641CE4B2082CF2D37F1CF9B24846D0
:1020A000FFF7B4FF0024474604EB05103844007ADC
:1020B0000EB1C043C0B200F081F8641CE4B2082C39
:1020C000F2D3D7E7E04D0008085000082DE9FF4F94
:1020D00081B00026DDE90EA91D46934680463446B0
:1020E0004FEA5A0727E0281B401EC1B20A2001F020
:1020F0006EF9BBFBF0F00A21B0FBF1F201FB12001C
:1021000026B9691E8C4201DA48B101263030C2B2CC
:1021100007FB0480C0B25346CDF8009006E007FBF1
:102120000480C0B253462022CDF800900299FFF7F8
:102130007FFF641CE4B2AC42D5D305B0BDE8F08F9C
:102140002DE9F8431E461746894604460025DDF86A
:10215000208014E0334649462046CDF80080FFF742
:1021600067FF0C2E10D00834E4B27A2C01D90C2E63
:102170000CD0782C01D9102E08D06D1CEDB27A5DF0
:10218000002AE7D1BDE8F883A41DEDE709F10100BD
:10219000002400F0FF09F0E701B584B001214FF4FD
:1021A000807204A88DE807000B46002278210248BF
:1021B000FEF7B4FC05B000BD6401002001B584B099
:1021C00001214FF4807204A88DE807000B464022DD
:1021D00078210248FEF7A2FC05B000BD6401002092
:1021E000010004484FF00001006801D0FFF72ABB4E
:1021F000FFF776BBB400002070B58CB01C21684698
:10220000FEF7CDF84FF480700225CDE907050024D4
:1022100007A91048CDE90945FEF7BCFA0F4E0E4854
:102220004722316815C140F2E732E1E802248022FA
:1022300061E8044200F0E2FE60200090049440F265
:10224000F310CDE90105002269463068FFF793FAE3
:102250000CB070BD00080140002C0140B40000200B
:102260002DE9F04188B0884606461C216846FEF7F5
:1022700096F81A4C00212068FFF732FB2068FFF720
:102280009FF820681649002501604721C0E9011523
:10229000144F97FBF6F1491EC0E903158021C0E9F0
:1022A0000551FFF7BBF8602000900220029097FBD9
:1022B000F6F0401E00FB08F0642190FBF1F004955D
:1022C0000190002269462068FFF755FA0021206836
:1022D000FFF7B8FA08B0BDE8F0810000B4000020B4
:1022E000002C014040420F00F8B51A4C0025A4F123
:1022F000240620680095C11700EB5170C0F3C70198
:102300003079102314A2FFF71BFF60680095C117F6
:1023100000EB5170C0F3C7013079102311A2FFF711
:102320000FFFA0680095C11700EB5170C0F3C70103
:10233000307910230EA2FFF703FFE0680095C11764
:1023400000EB5170C0F3C701307910230BA2FFF7E7
:10235000F7FEF8BD240100207468616E6B20796F70
:1023600075000000666F6C6C6F77696E6700000027
:102370006D792070726F6A6563740000406D6F79CB
:10238000696A6900B0B000F0ABFF002204210120AF
:1023900002F056F86249086020B1012251036148F9
:1023A000FEF7EDFAFFF708FEFFF7E0FD60225E4959
:1023B00001A8FDF7BAFF5C491822603121A8FDF79A
:1023C000B4FF59480DF1680C78300FC88CE80F0045
:1023D000554A1EAB883207CA83E8070052491822C3
:1023E000943128A8FDF7A1FF0020814601260DF1B8
:1023F00068080546CDF89C00FFF7B8FD00240DF1F4
:10240000840A474604EB440101EB0A020095B846F2
:1024100017F814000C230121FFF792FE641C062C10
:10242000F0DD304600F0C2FF83464FF4FD6000F05F
:102430006FFF84B201224FF0070A09E0104600F056
:10244000B5FF011991FBFAF30AFB131084B2521C79
:10245000B242F3D301272E9421E000BFB4FBFAF17E
:102460000AFB11402E99641CC1F10701B94201D346
:10247000002103E018B909F10101C9B2894607EB4F
:10248000470201A91EAB00950A4433F8191018F849
:102490001000C1F3C7010C23FFF752FE7F1C5F45FC
:1024A000DCD92798009500EB400101A80A180C23FD
:1024B00004217520D21CFFF743FE19484FF0FF326C
:1024C00019A9006802F066F99DF86400012812D18C
:1024D000642140F6C41000F0EBFE2798761C401CE7
:1024E000C0B227900B2801D9002027900C2E00D9CC
:1024F00001268DF864509DF8670001287FF47CAFB9
:10250000642140F6C41000F0D3FE0848006801F0D2
:1025100039FE002001F0B8FE8DF867506CE700002E
:1025200034000020001001401C5600081400002058
:102530007CB50024102334A2022120460094FFF72A
:10254000FFFD102332A2062100200094FFF7F8FDC2
:102550001025314ECDE90054328801230221282074
:10256000FFF7B4FDCDE90054728801230221302029
:10257000FFF7ACFD102329A2022138200094FFF7B9
:10258000DFFDCDE90054B288012302214020FFF78E
:102590009DFDCDE90054F288012302214820FFF778
:1025A00095FDCDE900540836012332880621282004
:1025B000FFF78CFDCDE900547288012306213020FD
:1025C000FFF784FD102315A2062138200094FFF7A1
:1025D000B7FDCDE90054B288012306214020FFF762
:1025E00075FDCDE90054F288012306214820FFF74C
:1025F0006DFDCDE90054A6F10C00012342880421B1
:102600005E20FFF763FD7CBD5365743A0000000057
:102610005265743A00000000F00000203A0000000B
:102620001CB500F05DFE00220421012001F008FF2E
:10263000DFF84491C9F8000020B1012251034F484E
:10264000FEF79DF9FFF7B8FCFFF790FC4C4D002614
:1026500005F108082C1F40F6C41A4A4FFFF768FF1F
:10266000207830B94FF0FF3201A9D9F8000002F00C
:1026700091F89DF8040001280AD16421504600F029
:1026800017FE6078401C40B26070042800DD667060
:102690009DF8050001280BD16421504600F008FE8A
:1026A0006078401E40B26070002801DA042060703B
:1026B0009DF80600012811D16421504600F0F8FD74
:1026C00094F9010004280ED035F81010491C89B285
:1026D00025F81010092901D925F810609DF8070088
:1026E000012811D023E038680028F7D002F08EF9D5
:1026F0000246009600230121386802F015FB0120F4
:1027000020708DF80660E9E76421504600F0D0FDA6
:102710002670002300961A460321386802F004FB55
:102720001948006801F02EFD002001F0ADFD207871
:10273000012893D12988B8F80020404691428DD1D4
:1027400069884288914289D1A9888288914285D13D
:10275000E988B8F80600814280D1267000230096EF
:102760001A460321386802F0DFFA4FF47A715046B6
:1027700000F09EFD72E700003400002000100140D0
:10278000F000002030000020140000208CB0FDF785
:10279000B3FE00F0A5FD00220421012001F050FE4F
:1027A000414F386020B1012251034048FEF7E7F85D
:1027B000FFF702FCFFF7DAFB18223D4902A8FDF7FC
:1027C000B4FD00240AA909A8FDF7B2FE10B1FDF777
:1027D00093FE50E00A99142091FBF0F200FB121BCB
:1027E0000A2391FBF3F191FBF0F200FB121A099915
:1027F000002002AA52F820608E4200DA3546401CC2
:102800000528F7DB91FBF5F005FB101991FBF3F0C0
:1028100090FBF5F105FB1108102326A202210A20E6
:102820000094FFF78DFC1026CDE900640123524689
:1028300002213220FFF74AFCCDE9006401235A4609
:1028400002213A20FFF742FC10231CA204210A2097
:102850000094FFF775FCCDE9006401234246042192
:102860003220FFF733FCCDE9006401234A460421FE
:102870003A20FFF72BFC002208A9386801F08AFFF4
:102880009DF8230001289DD1642140F6C41000F07A
:102890000FFD0C48006801F075FC002001F0F4FC0D
:1028A0008DF823408EE70000340000200010014026
:1028B000FC56000854656D703A00000048756D695B
:1028C0003A000000140000201CB500F009FD0022B1
:1028D0000421012001F0B4FD244D286020B1012223
:1028E00051032348FEF74BF8FFF766FBFFF73EFB6B
:1028F000002610231FA2032114200096FFF720FCBE
:102900001F4F00244FF0FF3940F6C4184A4601A972
:10291000286801F03FFF9DF80600012815D16421C9
:10292000404600F0C5FC14B1012C0ED103E0FFF7C6
:1029300053FB012409E0FFF719FB10230DA203212B
:1029400014200096FFF7FCFB00249DF807000128E7
:10295000DCD16421404600F0ABFCFFF707FB386890
:1029600001F010FC002001F08FFCCFE734000020C4
:10297000001001404C696768743A204F46460000D9
:102980001400002008B500F0ABFC0421002208462A
:1029900001F056FD3A4E306020B101225103394812
:1029A000FDF7EDFFFFF708FBFFF7E0FAFFF7F8FA96
:1029B0004FF0FF37344C00254FF4FA68FFF7D6FA92
:1029C00000F080FA3A466946306801F0E3FE9DF86F
:1029D0000000012819D09DF80100012823D09DF89E
:1029E000030001282ED09DF802000128E6D16421C1
:1029F000404600F05DFC2548006801F0C3FB002064
:102A000001F042FC8DF80250D8E7207840B1401E1A
:102A1000207060686421401E6060404600F048FC01
:102A20008DF80050CAE72078042808D2401C207096
:102A300060686421401C6060404600F039FC8DF8FD
:102A40000150BBE76421404600F032FC20780528A5
:102A5000B4D2DFE800F003050F1113000C4800E0CA
:102A60000C48006801F08EFB002001F00DFC8DF891
:102A70000350A3E70848F4E70848F2E70848F0E7FE
:102A80003400002000100140DC0000201000002075
:102A90001800002020000020280000201C0000203A
:102AA000240000202DE9F8430D4E00240D4F25464B
:102AB000A6F1100856F8240004EB840107EB41024C
:102AC000C11700EB5170C0F3C701009598F80000E2
:102AD0001023FFF735FB641C052CEBDBBDE8F88306
:102AE00010010020C856000886B000F0F9FB042150
:102AF0000022084601F0A4FC894F386020B1012271
:102B000051038848FDF73BFFFFF756FAFFF72EFA0F
:102B1000FFF746FA844D4FF0000805F11400A5F1C7
:102B20001806059006F11400049005F108000390C2
:102B300006F1080005F10C0B06F10C0ADFF8EC9128
:102B4000A5F14C04CDF80800FFF710FAA06805289D
:102B50001BD2DFE800F0031414141800102374A231
:102B600003214020CDF80080FFF7EAFA102372A27B
:102B700006213D20CDF80080FFF7E2FA05E0E0688D
:102B800000F0E2F801E0FFF7AFFBFFF78BFFD9F8A9
:102B9000000028B94FF0FF3201A9386801F0FAFDB2
:102BA0009DF80400012804D09DF8050001284ED0AE
:102BB00092E0D9F80010491CC9F80010A068042858
:102BC0002DD005282BD2DFE800F0030B151D3000B7
:102BD0000122291D544801F023F90122311D06E08C
:102BE00001225148039901F01BF9029901224E4834
:102BF000183812E0012259464B4801F011F9012220
:102C00005146F4E7484901221031474801F008F9DC
:102C1000454901220839A1F1100001F001F9D9F864
:102C20000010142909D081B356E001223E480599CD
:102C300001F0F6F801220499D9E7A168042901D02E
:102C4000491CA160C9F800808DF804803FE0D9F8E4
:102C50000010491CC9F80010A06850B3052828D2FC
:102C6000DFE800F027030B141C0001222E48059911
:102C700001F0D6F80122049917E00122291D2A4803
:102C800001F0CEF80122311D0FE020E0012226489C
:102C9000039901F0C5F80122029906E00122594684
:102CA000214801F0BDF8012251461F48183801F0B3
:102CB000B7F8D9F80000142801D040B10CE0A068A2
:102CC00008B1401EA060C9F800808DF8058064211D
:102CD00040F6C41000F0ECFA9DF8060001280CD173
:102CE000642140F6C41000F0E3FAE068401C00EBF9
:102CF000D07121F00101401AE0609DF80700012821
:102D00007FF422AF642140F6C41000F0D1FA0D48E0
:102D1000006801F037FA002001F0B6FA14E700006D
:102D200034000020001001404C010020E800002089
:102D3000406D6F79696A6900323032312F30352F3A
:102D4000323700001400002008B5002148B10128E6
:102D500006D10091102306A204214520FFF7F0F9C7
:102D600008BD00911023042102A26420F6E70000B0
:102D70006F6666006F6E00000EB500F0B1FA464F48
:102D8000386801F081FA4548006801F07DFA44484E
:102D9000006801F079FA4348006801F075FA42488A
:102DA000006801F071FA4148006801F06DFA0022F4
:102DB0000421012001F044FBDFF8F480C8F8000092
:102DC000FFF7FAF8FFF7D2F810263A4D5FF000044B
:102DD000FFF7CCF8102338A201211E200094FFF742
:102DE000AFF9CDE900640123AA7903211420FFF78C
:102DF0006DF9CDE9006401236A7903211C20FFF7F6
:102E000065F910232EA2032124200094FFF798F9DE
:102E1000CDE9006401232A7903212C20FFF756F91C
:102E2000CDE900640123EA7803213420FFF74EF94D
:102E3000102323A203213C200094FFF781F9CDE960
:102E400000640123AA7803214420FFF73FF9CDE96C
:102E5000006401236A7803214C20FFF737F9FA2038
:102E600001F028F9287828B9002202A9D8F8000032
:102E700001F090FC9DF80A000128A9D1642140F6D8
:102E8000C41000F015FA386801F07CF9002001F058
:102E9000FBF98DF80A409BE7140000202000002079
:102EA000240000201C000020180000202800002022
:102EB00034000020D300002054696D65000000003C
:102EC0003A00000038B50024102311A22146204604
:102ED0000094FFF735F910230FA20321002000947E
:102EE000FFF72EF910230DA2032178200094FFF79D
:102EF00027F90B4800940B494068102300EB800031
:102F000001EB400203211E20FFF71AF938BD000033
:102F10004D656E75000000003C0000003E000000A2
:102F2000DC000020E8550008084C08B5E06948B10D
:102F300001F06CFD02460020034600900121E0698B
:102F400001F0F2FE012000F04BFAFBE71000002038
:102F500010B5502080F31188BFF34F8FBFF36F8FF0
:102F600001F05AFD18B104494FF08050086000206C
:102F700080F3118810BD000004ED00E030B58FB083
:102F800028216846FDF70BFA14210AA8FDF707FA75
:102F900001210804CDE900100024029402250491C7
:102FA000CDE907504FF4E01009906846FEF742F86B
:102FB00008B172B6FEE70F20CDE90A054FF4806034
:102FC000CDE90C4002210AA80E94FDF747FF002826
:102FD00001D072B6FEE70FB030BD70470020FFF79A
:102FE000FFB800000148FEF712BB0000B801002046
:102FF0000148FEF70CBB000000020020F0B502689B
:10300000164B174C174D4FF08047984205D0B842E9
:1030100003D0A04201D0A84203D122F070064A6832
:103020003243984205D0B84203D0A04201D0A84212
:1030300003D122F44074CA6822434C6922F0800212
:10304000224302608A68C2620A688262984201D1A1
:103050000969016301214161F0BD0000002C0140BC
:10306000000400400008004010B501F01F030121DA
:10307000046A99408C430462016A9A4011430162D8
:1030800010BD10B5846842EA032224F47F440A4349
:103090002243826010BD826822F070020A4342F02F
:1030A000070181607047000030B5036A026A22F0B0
:1030B000010202624268846924F073050C682C43A3
:1030C00023F002058B682B430A4DA8420BD123F055
:1030D0000805CB6822F440722B434D6923F00403AA
:1030E00015438A692A4342608461496841630362E7
:1030F00030BD0000002C014030B5026A036A23F0A5
:1031000010030362436884690D6824F4E64444EACA
:1031100005248D6822F0200242EA05120B4DA842D8
:103120000ED1CD6822F0800242EA05124D6923F4E7
:10313000406343EA85038D6922F0400243EA850338
:103140004360846149688163026230BD002C0140A4
:1031500030B5036A026A22F4807202624268C4696E
:1031600023F4007324F073050C682C438D6843EA44
:1031700005230C4DA8420ED1CD6823F4006343EA29
:1031800005234D6922F4405242EA05128D6923F469
:10319000806342EA05124260C4614968C163036208
:1031A00030BD0000002C014030B5046A026A22F4F0
:1031B000805202624268C3690D6823F4E64343EA21
:1031C00005238D6824F4005444EA0534064DA842D2
:1031D00004D14D6922F4804242EA85124260C36103
:1031E00049680164046230BD002C014010B5036AD7
:1031F000046A24F001040462846924F0F00444EABF
:10320000021423F00A020A438461026210BD10B561
:10321000036A046A24F010040462846923F0A003A2
:1032200024F4704444EA023243EA011182610162EB
:1032300010BD000014484178491CCAB200214270F8
:10324000092A03D941708278521C82708278052A3B
:1032500003D98170C278521CC270C278092A03D97E
:10326000C1700279521C02710279052A03D90171D9
:103270004279521C42714279052A03D94171817900
:10328000491C817170470000D3000020FEE7090748
:10329000090E002804DB00F1E02080F800147047DC
:1032A00000F00F0000F1E02080F8141D70470000CE
:1032B00038B50C460849096800290BD13221FEF7C0
:1032C000CFFF0020034600900448224604210068F6
:1032D00001F02AFD38BD00000C010020B8000020DC
:1032E00008B5FEF789FF0548002300901A46C8215B
:1032F00003A001F0CFFC0549086008BDDD2F0008E0
:1033000053797374656D536F756E6400B800002057
:1033100030B50546012802D00023012409E0012030
:1033200030BD204600F011F801280BD003F26D13D8
:10333000641CAC42F5DB07205B1C93FBF0F100FB47
:10334000113030BD03F5B773F2E74FF4C87190FB4D
:10335000F1F201FB120139B1810707D1642190FB21
:10336000F1F201FB120008B1012070470020704704
:10337000FDF7A2FCFFF702FEFEF726FDFEF79CFD1F
:10338000FEF7BAFD00F046F8FEF758FC00F05EF8D4
:10339000FEE770B5054600244FF47A7603E0304628
:1033A00000F022FD641CAC42F9DB70BD0D2809D28F
:1033B000DFE800F0080B070B090B090B0B090B09E1
:1033C0000B001D2070471E2070471F2070470246CB
:1033D000012000E05043491EC9B2FBD270470000F3
:1033E00010B5EFF3058149B9EFF3108131B9084900
:1033F0000968022905D1EFF3118111B16FF00504BD
:1034000003E0002408B100F055FE204610BD000086
:103410008C000020EFF3058058B9EFF3108040B91D
:1034200009490868022801D030B109E0EFF31180A2
:1034300030B16FF005007047012008600020704730
:103440004FF0FF30704700008C00002010B5EFF304
:10345000058060B9EFF3108048B90B49086802286D
:1034600002D0012806D00BE0EFF3118040B16FF0DD
:10347000050010BD0220086000F0C2FE002010BD53
:103480004FF0FF3010BD00008C000020F0B585B07B
:103490004FEA01034FF00004EFF305810394A1BB51
:1034A000EFF3108189BB21490968022902D1EFF3AA
:1034B000118151BB48B3802618218DF8104004AD0E
:1034C00042B3176807B13D4697691FB139467F1E61
:1034D000382F02D21779FF0702D0002005B0F0BDC7
:1034E000576907B1BE08D2F808C0BCF1000F0DD073
:1034F000D4685C2C18D312693AB137B18DE8061044
:103500003246294601F049FA03900DE0D7685FB9C9
:1035100012694AB903AACDE90012B2B2294601F0F4
:103520000FFA012800D003940398D7E78C000020FD
:103530002DE9F041134C0F46054666692068001DD1
:1035400000F089FC681C07D137B12168BDE8F04163
:103550000D48091D00F0CEBC20683544B5424560D9
:10356000216805D2A068BDE8F041091D00F0AABCA1
:103570006068091D00F0A6FC206B854200D225631F
:10358000BDE8F0813C000020380700202DE9F04123
:10359000054600F0BBFC2D4C2069401C20612068D2
:1035A0002B4F10B1E06930B32BE025602069012872
:1035B00027D1002606EB860007EB800000F074FCA4
:1035C000761C382EF6D3234800F06EFC21481430C8
:1035D00000F06AFC1F48283000F066FC1D483C30B3
:1035E00000F062FC1B48503000F05EFC194860603F
:1035F0001430A06005E02068E96AC06A884200D8FB
:103600002560E06A401CE0626864E86AA16988425B
:1036100000D9A06100EB800007EB8000291D00F0BD
:1036200069FC00F093FCE06900280CD02068E96A8E
:10363000C06A884207D208494FF080500860BFF343
:103640004F8FBFF36F8FBDE8F08100003C0000207A
:1036500088020020E806002004ED00E038B500F004
:1036600055FC104CA068C8B90F4800F01DFC0E486E
:10367000143000F019FC0C482060143060600A4BD4
:1036800000202833009003F1500210210A2000F09E
:10369000FBFEA06010B105A100F0D6FCBDE83840EB
:1036A00000F054BC780000204C070020546D72518B
:1036B0000000000030B4026C0B46002A0BD0C16839
:1036C0001144C1604468A14201D30168C16030BCAB
:1036D0001846FCF7E5BD30BC70472DE9F041856B1D
:1036E000174604460026026C82B1C7B1E068FCF7B9
:1036F000D7FDE168206C091AE1602268914202D28C
:103700006168081AE060022F16D017E02068A8B997
:10371000606801F0E5F90646002060600EE0A068F0
:10372000FCF7BEFD216CA0680844A0606168884277
:1037300004D32068A06001E005B16D1E6D1CA56377
:103740003046BDE8F08110B5044690F8590058B1F4
:1037500001280CD002280FD0502080F31188BFF32D
:103760004F8FBFF36F8FFEE7206B00F003FC204606
:10377000BDE8104000F0FEBB10BD000010484FF443
:103780000051420706D0C01D0D4920F00700411A24
:10379000C1F500510B4A00230144C2E90003083976
:1037A000103A21F0070111604B600B600B1AC0E961
:1037B000001393604FF000405360D06070470000EA
:1037C0001C0F0020A0000020144E154CA6F29C47B0
:1037D0004FF08058DFF84C9012E000BF00F096FBED
:1037E000F068C568281D00F036FB2069401E206186
:1037F000E068401EE06000F0A9FB2846FFF7A3FF49
:10380000E0680028EAD138680128F9D9C9F80080B1
:10381000BFF34F8FBFF36F8FF2E700002407002044
:103820003C00002004ED00E070B51D46049C51B141
:10383000C4F80020C4E90F010121204600F058FE21
:1038400084F84C5070BD2460F4E72DE9F0470E4633
:10385000DDE909841746824691009946089DA52214
:10386000206BFCF794FD6FF00301206B01EB8701E7
:10387000084420F00707780707D0502080F311880C
:10388000BFF34F8FBFF36F8FFEE72218315C82F8D2
:103890003410315C11B1401C1028F6D3002684F896
:1038A0004360382D00D33725E562C4E91356201D47
:1038B00000F005FB04F1180000F001FB2461C5F1E4
:1038C00038006462A061666584F858604A465146D3
:1038D000384600F077FA2060B8F1000F01D0C8F840
:1038E0000040BDE8F0872DE9F0471E46DDE9089469
:1038F00017460D0080460ED0002C14D0FFF7AEFE08
:10390000C4F80080C4E90657C4E90869201DBDE871
:10391000F04700F0D4BA502080F31188BFF34F8FE6
:10392000BFF36F8FFEE7BDE8F087000030B51149A7
:1039300000E011460A688242FBD34B685C1884425F
:1039400003D1406818444860084643681C189442F4
:1039500009D1084C103C2468A24209D052681A448C
:1039600042600A6812680260814200D0086030BD7F
:103970000460F9E7A000002070B5002441600B4D01
:103980000061914206D8D11A8269914206D2011D86
:10399000686807E09A4203D2994201D3012403E008
:1039A000011D286800F08EFA204670BD78000020C6
:1039B00010B5044600F0AAFAA06B28B15FF000042D
:1039C00000F0C4FA204610BD0124F9E730B589B0F3
:1039D000304D55E00498002806DADDE90601059A25
:1039E0009047049800284BDB069C606910B1201DAD
:1039F00000F031FA02A800F0B9F8024604980A284B
:103A00003ED2DFE800F00505053D263705053D26D9
:103A10000598A169034601442046FFF7ADFF00B3B6
:103A2000616A20468847E069012829D1002000907A
:103A30000598A169002342181946204601F074F93F
:103A400078B9502080F31188BFF34F8FBFF36F8F89
:103A5000FEE70598A06128B1811813462046FFF7BC
:103A60008BFF0DE0502080F31188BFF34F8FBFF321
:103A70006F8FFEE794F82C0010B9204600F07AFA18
:103A8000002204A9A86800F085FE0028A2D109B090
:103A900030BD0000780000202DE9FC410F460546AE
:103AA00000F040FC01A800F061F80446019818B14C
:103AB00001F08EF8BDE8FC81224EAFB1706800685D
:103AC000A8B30027291B3A46B06800F0D1FA01F0EC
:103AD0007FF80028EED11C494FF080500860BFF3FA
:103AE0004F8FBFF36F8FE5E7A542EBD801F070F879
:103AF00030682746C068C468201D00F0ACF9E06952
:103B0000012810D1A0692B4641193A462046FFF7FB
:103B100033FF40B100200346014600902A4620466C
:103B200001F002F920B1616A20468847C2E707E048
:103B3000502080F31188BFF34F8FBFF36F8FFEE7E4
:103B40000127BFE77800002004ED00E00648416847
:103B5000096829B14168C968C96849680163704743
:103B60004FF0FF31FAE700003C00002070B5054639
:103B700000F04CFF064E04463069844203D200F048
:103B800009F8012000E0002028602046346170BD63
:103B900078000020F8B5194D1FE0C068C4680668B9
:103BA000201D00F058F9616A20468847E069012825
:103BB00013D1A0693044B04206D924616060211D50
:103BC000286800F07FF908E00020034601460090D5
:103BD0003246204601F0A8F838B12868016800296B
:103BE000DBD16968C5E90010F8BD502080F3118869
:103BF000BFF34F8FBFF36F8FFEE700007800002008
:103C000008484068401C4FF0500080F3118804D0F1
:103C1000BFF34F8FBFF36F8FFEE7BFF34F8FBFF33D
:103C20006F8FFEE7A8000020002150B10A4B4269C7
:103C30009A420FD1806AA3F1280290420AD040B183
:103C400008E0502080F31188BFF34F8FBFF36F8FD0
:103C5000FEE701210846704738070020074C20681E
:103C6000016841B1C0680021D0F80000FFF714FFDF
:103C7000FFF7ACFEF3E701210020F7E77800002012
:103C80002DE9F041044600F041F994F9455004F162
:103C9000240609E0606A48B1304600F061FF08B1CF
:103CA00000F036FA6D1E6DB2002DF3DC4FF0FF36DA
:103CB00084F8456000F04AF900F028F994F944507E
:103CC00004F1100709E0206948B1384600F048FFC8
:103CD00008B100F01DFA6D1E6DB2002DF3DC84F802
:103CE0004460BDE8F04100F031B900002DE9F04139
:103CF0000546002700F016FB314E306808B9FFF783
:103D00003DFDF06805424BD1C5B3083568070ED0BC
:103D100005F00700C0F108000544680707D05020EF
:103D200080F31188BFF34F8FBFF36F8FFEE72DB382
:103D30007068854234D82248103001460C6801E092
:103D400020460C466168A94202D221680029F7D1B9
:103D500031688C4224D007682168016060680837A8
:103D6000411B10290FD96019420708D0502080F359
:103D70001188BFF34F8FBFF36F8FFEE710E04160F4
:103D80006560FFF7D3FD61687068401A7060B268C3
:103D9000904200D2B060F06801430020C4E9000105
:103DA00000F016FF780707D0502080F31188BFF38A
:103DB0004F8FBFF36F8FFEE73846BDE8F0810000FC
:103DC0009000002010B5031F4FF080741C601B1F73
:103DD00021F001011960191F024B0B6014394038A2
:103DE0000A6010BD013C000830B50C4A0021136880
:103DF000DC6A4FF47A726043B0FBF2F55A6A586A93
:103E00009042FCD002D9A0EB020202E0A4EB020235
:103E1000024411440246A942F1D330BD0002002001
:103E200010B503680C68A34205DA9C1804600B689F
:103E30009C4200DD036003680C68A34205DD9B1A09
:103E400003600A68934200DA0260026809688A42E5
:103E500000D1016010BDD0E9013201699A60D0E95A
:103E600001235A604A68824201D182684A60002276
:103E700002610868401E086008687047034B0360D1
:103E800003F15C0008608020106070476408002027
:103E9000044B036003F15C0008604FF48070106015
:103EA00070470000C00A002000F108014FF0FF3207
:103EB000C0E90112C1600161002101607047002169
:103EC0000161704730B50B685A1C02D000F108023E
:103ED00002E0026904E02246546825689D42FAD94E
:103EE00053684B6099608A60516008610168491CA1
:103EF000016030BD42684A6093688B609368596086
:103F0000916008610168491C01607047502080F38E
:103F10001188BFF34F8FBFF36F8F0A494868401C69
:103F2000486001280CD10848006810F0FF0F07D046
:103F3000502080F31188BFF34F8FBFF36F8FFEE7E0
:103F400070470000A800002004ED00E00849486820
:103F500028B1401E486001D180F31188704750207D
:103F600080F31188BFF34F8FBFF36F8FFEE7000020
:103F7000A800002070B5002827D0144DA0F1080437
:103F80006168E868014207D1502080F31188BFF3CF
:103F90004F8FBFF36F8FFEE722683AB1502080F356
:103FA0001188BFF34F8FBFF36F8FFEE781436160CE
:103FB00000F0B8F960686968084468602046FFF757
:103FC000B5FCBDE8704000F003BE70BD900000205D
:103FD0004FF0E02000210161816105494FF47A72C0
:103FE0000968B1FBF2F1491E416107210161704787
:103FF0000C00002010B5FCF72FF9114910280ED342
:1040000000F1E02090F8F0030A78904207D25020A7
:1040100080F31188BFF34F8FBFF36F8FFEE709481E
:104020000068896800F4E060884207D9502080F376
:104030001188BFF34F8FBFF36F8FFEE710BD0000F5
:10404000A80000200CED00E010B5084B002200BFD6
:1040500053F832401CB1521C082AF9D310BD43F862
:10406000321003EBC201486010BD0000480200207E
:1040700070B515460E460446FFF748FF94F9441004
:104080000020491C01D184F8440094F94510491CD2
:1040900001D184F84500FFF759FFA06B28B92A46E3
:1040A000314604F1240000F051F82046BDE870408C
:1040B000FFF7E6BD10B5020014D00F48806B38B191
:1040C000502080F31188BFF34F8FBFF36F8FFEE74F
:1040D00000F028F900211046FFF72AFA00F078FDD9
:1040E000002807D105494FF080500860BFF34F8F7B
:1040F000BFF36F8F10BD00003C00002004ED00E016
:1041000002498A6A02604969416070473C000020A8
:1041100001490120486270473C00002010B50C4660
:1041200050B1094909681831FFF7CCFE2046BDE8B7
:1041300010400121FFF7FCB9502080F31188BFF334
:104140004F8FBFF36F8FFEE73C00002070B5144621
:104150000D4668B10A4909681831FFF7CBFE0CB16A
:104160004FF0FF3521462846BDE87040FFF7E0B923
:10417000502080F31188BFF34F8FBFF36F8FFEE79E
:104180003C00002070B504002AD01A4D28688442F3
:104190002ED0FFF7BBFE2046FFF746FDE0B1201D05
:1041A000FFF759FEE06AA969884200D9A86112495F
:1041B00000EB800001EB8000211DFFF79BFEE06A11
:1041C0002968C96A884207D30C494FF080500860BB
:1041D000BFF34F8FBFF36F8FBDE87040FFF7B6BEE0
:1041E000502080F31188BFF34F8FBFF36F8FFEE72E
:1041F00070BD00003C0000208802002004ED00E0BB
:1042000030B587B00024039405AA04A903A8049438
:10421000FFF734FEDDE903010094CDE9011000232E
:1042200015A11748059A00F0B8FB164D00286863E1
:104230001FD000F049FD012809D0401C19D15020A1
:1042400080F31188BFF34F8FBFF36F8FFEE75020CD
:1042500080F31188BFF34F8FBFF36F8F4FF0FF30A4
:1042600028630120E8616C6107B0BDE8304000F0D0
:1042700093B807B030BD000049444C450000000031
:10428000C93700083C00002070B50446FFF73EFE29
:10429000214D04B92C68201DFFF7DDFDA06A18B17F
:1042A00004F11800FFF7D7FD211D1C48FFF722FE7F
:1042B00094F858000026012801D184F85860FFF7CF
:1042C00045FEE86928B1FFF721FEFFF73FFCFFF745
:1042D0003DFE2868844213D1E86990B1A86B38B1DB
:1042E000502080F31188BFF34F8FBFF36F8FFEE72D
:1042F0000B494FF080500860BFF34F8FBFF36F8FB3
:1043000070BD064800682969884201D12E6070BDE1
:10431000BDE8704000F00EB83C00002038070020D7
:1043200004ED00E00248816B491C81637047000086
:104330003C000020164810B5816B11B1012141628B
:1043400010BD002141628169124A01E0B9B1491EE4
:1043500001EB810352F82330002BF7D001EB8103EE
:1043600002EB830202F1080453685B685360A342C6
:1043700001D15B685360DA680260816110BD502032
:1043800080F31188BFF34F8FBFF36F8FFEE70000FC
:104390003C000020880200201CB5264908780190C6
:1043A000FF20087008788DF800009DF800009DF847
:1043B000002000F0F000904207D0502080F31188D8
:1043C000BFF34F8FBFF36F8FFEE79DF800001A4BCE
:1043D00000F0500018700720986005E09DF800205C
:1043E00052008DF80020401E9DF800201206F5D4E2
:1043F0009860032807D0502080F31188BFF34F8FB7
:10440000BFF36F8FFEE74FF440709860019808701B
:104410000A48016841F470010160016841F070418F
:104420000160FFF7D5FD00205860FBF7DFFE00209C
:104430001CBD000000E400E0A800002020ED00E02A
:10444000F8B517460E46050014D0DEB105FB06F0A0
:104450005030FFF74BFC04000AD0002084F84600DF
:1044600004F150023B46314628460094FFF7DCF940
:104470002046F8BD502080F31188BFF34F8FBFF363
:104480006F8FFEE70020E3E738B5049D18B153B104
:10449000CAB181B120E0502080F31188BFF34F8F63
:1044A000BFF36F8FFEE7502080F31188BFF34F8F6B
:1044B000BFF36F8FFEE7502080F31188BFF34F8F5B
:1044C000BFF36F8FFEE739B1502080F31188BFF33F
:1044D0004F8FBFF36F8FFEE750241C46012384F8F3
:1044E00046302B460094FFF79FF9204638BD000068
:1044F00070B50D46040025D0FFF708FDD4E90F2064
:10450000216802FB001161600021A1632168A160A4
:104510000A46D4E90F01401E00FB0121E16021465B
:104520004FF0FF3001F8440F487004F110008DB1D6
:10453000FFF7BAFC04F12400FFF7B6FCFFF706FD15
:10454000012070BD502080F31188BFF34F8FBFF35F
:104550006F8FFEE721690029F0D000F001FB0028F1
:10456000ECD004494FF080500860BFF34F8FBFF389
:104570006F8FE3E704ED00E02DE9FF4782B01D46B1
:104580008A464FF00008040003D0BAF1000F08D0AB
:1045900011E0502080F31188BFF34F8FBFF36F8F6E
:1045A000FEE7206C38B1502080F31188BFF34F8FA5
:1045B000BFF36F8FFEE7022D0AD1E06B012807D011
:1045C000502080F31188BFF34F8FBFF36F8FFEE74A
:1045D00000F00EFA3F4F4FF000094FF0805648B9F7
:1045E000049838B1502080F31188BFF34F8FBFF388
:1045F0006F8FFEE7FFF78AFCA06BE16B884207D361
:10460000022D05D00498D0B1B8F1000F1AD01EE0E9
:104610002A4651462046FFF760F8616A19B104F155
:10462000240000F09DFA20B13E60BFF34F8FBFF32E
:104630006F8FFFF78BFC012006B0BDE8F087FFF716
:1046400085FC22E06846FFF75BFD4FF00108FFF7AD
:104650007DFCFFF767FEFFF759FC94F94400401C0E
:1046600001D184F8449094F94500401C01D184F8AC
:104670004590FFF76BFC04A9684600F027F930B1BC
:104680002046FFF7FDFA00F0A3FA0020D4E7FFF779
:104690003DFCA06BE16B884213D1FFF757FC04F19E
:1046A00010000499FFF73AFD2046FFF7E9FA00F001
:1046B0008FFA00289ED13E60BFF34F8FBFF36F8FFC
:1046C00098E7FFF743FC2046FFF7DAFA00F080FA9C
:1046D00090E7000004ED00E02DE9F0471F4690460A
:1046E0008946040003D0B9F1000F08D011E0502032
:1046F00080F31188BFF34F8FBFF36F8FFEE7206CFD
:1047000038B1502080F31188BFF34F8FBFF36F8F04
:10471000FEE7022F0AD1E06B012807D0502080F37A
:104720001188BFF34F8FBFF36F8FFEE7FFF762FC77
:104730005020EFF3118680F31188BFF34F8FBFF342
:104740006F8FA06BE16B884206D3022F04D000204C
:1047500086F31188BDE8F08794F945503A464946FA
:104760002046FEF7BAFF681C04D06D1C84F8455043
:104770000120EDE7606A0028FAD004F1240000F07F
:10478000EFF90028F4D0B8F1000FF1D00121C8F8FA
:104790000010EDE72DE9F747002683B08A460400B4
:1047A00003D0BAF1000F08D011E0502080F3118837
:1047B000BFF34F8FBFF36F8FFEE7206C38B15020EF
:1047C00080F31188BFF34F8FBFF36F8FFEE700F0C8
:1047D0000FF9DFF8F4804FF000094FF0805748B927
:1047E000059838B1502080F31188BFF34F8FBFF385
:1047F0006F8FFEE7FFF78AFBA56BC5B151462046D8
:10480000FEF758FF6D1EA563206950B104F110003A
:1048100000F0A6F928B1C8F80070BFF34F8FBFF3BE
:104820006F8FFFF793FB012006B0BDE8F087059876
:1048300008B11EB106E0FFF789FB27E06846FFF7E5
:104840005FFC0126FFF782FBFFF76CFDFFF75EFBC5
:1048500094F94400401C01D184F8449094F9450037
:10486000401C01D184F84590FFF770FB05A968460C
:1048700000F02CF8002820460AD0FFF701FA00F0DB
:10488000A7F92046FFF794F80028B3D00020CBE723
:10489000FFF78EF890B104F124000599FFF73EFC74
:1048A0002046FFF7EDF900F093F90028A2D1C8F8EF
:1048B0000070BFF34F8FBFF36F8F9BE72046FFF76A
:1048C000DFF900F085F995E704ED00E02DE9F0410E
:1048D0000C46050011D0C4B1FFF718FB174B5A69FD
:1048E0006E682068911B471C17D02F689B6A9F42F7
:1048F00019D0964217D8012410E0502080F3118877
:10490000BFF34F8FBFF36F8FFEE7502080F3118806
:10491000BFF34F8FBFF36F8FFEE70024FFF716FB47
:104920002046BDE8F081884205D9401A206028461B
:10493000FFF7E6FBF1E700202060DCE73C00002009
:104940002DE9FF5F8346DDE90E87994616468A46C4
:104950009000FFF7CBF905001CD05C20FFF7C6F9EB
:10496000040014D00020256384F85900CDE90240EA
:10497000CDE900874B46324651465846FEF765FF63
:104980002046FEF703FE012004B0BDE8F09F284654
:10499000FFF7F0FA4FF0FF30F6E7F0B585B0DDE94C
:1049A0000B640A9DA6B1DCB15C2700972663022642
:1049B00084F85960002604AFCDE90246CDE90057DE
:1049C000FEF743FF2046FEF7E1FD049805B0F0BD79
:1049D000502080F31188BFF34F8FBFF36F8FFEE736
:1049E000502080F31188BFF34F8FBFF36F8FFEE726
:1049F0000548C16919B1806B18B1002070470120CA
:104A000070470220704700003C00002001484069C8
:104A1000704700003C0000202DE9F0412E4C00279B
:104A2000A06B40B1206A401C2062606A00B101277F
:104A30003846BDE8F0816669761C666113D160680E
:104A4000006838B1502080F31188BFF34F8FBFF357
:104A50006F8FFEE76068A1686160A060A06A401C7B
:104A6000A062FFF773F8206BDFF87080864209D3ED
:104A70006068006880B16068C068C5686868864220
:104A80000DD220632068C06A00EB800158F8210035
:104A90000128CAD90127C8E74FF0FF30F1E7281DE8
:104AA000FFF7D9F9A86A18B105F11800FFF7D3F993
:104AB000E86AA169884200D9A06100EB800108EB97
:104AC0008100291DFFF716FAE86A2168C96A884241
:104AD000CED30127CCE700003C0000208802002054
:104AE00070B504004FF0000133D01B4D286884429C
:104AF00007D0502080F31188BFF34F8FBFF36F8F23
:104B0000FEE7206D38B1401E2065E36CE26A9A42F0
:104B10001FD040B11DE0502080F31188BFF34F8FAC
:104B2000BFF36F8FFEE7201DFFF795F9E06CE062A1
:104B3000C0F13800A061E06AA969884200D9A86183
:104B4000064900EB800001EB8000211DFFF7D2F940
:104B50000121084670BD00003C00002088020020B2
:104B600070B5C068C46854B104F118000646FFF778
:104B700072F9144DA86B50B13146134815E050201E
:104B800080F31188BFF34F8FBFF36F8FFEE7201DB7
:104B9000FFF761F9E06AA969884200D9A8610B4969
:104BA00000EB800001EB8000211DFFF7A3F9E06A14
:104BB0002968C96A884202D90120686270BD002054
:104BC00070BD00003C00002010070020880200207B
:104BD0002DE9F0472C4D00242746A86B38B1FFF78C
:104BE00095F9A86B401EA863A86B40B146E0502021
:104BF00080F31188BFF34F8FBFF36F8FFEE72969F2
:104C0000224E0120D1B3A6F5916980463068E0B10B
:104C1000F068C46804F11800FFF71DF9201DFFF7C4
:104C20001AF9E06AA969884200D9A86100EB8001FD
:104C300009EB8100211DFFF75DF9E06A2968C96A67
:104C40008842E3D3C5F82480E0E70CB1FEF77EFF8D
:104C50002C6A4CB14FEA0806FFF7DEFE00B16E6227
:104C6000641EF9D100202862686A38B1084901271A
:104C700038070860BFF34F8FBFF36F8FFFF766F9F8
:104C80003846BDE8F08700003C00002010070020F7
:104C900004ED00E02DE9FC4781461E461746884694
:104CA00030200A9DFFF722F804000AD0CDE9005415
:104CB00033463A4641464846FEF715FE002084F842
:104CC0002C002046BDE8FC8710B586B0FEF7C6FC78
:104CD000114CA068B8B100200390049005AA04A963
:104CE00003A8FFF7D5F8DDE9032122208DE80700AE
:104CF00000230AA10B48059AFFF74FFEE06010B1B0
:104D000006B0012010BD502080F31188BFF34F8FF3
:104D1000BFF36F8FFEE7000078000020546D722013
:104D2000537663005D3C00082DE9FF411E461346A3
:104D300002000A9D4FF0000016D0144CA768002F07
:104D40000FD0CDE900130292062917DAFFF750FEC3
:104D500002284FF000030FD000226946A068FFF739
:104D60000BFC04B0BDE8F081502080F31188BFF344
:104D70004F8FBFF36F8FFEE72A46EEE700233246E0
:104D800069463846FFF7A8FCEBE7000078000020F2
:104D9000010202030405060708090A0B0C0D0E0F99
:104DA00010100000000000000000010203040607CC
:104DB0000809000000000102030400001457000865
:104DC00000000000000000000000000000000000E3
:104DD00000020000180000000000000000000000B9
:104DE0000000000000000000002F0000000007008D
:104DF000070000147F147F1400242A7F2A12006207
:104E000064081323003649552250000005030000B2
:104E100000001C224100000041221C000014083E3A
:104E200008140008083E0808000000A06000000800
:104E30000808080800006060000000201008040254
:104E4000003E5149453E0000427F40000042615112
:104E50004946002141454B31001814127F100027AC
:104E600045454539003C4A4949300001710905036F
:104E700000364949493600064949291E00003636A0
:104E80000000000056360000000814224100001403
:104E900014141414000041221408000201510906E0
:104EA00000324959513E007C1211127C007F494961
:104EB0004936003E41414122007F4141221C007F92
:104EC00049494941007F09090901003E4149497AA0
:104ED000007F0808087F0000417F4100002040411A
:104EE0003F01007F08142241007F40404040007F86
:104EF000020C027F007F0408107F003E4141413ECA
:104F0000007F09090906003E4151215E007F091911
:104F100029460046494949310001017F0101003F0E
:104F20004040403F001F2040201F003F4038403F8E
:104F300000631408146300070870080700615149F2
:104F4000454300007F41410000552A552A55000085
:104F500041417F0000040201020400404040404003
:104F6000000001020400002054545478007F48449B
:104F7000443800384444442000384444487F0038D2
:104F80005454541800087E0901020018A4A4A47CFB
:104F9000007F080404780000447D400000408084C5
:104FA0007D00007F102844000000417F4000007C0D
:104FB00004180478007C0804047800384444443819
:104FC00000FC242424180018242418FC007C080465
:104FD000040800485454542000043F444020003C3E
:104FE0004040207C001C2040201C003C4030403CC5
:104FF000004428102844001CA0A0A07C0044645455
:105000004C44141414141414000000000000000098
:105010000000000000000000000000F80000000098
:10502000000000333000000000100C06100C0600D9
:10503000000000000000000040C07840C078400040
:10504000043F04043F040400007088FC08300000A2
:10505000001820FF211E0000F008F000E0180000FA
:1050600000211C031E211E0000F0088870000000B3
:105070001E2123241927211010160E000000000005
:105080000000000000000000000000E01804020022
:10509000000000071820400000020418E000000093
:1050A0000040201807000000404080F08040400091
:1050B0000202010F01020200000000F000000000E7
:1050C0000101011F010101000000000000000000BB
:1050D00080B0700000000000000000000000000030
:1050E00000010101010101010000000000000000B9
:1050F0000030300000000000000000008060180454
:10510000006018060100000000E010080810E00030
:10511000000F102020100F00001010F800000000F9
:105120000020203F20200000007008080888700040
:1051300000302824222130000030088888483000C0
:105140000018202020110E000000C02010F80000E0
:1051500000070424243F240000F808888808080079
:105160000019212020110E0000E01088881800008E
:10517000000F112020110E0000380808C838080060
:105180000000003F000000000070880808887000E0
:10519000001C222121221C0000E010080810E00061
:1051A0000000312222110F00000000C0C0000000EA
:1051B000000000303000000000000080000000000F
:1051C0000000806000000000000080402010080007
:1051D00000010204081020004040404040404000D0
:1051E00004040404040404000008102040800000AB
:1051F0000020100804020100007048080808F000B0
:105200000000003036010000C030C828E810E0007F
:105210000718272423140B000000C038E00000000A
:10522000203C23020227382008F888888870000074
:10523000203F202020110E00C03008080808380048
:10524000071820202010080008F808080810E000BF
:10525000203F202020100F0008F88888E808100060
:10526000203F20202320180008F88888E808100034
:10527000203F200003000000C0300808083800006C
:1052800007182020221E020008F808000008F8086D
:10529000203F210101213F20000808F808080000F4
:1052A0000020203F2020000000000808F808080027
:1052B000C08080807F00000008F888C0281808009F
:1052C000203F20012638200008F8080000000000D8
:1052D000203F20202020300008F8F800F8F80800CF
:1052E000203F003F003F200008F830C00008F808C9
:1052F000203F200007183F00E01008080810E000D9
:105300000F10202020100F0008F808080808F000EF
:10531000203F210101010000E01008080810E00012
:105320000F18242438504F0008F8888888887000A7
:10533000203F2000030C3020007088080808380047
:105340000038202121221C00180808F8080818003D
:105350000000203F2000000008F808000008F808BE
:10536000001F202020201F000878880000C838086F
:10537000000007380E010000F80800F80008F800E7
:10538000033C0700073C0300081868808068180881
:1053900020302C03032C30200838C800C8380800FF
:1053A0000000203F2000000010080808C83808004E
:1053B0002038262120201800000000FE02020200F2
:1053C0000000007F40404000000C30C000000000A2
:1053D000000000010638C00000020202FE000000CA
:1053E000004040407F000000000004020202040070
:1053F00000000000000000000000000000000000AD
:105400008080808080808080000202040000000094
:10541000000000000000000000008080808000008C
:105420000019242222223F2008F80080800000007A
:10543000003F112020110E0000000080808000003D
:10544000000E112020201100000000808088F8004C
:10545000000E112020103F2000008080808000007E
:10546000001F222222221300008080F088888818E2
:105470000020203F202000000000808080808000ED
:10548000006B94949493600008F800808080000082
:10549000203F210000203F2000809898000000005D
:1054A0000020203F2020000000000080989800008D
:1054B00000C08080807F000008F8000080808000AD
:1054C000203F24022D302000000808F800000000D2
:1054D0000020203F2020000080808080808080008D
:1054E000203F20003F20003F80800080808000001F
:1054F000203F210000203F200000808080800000AD
:10550000001F202020201F008080008080000000DD
:1055100080FFA12020110E0000000080808080000C
:10552000000E112020A0FF808080800080808000FD
:1055300020203F212000010000008080808080002A
:105540000033242424241900008080E0808000009F
:105550000000001F202000008080000000808000EC
:10556000001F202020103F2080808000008080804D
:1055700000010E30080601008080008000808080DD
:105580000F300C030C300F00008080008080800002
:105590000020312E0E31200080808000008080802D
:1055A00080818E70180601000080808080808000DD
:1055B0000021302C2221300000000000807C0202FB
:1055C00000000000003F40400002027C800000001C
:1055D0000040403F0000000000000000FF0000000D
:1055E00000000000FF000000636C6564657200004D
:1055F0000000746F726368000000000068756D0041
:10560000000000000000636C6F636B00000000008E
:105610006D6F726500000000000000003000003176
:105620000000320000330000340000350000360076
:1056300000370000380000390000313000313100FF
:105640003132003133003134003135003136003130
:105650003700313800313900323000323100323217
:105660000032330032340032350032360032370037
:105670003238003239003330003331005375004D79
:105680006F005475005765005468004672005361FE
:10569000000000000000110022003300440055000B
:1056A0006600000011001A0023002C0035003E00A7
:1056B00000000B00160021002C00370042004D00B6
:1056C000580063006E0079003C3C3C000000000084
:1056D00000007265636F726400000000536F756EA6
:1056E000640000000000506F776572000000000049
:1056F00041626F757400000000000000140000009B
:105700001E00000028000000320000003C000000E5
:105710004600000064656661756C745461736B00CB
:105720004057000800000020640100002801000824
:1057300098570008640100201C3400008401000810
:1057400032018210039D24F41AAA014113B80142C8
:105750002017AED580A83FD3901140A1C8DA12819E
:10576000CFD9F1DB40A4A68D14AF5A020429E4017D
:1057700018291CB237320B321732243231323E3202
:105780000D321B9A292C2914321932267233321801
:08579000322C9A2504291400B3
:04000005080000ED02
:00000001FF
