:020000040800F2
:10000000B834002099010008C52B0008EB1F000838
:10001000C12B000837060008793A000800000000EC
:1000200000000000000000000000000001010008C6
:10003000A506000800000000450100088D360008F4
:10004000B3010008B3010008B3010008B3010008C0
:10005000B3010008B3010008A7060008C5060008A0
:10006000B3010008B3010008B3010008B3010008A0
:10007000B3010008B3010008B3010008B301000890
:10008000B3010008B3010008B3010008B301000880
:10009000B3010008B3010008B3010008B301000870
:1000A00035370008B3010008B3010008B3010008A8
:1000B000B3010008B301000845370008B301000888
:1000C000B3010008B3010008B3010008B301000840
:1000D000B3010008B3010008B3010008B301000830
:1000E000B1060008B3010008B3010008DFF80CD026
:1000F00000F064FA0048004729530008B834002093
:10010000224B19680868B0E8F00F80F30988BFF344
:100110006F8F4FF0000080F311884EF00D0E704786
:100120000000000006480068006880F3088862B696
:1001300061B6BFF34F8FBFF36F8F00DF00BF00BF0B
:1001400008ED00E0EFF30980BFF36F8F0F4B1A68E3
:1001500020E9F00F106008B54FF0500080F31188CF
:10016000BFF34F8FBFF36F8F07F02CFC4FF00000F1
:1001700080F31188BDE8084019680868B0E8F00FFE
:1001800080F30988BFF36F8F704700BF54000020D1
:10019000EFF3058070470000064880470648004797
:1001A000FEE7FEE7FEE7FEE7FEE7FEE7FEE7FEE727
:1001B000FEE7FEE727370008ED0000082DE9F05FB5
:1001C0000546002092469B468846064681464024C6
:1001D0001BE0284641464746224600F051F8534668
:1001E0005A46C01A914110D311461846224600F0D3
:1001F0009FF92D1A67EB01084F4622460120002186
:1002000000F096F917EB00094E41201EA4F10104FD
:10021000DFDC484631462A464346BDE8F09F2DE9DB
:10022000F0410024061B254671F1000605DA012481
:100230000027D0EB070067EB0101161E73F10006E3
:1002400005DA0027D2EB0702012567EB0303FFF76E
:10025000B5FF86460E4617469C46AC4204D00025A4
:10026000D0EB050E65EB010624B10020D2EB0007B0
:1002700060EB030C704631463A466346BDE8F081B8
:10028000202A04DB203A21FA02F00021704721FAEB
:1002900002F3D040C2F12002914008431946704752
:1002A00040EA01039B0703D009E008C9121F08C0F8
:1002B000042AFAD203E011F8013B00F8013B521E78
:1002C000F9D27047D2B201E000F8012B491EFBD2EF
:1002D00070470022F6E710B513460A460446194651
:1002E000FFF7F0FF204610BD30B50446002003465E
:1002F00000E05B1C934203D2E05CCD5C401BF8D075
:1003000030BDF0B480EA0102D40F4200B2EB410FDD
:1003100002D20246084611464A0042D0C30DDDB261
:10032000C1F3C752AD1A202D35DAC1F3160141F4DD
:10033000000204B15242C5F1200602FA06F12A4138
:100340001044B3EBD05F23D0C4B1012DA0EBC35058
:1003500009DCF0BC4FF0004202EAC352DBB200F508
:10036000000000F0FDB8400000F1807000EBC350C9
:10037000A0F1807040EAD170490009E0490841EAE3
:10038000C071A0EBC35000F50000400800EBC35063
:10039000F0BC00F0DCB86142012202EB4101001B1D
:1003A000F6E7F0BC704781F00041AAE780F000401A
:1003B000A7E780EA010210B502F00043400022D016
:1003C0004A001FD0010E01EB1261C0F35600C2F3C8
:1003D000560240F4000042F40002A0FB0220000498
:1003E0007F39140400D0401C50EA124001D4400070
:1003F000491EC2B20C0604EBD010401C4008802AF3
:1004000002D003E0002010BD20F00100002900DA36
:100410000020184310BD30B480EA010202F000450C
:1004200030F0004221F0004013D090B1C30DD40D44
:10043000C2F31601C0F31600E41A41F4000140F4BF
:1004400000027D34914201D3641C00E04900002C7D
:1004500002DA30BC002070474FF4000000239142C4
:1004600001D3891A034340084FEA4101F7D151B142
:10047000914202D14FF0004105E002D24FF001015C
:1004800001E06FF0010103EBC450284430BC00F0E0
:100490005EB8C10F80EAE0700844CA0796230021C5
:1004A00000F05EB896230022114600F059B800F023
:1004B000004220F00040C10DC0F3160040F40000DF
:1004C0007F2901DA00207047962903DCC1F19601EB
:1004D000C84001E096398840002AF4D04042704775
:1004E00020F00040C10DC0F3160040F400007F2949
:1004F00001DA00207047962903DCC1F19601C8405B
:100500007047963988407047002801DBC0F10040F1
:10051000002901DBC1F1004181427047002801DB65
:10052000C0F10040002901DBC1F100418842704761
:10053000202A04DB203A00FA02F1002070479140A3
:10054000C2F1200320FA03F31943904070470029B9
:10055000A8BF7047401C490008BF20F00100704749
:1005600010B4B0FA80FC00FA0CF050EA010404BFA9
:1005700010BC704749B1CCF1200421FA04F411FAFF
:100580000CF118BF012121430843A3EB0C01CB1D43
:100590004FEA00614FEA102042BF002010BC7047B4
:1005A00000EBC35010440029A4BF10BC7047401C8E
:1005B000490008BF20F0010010BC7047064C074DF1
:1005C00006E0E06840F0010394E807009847103423
:1005D000AC42F6D3FFF78EFDC49D0008E49D0008F1
:1005E00070B58C1810F8015B15F0070301D110F8F5
:1005F000013B2A1106D110F8012B03E010F8016B22
:1006000001F8016B5B1EF9D12B0705D40023521EA4
:100610000DD401F8013BFAE710F8013BCB1A921C0C
:1006200003E013F8015B01F8015B521EF9D5A1420A
:10063000D8D3002070BD00BFFEE70000174909882D
:10064000491C164A118011460988092924DD002118
:1006500011801349C988491C114AD1801146C988A3
:10066000092919DD11468988491C91800021D18012
:100670001146898805290FDD11464988491C51809A
:100680000021918011464988092905DD1146098814
:10069000491C11800021518070470000E4010020B6
:1006A00010020020704710B5012000F0C1F810BD05
:1006B00010B54FF4806000F0BBF84FF4006000F01C
:1006C000B7F810BD10B5022000F0B2F810BD72B638
:1006D00000BFFEE770B5044600F056FA0646254610
:1006E000681C10B104480078054400BF00F04CFAC3
:1006F000801BA842FAD370BD080000202DE9F84302
:100700000446B4F5006F1DD1002000E0401C41F20A
:1007100088318842FADB42480068012812D14148FA
:10072000006878B901268DF8006000231A466946F2
:100730003D48006807F0C8FB002271033B4800F009
:100740001DFA0026B4F5806F1DD1002000E0401C8A
:1007500041F288318842FADB31480068012812D121
:100760003048006878B901278DF8017000231A46D7
:1007700069462D48006807F0A7FB002279032B4843
:1007800000F0FCF90027022C20D1002000E0401CE2
:1007900041F288318842FADB21480068012815D1EE
:1007A0002048006890B94FF001088DF802800023BE
:1007B0001A4669461C48006807F086FB00224FF481
:1007C00000511A4800F0DAF94FF00008012C25D149
:1007D000002000E0401C41F288318842FADB1048DA
:1007E000006801281AD10F480068B8B901258DF8B2
:1007F00003500B480068012809D10A48006830B945
:1008000000231A4669460848006807F05DFB00228D
:100810004FF40051054800F0B1F90025BDE8F88318
:10082000DC010020E0010020440000200010014015
:1008300010B5044604480068204020B10248046016
:100840002046FFF75BFF10BD140401402DE9F84777
:100850000346002294466EE14FF0010808FA02F4C4
:10086000D1F8008008EA0400A0427DD1DFF8DCA2C4
:10087000D1F80480A8EB0A09D0453AD014DCB8F1CD
:10088000030F50D009DCB8F1000F31D0B8F1010FDF
:100890001CD0B8F1020F49D120E0B8F1110F18D0E7
:1008A000B8F1120F42D11EE0B9F5881F25D006DC41
:1008B000B9F5803F20D0B9F5801F37D11AE0B9F5DE
:1008C000001F18D0B9F5041F30D117E0D1F80CC0C3
:1008D0002DE0D1F80C8008F1040C28E0D1F80C8050
:1008E00008F1080C23E0D1F80C8008F10C0C1EE094
:1008F00000BF00BF00BF00BF00BF00BFD1F808802D
:10090000B8F1000F02D14FF0040C0BE0D1F80880D1
:10091000B8F1010F03D14FF0080C1C6102E04FF059
:10092000080C5C6103E04FF0000C00E000BF00BF6A
:10093000FF2801D8984601E003F104084646FF2845
:1009400002D84FEA820803E0A2F108084FEA8808BB
:100950004746D6F800804FF00F0909FA07F928EA50
:1009600009080CFA07F900E088E048EA0908C6F827
:100970000080D1F8048008F08058B8F1805F7DD104
:1009800000BFDFF8CC81D8F8188048F00108DFF804
:10099000C091C9F81880C846D8F8188008F0010836
:1009A000CDF8008000BF00BF4FEAB9384FEA920986
:1009B00058F829504FEA82784FEA18794FF00F081B
:1009C00008FA09F825EA0805DFF88881434502D1CD
:1009D0004FF0000816E0DFF88081434502D14FF068
:1009E00001080FE0DFF87481434502D14FF002089F
:1009F00008E0DFF86C81434502D14FF0030801E0C5
:100A00004FF004084FEA82794FEA197908FA09F899
:100A100048EA0505DFF84C814FEA920948F8295069
:100A2000D1F8048008F48018B8F5801F0AD1DFF8E7
:100A30003881D8F8008048EA0008DFF82C91C9F81E
:100A4000008009E0DFF82081D8F8008028EA00085B
:100A5000DFF81491C9F80080D1F8048008F4001878
:100A6000B8F5001F10D1DFF8008108F10408D8F8AC
:100A7000008048EA0008DFF8F09000E05AE009F151
:100A80000409C9F800800DE0DFF8DC8008F10408F3
:100A9000D8F8008028EA0008DFF8CC9009F10409B2
:100AA000C9F80080D1F8048008F40038B8F5003F98
:100AB0000ED1DFF8B480A8F10408D8F8008048EA25
:100AC0000008DFF8A490A9F10409C9F800800DE03E
:100AD000DFF89480A8F10408D8F8008028EA00081C
:100AE000DFF88490A9F10409C9F80080D1F80480E6
:100AF00008F48038B8F5803F0ED1DFF86C80A8F19B
:100B00000808D8F8008048EA0008DFF85C90A9F1EE
:100B10000809C9F800800DE0DFF84C80A8F108084A
:100B2000D8F8008028EA0008DFF83C90A9F108090D
:100B3000C9F80080521CD1F8008028FA02F8B8F1F8
:100B4000000F7FF489AEBDE8F887000000001110A7
:100B50000010024000080140000C0140001001405C
:100B60000014014008000140080401400246936857
:100B70000B400BB1012000E0002070470AB1016179
:100B800001E00B04036170470148006870470000F2
:100B90000000002070B504460CB9012070BD94F827
:100BA0003D0028B9002084F83C00204600F08CF974
:100BB000242084F83D002068006820F001002168AE
:100BC00008602068006840F40040216808602068E0
:100BD000006820F400402168086000F0CBFB054667
:100BE0005C496068884206D85B48854201D2012092
:100BF00007E0002005E05948854201D2012000E0CD
:100C00000020012800D1C9E75548B5FBF0F620685F
:100C1000406820F03F003043216848604D496068DB
:100C2000884201D8701C07E04FF4967070434FF46F
:100C30007A71B0FBF1F0401C2168096A21F03F0194
:100C400008432168086243496068884214D8681ED6
:100C500061684900B0FBF1F0401CC0F30B000428B0
:100C600001D204203DE0681E61684900B0FBF1F04C
:100C7000401CC0F30B0034E0A06838B9681E6168FE
:100C800001EB4101B0FBF1F0401C0AE0681E616815
:100C900001EBC10202EB0111B0FBF1F0401C40F48A
:100CA0008040C0F30B0008B901201AE0A06848B9E1
:100CB000681E616801EB4101B0FBF1F0401CC0F31C
:100CC0000B000CE0681E616801EBC10202EB011130
:100CD000B0FBF1F0401CC0F30B0040F4804040F446
:100CE00000402168C9694CF6FF72914308432168AE
:100CF000C861D4E9070108432168096821F0C001EF
:100D0000084321680860D4E9031008432168896812
:100D100048F2FF329143084321688860D4E9050115
:100D200008432168C96821F0FF0108432168C860B1
:100D30002068006840F001002168086000202064FD
:100D4000202084F83D000020206384F83E0000BF8E
:100D500024E70000A086010080841E0000093D00F9
:100D600040420F002DE9FC5F04460F46904699462D
:100D7000DDE90CAB0E9EFFF707FF054694F83D003A
:100D800020287DD1192301224D492046009501F0EC
:100D9000F0F910B10220BDE8FC9F00BF94F83C00C0
:100DA000012801D10220F6E7012084F83C0000BFB1
:100DB0002068006800F0010028B92068006840F051
:100DC0000100216808602068006820F40060216844
:100DD0000860212084F83D00402084F83E00002077
:100DE0002064C4F824A0A4F82AB0608D208535487A
:100DF000E0624B46424639462046CDE9006501F0A7
:100E000015F908B10120C6E731E02A4631462046EF
:100E100001F08BFA50B1206C042805D120680068DD
:100E200040F40070216808600120B4E7606A00782F
:100E300021680861606A401C6062208D401E208528
:100E4000608D401E608520684069C0F3800070B1ED
:100E5000208D60B1606A007821680861606A401C7A
:100E60006062208D401E2085608D401E6085208D33
:100E70000028CAD12A463146204601F047F900E051
:100E80001CE050B1206C042805D12068006840F4B3
:100E900000702168086001207DE72068006840F448
:100EA000007021680860202084F83D00002084F84C
:100EB0003E0000BF84F83C0000BF6CE702206AE7F8
:100EC000020010000000FFFF10B586B004460020AD
:100ED000029003900490059015492068884225D11E
:100EE00000BF1448806940F0080012498861084634
:100EF000806900F00800019000BF00BFC020029090
:100F0000122003900320059002A90B48FFF79EFCD6
:100F100000BF0848C06940F400100649C86108468F
:100F2000C06900F40010019000BF00BF06B010BD02
:100F30000054004000100240000C014003480068CB
:100F400003490978084401490860704700000020FF
:100F50000800002010B50848006840F0100006495D
:100F60000860032000F004F90F2000F007F800F0FB
:100F70005FF8002010BD0000002002402DE9F04184
:100F800088B004460027B846002600BF2348C06941
:100F900040F004002149C8610846C06900F004001F
:100FA000019000BF00BF02A903A800F0BBF9069F93
:100FB0001FB900F0DFF9054602E000F0DBF945005B
:100FC0001748B5FBF0F0A0F1010816481649086073
:100FD00040F2E7311448C160C0F80480002101618B
:100FE0008160816100F0C0FC064696B90E4800F0B1
:100FF00025FD06466EB91E2000F06CF8102C07D2B5
:10100000002221461E2000F075F80848046000E028
:101010000126304608B0BDE8F08100000010024013
:1010200040420F0000080040480300200400002058
:1010300008B500BF1448806940F00100124988617A
:101040000846806900F00100009000BF00BF00BFAB
:101050000846C06940F08050C8610846C06900F089
:101060008050009000BF00BF00220F21901E00F0B2
:1010700041F800BF0549486820F0E06040F000708A
:10108000486000BF08BD00000010024000000140A1
:1010900010B501460846002817DB00F01F030122A7
:1010A0009A400B4B440943F8242000BF00BF00BF07
:1010B000BFF34F8F00BF00BF00BF00BF00BF00BF26
:1010C000BFF36F8F00BF00BF00BF00BF10BD0000A7
:1010D00080E100E001460846002809DB00F01F031C
:1010E00001229A4043099B0003F1E023C3F8002149
:1010F00000BF70472DE9F05F80460D461646002779
:1011000002F0CCFC074639462A46334601F0070078
:10111000C0F1070ABAF1040F02D94FF0040A01E046
:10112000C0F1070AD14600F1040ABAF1070F02D252
:101130004FF0000A01E0A0F1030AD4464FF0010A83
:101140000AFA09FAAAF1010A0AEA020A0AFA0CFAE8
:101150004FF0010B0BFA0CFBABF1010B0BEA030B8D
:101160004AEA0B042146404602F0A0FCBDE8F09F8D
:1011700000BF00F00702064B19684FF6FF03194045
:10118000044B0B4343EA0221014B196000BF704737
:101190000CED00E00000FA0570B504460D460CB9F0
:1011A000012070BD5A48006800F00700A8420ED226
:1011B0005748006820F00700284355490860084652
:1011C000006800F00700A84201D00120E9E720787C
:1011D00000F0020002281DD1207800F0040004284D
:1011E00005D14C48406840F4E0604A4948602078A6
:1011F00000F00800082805D14648406840F46050D7
:10120000444948604348406820F0F000A168084322
:1012100040494860207800F0010078B360680128F8
:1012200006D13C48006800F4003090B90120B8E7CE
:101230006068022806D13748006800F0007040B9A5
:101240000120AEE73348006800F0020008B9012031
:10125000A7E73048406820F00300616808432D4943
:101260004860FFF791FC064609E0FFF78DFC801B04
:1012700041F28831884202D9032092E707E02548ED
:10128000406800F00C006168B0EB810FEDD12048A0
:10129000006800F00700A8420ED91D48006820F041
:1012A000070028431A4908600846006800F0070054
:1012B000A84201D0012074E7207800F0040004283F
:1012C00007D11448406820F4E060E1680843114900
:1012D0004860207800F00800082808D10D484068D0
:1012E00020F46050216940EAC1000A49486000F0DA
:1012F00051F808494968C1F30311074A515CC840D5
:101300000649086006480068FFF738FE002048E7F5
:101310000020024000100240C68700080C00002098
:10132000040000200F2202600D4A526802F00302FE
:1013300042600B4A526802F0F0028260084A52682A
:1013400002F4E062C260064A526802F46052D208B7
:101350000261044A126802F007020A607047000046
:101360000010024000200240014800687047000061
:101370000C00002000B5FFF7F7FF04494968C1F3EE
:101380000221034A515CC84000BD00000010024029
:10139000D687000870B50021002200240023002019
:1013A000134D696801F00C05F5B1042D02D0082D2C
:1013B00019D101E00F4819E00F4DC1F38346AB5D31
:1013C00001F4803555B10A4D6D68C5F340450B4EAB
:1013D000725D084D5D43B5FBF2F402E0084D03FB7E
:1013E00005F4204602E000BF024800BF00BF70BD08
:1013F0000010024000127A00B4870008C487000879
:1014000000093D00F8B504460CB90120F8BD20786C
:1014100000F00100002878D0F848406800F00C0087
:1014200004280CD0F548406800F00C00082811D1C1
:10143000F248406800F48030B0F5803F0AD1EF48B0
:10144000006800F4003000285FD0606800285CD19C
:101450000120DBE700BF6068B0F5803F06D1E748B8
:10146000006840F48030E549086028E0606858B9B9
:10147000E248006820F48030E049086008460068CF
:1014800020F4802008601AE06068B0F5A02F0BD12E
:10149000DA48006840F48020D849086008460068AF
:1014A00040F4803008600AE0D448006820F48030BE
:1014B000D24908600846006820F48020086000BF18
:1014C000606888B1FFF760FB054606E0FFF75CFB4C
:1014D000401B642801D9032098E7C848006800F43D
:1014E00000300028F2D010E0FFF74EFB054606E082
:1014F000FFF74AFB401B642801D9032086E7BF4859
:10150000006800F400300028F2D1207800F00200DA
:10151000022857D1B948406800F00C0050B1B748D4
:10152000406800F00C00082818D1B448406800F466
:10153000803098B9B148006800F0020020B12069FD
:10154000012801D0012061E7AC48006820F0F800D4
:10155000616940EAC100A949086033E02069E8B147
:101560000120A7490860FFF70FFB054606E0FFF7DB
:101570000BFB401B022801D9032047E79F48006866
:1015800000F002000028F2D09C48006820F0F8002B
:10159000616940EAC1009949086013E00020984958
:1015A0000860FFF7F1FA054606E0FFF7EDFA401B89
:1015B000022801D9032029E79048006800F00200C2
:1015C0000028F2D1207800F0080008282DD1A06969
:1015D000B8B101208B490860FFF7D6FA054606E04E
:1015E000FFF7D2FA401B022801D903200EE78348F7
:1015F000406A00F002000028F2D0012001F000FD56
:1016000013E000207F490860FFF7BEFA054606E0B8
:10161000FFF7BAFA401B022801D90320F6E6774803
:10162000406A00F002000028F2D1207800F00400A7
:10163000042873D100277148C06900F0805070B948
:1016400000BF6E48C06940F080506C49C8610846D0
:10165000C06900F08050009000BF00BF01276A48B9
:10166000006800F48070B0B96748006840F480708A
:1016700065490860FFF788FA054606E0FFF784FA37
:10168000401B642801D90320C0E65F48006800F4CD
:1016900080700028F2D000BFE068012806D15748CA
:1016A000006A40F001005549086227E0E06858B937
:1016B0005248006A20F00100504908620846006A5A
:1016C00020F00400086219E0E06805280BD14B48BF
:1016D000006A40F00400494908620846006A40F088
:1016E000010008620AE04548006A20F00100434911
:1016F00008620846006A20F00400086200BFE06843
:10170000A0B1FFF741FA054609E0FFF73DFA401B9B
:1017100041F28831884202D9032077E622E0374837
:10172000006A00F002000028EFD012E0FFF72CFA68
:10173000054608E0FFF728FA401B41F2883188424D
:1017400001D9032062E62D48006A00F0020000285B
:10175000F0D1012F05D12948C06920F080502749D8
:10176000C86100BFE069C8B32448406800F00C00BD
:10177000082860D0E069022848D100202049086686
:10178000FFF702FA054606E0FFF7FEF9401B0228C4
:1017900001D903203AE61948006800F000700028DB
:1017A000F2D1206AB0F5803F07D11448406820F498
:1017B0000030A168084311494860D4E90801084392
:1017C0000E49496821F4741108430C49486001200E
:1017D0000B490866FFF7D8F9054607E03DE0FFF73B
:1017E000D3F9401B022801D903200FE60348006803
:1017F00000F000700028F2D02FE00000001002403E
:10180000000042428004424200700040002014491F
:101810000866FFF7B9F9054606E0FFF7B5F9401B82
:10182000022801D90320F1E50E48006800F000709D
:101830000028F2D111E0E069012800D1E6E509486D
:10184000466806F48031206A814204D106F47011A2
:10185000606A814201D00120D8E50020D6E5000071
:1018600000004242001002407047704730B5024607
:101870000B4600BF92F83C00012801D1022030BD88
:10188000012082F83C0000BF022082F83D00106871
:1018900044681068816824F0700418680443106874
:1018A0004460104D1068A8420BD01068B0F1804F12
:1018B00007D00D4D1068A84203D00C4D1068A84207
:1018C00005D121F080015868014310688160012032
:1018D00082F83D0000BF002082F83C0000BF00BF3E
:1018E000CDE70000002C014000040040000800404B
:1018F00010B50446022084F83D0000BF2068006A4D
:1019000041F21111084050B92068006A891008405E
:1019100028B92068006820F001002168086000BF35
:10192000204600F055F8002084F8460000BF84F8F7
:101930003E0000213F200155402001554120015526
:1019400000BF00BF002084F842004320015544201E
:1019500001554520015500BF002084F83D0000BF1F
:1019600084F83C0000BF10BD10B504460CB901203E
:1019700010BD94F83D0028B9002084F83C002046B2
:1019800000F03AF8022084F83D00211D206801F0A3
:10199000E1FE012084F8460000BF84F83E000121EA
:1019A0003F200155402001554120015500BF00BF97
:1019B000012084F842004320015544200155452070
:1019C000015500BF012084F83D000020D0E7000051
:1019D00010B5044606492068884208D10548806948
:1019E00020F40060034988611820FFF751FB10BD07
:1019F000002C01400010024038B504460D49206813
:101A0000884215D100BF0C48806940F400600A4943
:101A100088610846806900F40060009000BF00BF44
:101A2000002205211820FFF765FB1820FFF752FB65
:101A300038BD0000002C014000100240014691F822
:101A40003D00012801D001207047022081F83D00AF
:101A50000868C06840F001000B68D860124B086845
:101A600098420BD00868B0F1804F07D00F4B086840
:101A7000984203D00E4B086898420CD108688068E1
:101A800000F00702062A0CD00868006840F0010048
:101A90000B68186005E00868006840F001000B68FA
:101AA00018600020D0E70000002C01400004004036
:101AB000000800402DE9F04104460D46002700BF14
:101AC00094F83C00012802D10220BDE8F0810120F9
:101AD00084F83C0000BF022084F83D00206886683E
:101AE00026F0770626F47F4620688660286850280E
:101AF00033D00CDC202850D004DC00284BD0102838
:101B000051D149E0302849D040284CD139E06028F3
:101B10002DD0702807D0B0F5805F03D0B0F5005FFE
:101B200041D10DE041E0D5E902136A68206801F077
:101B30005CFE2068866846F077062068866034E0A0
:101B4000D5E902136A68206801F04FFE20688068BA
:101B500040F480402168886027E0EA68696820686E
:101B600001F014FF5021206801F04AFE1DE0EA68F0
:101B70006968206801F01DFF6021206801F040FEC7
:101B800013E0EA686968206801F000FF40212068DE
:101B900001F036FE09E000BF00BF00BF29682068E1
:101BA00001F02EFE01E0012700BF00BF012084F8F4
:101BB0003D0000BF002084F83C0000BF384684E7A9
:101BC000704710B5044620680069C0F34000D8B1E2
:101BD0002068C068C0F34000B0B16FF00200216817
:101BE0000861012020772068806900F0030018B1A7
:101BF0002046FFF7E5FF05E0204600F0ADF820465F
:101C000000F02DF90020207720680069C0F38000E3
:101C1000D8B12068C068C0F38000B0B16FF0040094
:101C200021680861022020772068806900F44070F4
:101C300018B12046FFF7C4FF05E0204600F08CF8FD
:101C4000204600F00CF90020207720680069C0F3DE
:101C5000C000D8B12068C068C0F3C000B0B16FF058
:101C6000080021680861042020772068C06900F01E
:101C7000030018B12046FFF7A3FF05E0204600F05F
:101C80006BF8204600F0EBF8002020772068006910
:101C9000C0F30010D8B12068C068C0F30010B0B124
:101CA0006FF0100021680861082020772068C06963
:101CB00000F4407018B12046FFF782FF05E020468F
:101CC00000F04AF8204600F0CAF80020207720688B
:101CD000006900F0010058B12068C06800F0010000
:101CE00030B16FF0010021680861204600F070F902
:101CF00020680069C0F3C01058B12068C068C0F304
:101D0000C01030B16FF08000216808612046FFF7F5
:101D1000ABFD20680069C0F3801058B12068C0682E
:101D2000C0F3801030B16FF0400021680861204698
:101D300000F05AF920680069C0F3401058B12068DB
:101D4000C068C0F3401030B16FF020002168086116
:101D50002046FFF78AFD10BD70472DE9F04104468B
:101D60000D461646002700BF94F83C00012802D11A
:101D70000220BDE8F081012084F83C0000BF36B1AC
:101D8000042E1BD0082E31D00C2E5ED145E0294602
:101D9000206801F03FFD2068806940F0080021685C
:101DA00088612068806920F00400216888612068CB
:101DB0008069296908432168886148E029462068CC
:101DC00001F058FD2068806940F400602168886156
:101DD0002068806920F480602168886120688069BB
:101DE000296940EA01202168886130E0294620689D
:101DF00001F074FD2068C06940F008002168C861E6
:101E00002068C06920F004002168C8612068C069AA
:101E1000296908432168C86119E02946206801F052
:101E200091FD2068C06940F400602168C8612068A5
:101E3000C06920F480602168C8612068C069296990
:101E400040EA01202168C86101E0012700BF00BF0E
:101E500000BF002084F83C0000BF384689E7704787
:101E600070B504460D4615B994F83E000BE0042DFC
:101E700002D13F20005D06E0082D02D14020005D28
:101E800001E04120005D012801D0012070BD1DB995
:101E9000022084F83E000EE0042D03D102213F20F1
:101EA000015508E0082D03D102214020015502E030
:101EB00002214120015501222946206801F084FCBD
:101EC00019492068884201D1012000E0002028B192
:101ED0002068406C40F40040216848641249206842
:101EE00088420BD02068B0F1804F07D00F4920689E
:101EF000884203D00E49206888420CD1206880684F
:101F000000F00706062E0CD02068006840F00100A3
:101F10002168086005E02068006840F00100216841
:101F200008600020B2E70000002C014000040040DF
:101F30000008004030B504460D46002229462068BE
:101F400001F042FC21492068884201D1012000E0D3
:101F5000002090B100BF2068006A41F211110840D2
:101F600050B92068006A8910084028B92068406C80
:101F700020F400402168486400BF00BF2068006A68
:101F800041F21111084050B92068006A89100840D8
:101F900028B92068006820F001002168086000BFAF
:101FA0001DB9012084F83E000EE0042D03D101216B
:101FB0003F20015508E0082D03D1012140200155A3
:101FC00002E0012141200155002030BD002C0140DC
:101FD00010B5044603492068884201D1FEF7AEFFE0
:101FE00010BD000000080040704700BFFEE701463A
:101FF00008684069C0F38020B0B16FF480600A685F
:10200000506100200863202081F83D00002081F805
:102010003E00086C40F00400086400BF002081F816
:102020003C0000BF012070470020FCE72DE9F84389
:102030000446884615469946DDE908672068006829
:1020400040F4807021680860334600224FF001118F
:102050002046009700F08DF860B12068006800F419
:102060008070B0F5807F02D14FF4007020640320AF
:10207000BDE8F88308F0FE00216808613B4632465F
:102080002149204600F0D4F808B10120F0E700BF54
:1020900000200090206840690090206880690090CE
:1020A00000BF00BF3A463146204600F03EF950B12D
:1020B000206C042805D12068006840F40070216875
:1020C00008600120D4E7B9F1010F03D1E8B221681B
:1020D000086117E0C5F30720216808613A463146D8
:1020E000204600F022F950B1206C042805D1206868
:1020F000006840F40070216808600120B8E7E8B289
:10210000216808610020B3E70200010070B50446B1
:102110000D46164625E02046FFF769FF08B101206D
:1021200070BD681CE8B1FEF72FFD801BA84200D8E7
:10213000BDB920684069C0F3800090B900202063D9
:10214000202084F83D00002084F83E00206C40F000
:102150002000206400BF002084F83C0000BF012064
:10216000DEE720684069C0F380000028D3D000205B
:10217000D6E72DE9F04104460D4617461E46DDF828
:10218000188038E0701CA8B3FEF7FEFCA0EB080036
:10219000B04200D876BBC5F3074001280AD12068B9
:1021A0004069A9B20840A9B2884201D101200BE0E0
:1021B000002009E020688069A9B20840A9B28842DD
:1021C00001D1012000E00020B84214D1002020639A
:1021D000202084F83D00002084F83E00206C40F070
:1021E0002000206400BF002084F83C0000BF0120D4
:1021F000BDE8F081FFE7C5F3074001280AD1206858
:102200004069A9B20840A9B2884201D101200BE07F
:10221000002009E020688069A9B20840A9B288427C
:1022200001D1012000E00020B842ABD00020DFE760
:102230002DE9F04104460D4616461F4658E0206839
:102240004069C0F38020E8B12068006840F4007065
:10225000216808606FF48060216848610020206375
:10226000202084F83D00002084F83E00206C40F0DF
:102270000400206400BF002084F83C0000BF01205F
:10228000BDE8F081701C90B3FEF77EFCC01BB0422D
:1022900000D866BBC5F3074001280AD12068406911
:1022A000A9B20840A9B2884201D101200BE0002068
:1022B00009E020688069A9B20840A9B2884201D12A
:1022C000012000E0002090B900202063202084F845
:1022D0003D00002084F83E00206C40F02000206487
:1022E00000BF002084F83C0000BF0120C8E7FFE7E2
:1022F000C5F3074001280AD120684069A9B2084007
:10230000A9B2884201D101200BE0002009E0206839
:102310008069A9B20840A9B2884201D1012000E039
:10232000002000288BD00020AAE770B504460D4697
:10233000164625E02046FFF75AFE08B1012070BD81
:10234000681CE8B1FEF720FC801BA84200D8BDB98C
:1023500020684069C0F3C01090B90020206320209D
:1023600084F83D00002084F83E00206C40F02000FE
:10237000206400BF002084F83C0000BF0120DEE79D
:1023800020684069C0F3C0100028D3D00020D6E7F1
:102390002DE9FC4104460D4616466B4606223B21BC
:1023A000682000F0A7F90746BFB99DF801009DF825
:1023B000001040EA012000B220809DF803009DF843
:1023C000021040EA012000B228809DF805009DF827
:1023D000041040EA012000B230803846BDE8FC819C
:1023E00010B500224FF480710E48FEF7C7FB00F0D5
:1023F000D1F900224FF400710A48FEF7BFFB02201A
:1024000004F0B0FF012211020648FEF7B7FB0220DC
:1024100004F0A8FF00224FF480710248FEF7AEFBE3
:1024200010BD0000000C01401FB50020009001907D
:10243000029003904FF44070009001200190002022
:1024400002900320039069460448FEF7FFF9012239
:102450004FF440710148FEF791FB1FBD000C014095
:1024600010B500224FF480710D48FEF787FB00F095
:1024700091F9012251020A48FEF780FB022004F084
:1024800071FF012211020648FEF778FB022004F0DA
:1024900069FF00224FF480710148FEF76FFB10BD09
:1024A000000C014070B50546002400F05DF90026DF
:1024B0001CE000224FF480711148FEF75FFB022000
:1024C00004F050FF012211020D48FEF757FB600691
:1024D000040E4FF400710A48FEF748FB08B1601C77
:1024E000C4B2022004F03EFF701CC6B2082EE0DB2E
:1024F00015B9FFF7B5FF01E0FFF772FF204670BD89
:10250000000C014070B5044600F044F900224FF47D
:1025100080711148FEF732FB00251AE0E2094FF402
:1025200000710D48FEF72AFB6006040E012211021D
:102530000948FEF723FB022004F014FF00224FF4A9
:1025400080710548FEF71AFB022004F00BFF681C9F
:10255000C5B2082DE2DB70BD000C014010B500F0E3
:1025600019F9012251020D48FEF708FB0122110260
:102570000A48FEF703FB022004F0F4FE00224FF4A9
:1025800000710648FEF7FAFA022004F0EBFE002282
:102590004FF480710148FEF7F1FA10BD000C0140C4
:1025A00010B500F0F7F800224FF480710C48FEF7E8
:1025B000E5FA00224FF400710948FEF7DFFA022025
:1025C00004F0D0FE012211020548FEF7D7FA0122DD
:1025D00051020348FEF7D2FA022004F0C3FE10BDF8
:1025E000000C014010B5002400F0BEF80122510299
:1025F0001248FEF7C3FA022004F0B4FE01221102D1
:102600000E48FEF7BBFA022004F0ACFE07E0601CA7
:10261000C4B2FA2C03DDFFF7C3FF012010BD4FF455
:1026200000710648FEF7A2FA0028F0D100224FF40C
:1026300080710248FEF7A2FA0020EFE7000C01408B
:1026400010B5FFF7F1FE80216B2000F003F9642044
:1026500002F07CFE00216B2000F0FCF8032000F06B
:10266000B7F8002000F0ACF8322000F0D6F80021D6
:10267000382000F0EFF800216A2000F0EBF800218C
:10268000232000F0E7F88021372000F0E3F87520E0
:1026900000F013F80446682C0BD101216B2000F0E8
:1026A000D9F800216C2000F0D5F8322000F0B5F800
:1026B00001E0012010BD0020FCE770B50446FFF7E3
:1026C0004DFFD020FFF71EFFFFF78CFF2046FFF7DE
:1026D00019FFFFF787FFFFF741FFD120FFF712FF38
:1026E000FFF780FF0020FFF7DDFE0546FFF758FFEC
:1026F000284670BD2DE9F04106460F4614461D469A
:10270000FFF72CFF002141EA4601C8B2FFF7FAFEAD
:10271000FFF768FF20B1FFF743FF0120BDE8F0811C
:102720003846FFF7EFFEFFF75DFFFFF717FF0121C8
:1027300001EB4601C8B2FFF7E5FEFFF753FF0DE0DE
:10274000012C04D10020FFF7ADFE287003E001202A
:10275000FFF7A8FE2870601EC4B26D1C002CEFD1DC
:10276000FFF71EFF0020D9E71FB500200090019061
:10277000029003904FF400700090002001900290AE
:102780000320039069460248FEF760F81FBD000071
:10279000000C01401FB500200090019002900390B2
:1027A0004FF400700090012001900020029003205F
:1027B000039069460148FEF749F81FBD000C01402F
:1027C00010B50446E006010E1C2000F043F810BDD1
:1027D00010B50446E006010E1B2000F03BF810BDCA
:1027E00070B504460025BC2C01DB012510E0622CED
:1027F00001DB02250CE02A2C01DB032508E0142C68
:1028000001DB042504E00A2C01DB052500E0062598
:1028100029461A2000F01EF870BD70B50446B4F5C4
:102820007A7F01DD4FF47A74042C00DA04244FF42B
:102830007A7090FBF4F0401EC5B22946192000F0D2
:1028400009F80546264604EBD671C1F34F00FFF7A1
:10285000C7FF70BD70B505460C46FFF77FFED02060
:10286000FFF750FEFFF7BEFE18B1FFF799FE0120FB
:1028700070BD2846FFF746FEFFF7B4FE2046FFF77F
:1028800041FEFFF7AFFE18B1FFF78AFE0120EFE728
:10289000FFF786FE0020EBE72DE9F04105460E46E6
:1028A00017469846FFF75AFE002141EA4501C8B293
:1028B000FFF728FEFFF796FE20B1FFF771FE01201B
:1028C000BDE8F0813046FFF71DFEFFF78BFE0024C8
:1028D0000CE018F80400FFF715FEFFF783FE18B1AF
:1028E000FFF75EFE0120EBE7601CC4B2BC42F0DBE8
:1028F000FFF756FE0020E3E71CB501F097FB1E48EA
:10290000002301224FF47A7100901CA005F0B8FE5C
:102910001C4908601C4800230122642100901BA070
:1029200005F0AEFE1B4908601B4A00211B4803F05E
:102930003DFD1B4908601B48182100238022CDE97A
:10294000001019A11C4805F035FC1C481821002373
:102950004FF48072CDE9001019A11D4805F02AFC42
:102960001C48182100234FF48072CDE900101AA1F1
:102970001D4805F01FFC1CBDDD39000854696D655C
:1029800072310000100000203D06000854696D659A
:102990007232000014000020E08700085D36000855
:1029A000500000201C00002053686F7754696D654B
:1029B0005461736B00000000B93200082000002051
:1029C00053686F774D656E755461736B000000003E
:1029D000293000084000002073686F7773746570B9
:1029E0007461736B00000000B131000800B585B060
:1029F0000020019002900390049000BF3E4880693F
:102A000040F010003C4988610846806900F01000E1
:102A1000009000BF00BF00BF0846806940F0200062
:102A200088610846806900F02000009000BF00BF68
:102A300000BF0846806940F004008861084680694C
:102A400000F00400009000BF00BF00BF084680698E
:102A500040F0080088610846806900F00800009096
:102A600000BF00BF00224FF400512448FEF786F853
:102A7000002202212248FEF781F84FF40050019015
:102A800001200290002003900220049001A91B481D
:102A9000FDF7DCFE0220019011200290012003903E
:102AA0000220049001A91648FDF7D0FE40F603402D
:102AB0000190144802900120039001A91248FDF7EB
:102AC000C5FE002205210620FEF714FB0620FEF7B6
:102AD00001FB002205210720FEF70CFB0720FEF773
:102AE000F9FA002205212820FEF704FB2820FEF732
:102AF000F1FA05B000BD00000010024000100140D6
:102B00000008014000001110000C014010B50B48F6
:102B10000B4908600B484860002109488160C1608A
:102B20004FF480410161002141618161C161016215
:102B3000FEF730F808B1FDF7CAFD10BD00540040A3
:102B4000AC020020801A060000B587B00020039078
:102B5000049005900690019002901748174908606C
:102B600041F61F40486000211448816042F20F7115
:102B7000C1604FF480710161002141618021816158
:102B8000FEF7F2FE08B1FDF7A2FD4FF4805003906E
:102B900003A90A48FEF78EFF08B1FDF798FD002053
:102BA0000190029001A90548FEF760FE08B1FDF70B
:102BB0008EFD07B000BD0000002C01400003002086
:102BC00000BFFEE700BFFEE770B5002415E004F18A
:102BD000B001C8B200F034F9002000F031F9102043
:102BE00000F02EF9002504E0002000F03DF9681CFB
:102BF000C5B2802DF8DB601CC4B2082CE7DB70BDC9
:102C000010B58D2000F01CF9142000F019F9AF2048
:102C100000F016F910BD000010B5C820FDF75AFDF0
:102C2000002400BF05E00449085D00F009F9601CBC
:102C3000C4B2172CF7DB10BD9002002070B504461B
:102C40000D4605F1B001C8B200F0FAF8102141EAD2
:102C5000141000F0F5F804F00F0000F0F1F870BD6A
:102C60002DE9F04780460E4691469A46089F00257A
:102C70000024A9F12000C5B2B8F17F0F02DDA04603
:102C8000B01CC6B2BAF1100F37D131464046FFF73B
:102C9000D5FF002411E047B104EB0511274A515C30
:102CA000C943C8B200F0E0F805E004EB0511234A7F
:102CB000505C00F0D9F8601CC4B2082CEBDB701C2F
:102CC000C1B24046FFF7BAFF002413E04FB104EB56
:102CD00005110831194A515CC943C8B200F0C4F863
:102CE00006E004EB05110831144A505C00F0BCF812
:102CF000601CC4B2082CE9DB1DE031464046FFF7FA
:102D00009DFF002415E057B105EB45010C4A02EB8D
:102D10004101095DC943C8B200F0A6F807E005EB20
:102D20004501074A02EB4101085D00F09DF8601C77
:102D3000C4B2062CE7DBBDE8F0870000A4960008CB
:102D40007C9400082DE9FF4F83B0074691461E464C
:102D5000DDE9105A00200290002438E0301B401EAC
:102D6000C1B20A2003F0B8FAB9FBF0F00A21B0FBB7
:102D7000F1F201FB12080298B0B9701EA04213DDF7
:102D8000B8F1000F0ED1AB4605EBDB71491001FB2A
:102D90000471C8B22B462022CDF800A00499FFF799
:102DA0005FFF12E001200290AB4605EBDB7149109A
:102DB00001FB0471C8B208F13001CAB22B46CDF84C
:102DC00000A00499FFF74CFF00BF601CC4B2B442DE
:102DD000C4DB07B0BDE8F08F2DE9F84304460E468A
:102DE00017461D46DDF820904FF0000822E0CDF890
:102DF000009017F808202B4631462046FFF730FF99
:102E00000C2D02D1A01DC4B202E004F10800C4B22E
:102E10007A2C04DD0C2D02D10024701CC6B2782C53
:102E200004DD102D02D10024701CC6B208F101008F
:102E300000F0FF0817F808000028D8D1BDE8F88393
:102E400001B584B04FF48070012104AA0B46CDE98E
:102E500000210290002278210248FDF783FF05B08F
:102E600000BD0000AC02002001B584B04FF48070BA
:102E7000012104AA0B46CDE90021029040227821CD
:102E80000248FDF76FFF05B000BD0000AC02002056
:102E900010B504462CB1002105480068FEF7E0FF9C
:102EA00004E0002102480068FFF744F810BD00006C
:102EB000CC00002000B58BB01C2104A8FDF709FA56
:102EC000002000900190029003904FF480700090D9
:102ED00002200190039069461B48FDF7B7FC1B4890
:102EE0001B490968086047201949096848600021A2
:102EF00017480068816040F2E73115480068C160FA
:102F00000021134800680161114800684161802177
:102F10000F48006881610E49096808680C49096812
:102F2000091D00F017FC602004900220069000208C
:102F3000089040F2F3100590002204A904480068AC
:102F4000FEF70BFF0BB000BD00080140002C014054
:102F5000CC00002030B587B004460D461C216846E1
:102F6000FDF7B7F9002123480068FEF7E3FF214889
:102F70000068FEF7BDFC20481E490968086047202C
:102F80001C490968486000211A48006881601B4894
:102F900090FBF4F0401E17490968C86000211548ED
:102FA0000068016113480068416180211148006890
:102FB000816110480068FEF7D7FC60200090022075
:102FC0000290002004900D4890FBF4F0401E6843EE
:102FD000642190FBF1F001900022694605480068E9
:102FE000FEF7BBFE002103480068FEF739FF07B07B
:102FF00030BD0000CC000020002C014040420F00FA
:1030000008B508490968C9084FF47A72B1FBF2F1B2
:103010004143009100BF00BF00994A1E0092002961
:10302000F9D108BD0C00002008B500F0FFFF002218
:103030000421084604F08AFD5249086008460068E9
:1030400020B1012251035048FDF798FDFFF7E4FD40
:10305000FFF7BAFDFFF7D4FD93E000F031FA6422E8
:1030600069464848006804F0ABFF012818D19DF874
:103070000000012815D145480078002811DD04F032
:10308000F3F842480078401E404908704048006804
:10309000401E3F49086032214FF4FA6000F0AEFF55
:1030A0006CE09DF80100012815D13848007805280A
:1030B00011DA04F0C3F835480078401C3349087031
:1030C00033480068401C3249086032214FF4FA60EE
:1030D00000F094FF52E09DF8030001283ED16421E6
:1030E00040F6C41000F08AFF28480078062834D241
:1030F000DFE800F0030B131B232B2648006804F0C5
:1031000051FB002004F0F2FB27E02348006804F0A4
:1031100049FB002004F0EAFB1FE02048006804F0AF
:1031200041FB002004F0E2FB17E01D48006804F0BA
:1031300039FB002004F0DAFB0FE01A48006804F0C5
:1031400031FB002004F0D2FB07E01748006804F0D0
:1031500029FB002004F0CAFB00BF0FE09DF802002D
:1031600001280BD164214FF4FA6000F047FF0F48AB
:10317000006804F017FB002004F0B8FB0A2004F0FC
:1031800095FA6AE74400002000100140BC010020CD
:10319000C8010020240000202C000020380000205E
:1031A0002800002030000020400000201C000020EB
:1031B0000EB5FFF731FDFFF707FDFFF721FDFFF724
:1031C0003FFA05E0C82002F0C1F82DA000F056FC3F
:1031D00002F000F90028F5D100220421012004F0BA
:1031E000B5FC2B4908600846006820B10122510354
:1031F0002848FDF7C3FC41E0FFF7E6FC0020102360
:1032000025A2014600900F20FFF7E6FD00201021C7
:103210000523CDE900102248022102680A20FFF7A9
:1032200091FD2049204801F06BFC1E491F4803F026
:103230002BF91C491E4804F02DF81A4A1C491B485A
:1032400000F00CFFC82002F081F8002202A910480B
:10325000006804F0B5FE9DF80B0001280ED1642132
:1032600040F6C41000F0CAFE1248006804F09AFA52
:10327000002004F03BFB00208DF80B00BCE70000B1
:103280006D707536303530206572726F720D0A00C0
:1032900044000020001001407374657000000000BD
:1032A0008002002084020020743000208E30002034
:1032B000A6300020200000200EB500F0B7FE6B48BD
:1032C000006804F013FB6A48006804F00FFB6948CB
:1032D000006804F00BFB6848006804F007FB6748CF
:1032E000006804F003FB6648006804F0FFFA6548D4
:1032F000006804F0FBFA00220421012004F026FCFF
:1033000061490860FFF788FCFFF75EFCFFF778FC77
:10331000ABE0FFF759FC00200C235CA201460090B3
:10332000FFF75AFD00200C2359A2014600906920A6
:10333000FFF752FD00201021574ACDE90010146913
:10334000E21704EB5272C2F3C701534A107B012308
:10335000524A1278FFF7F6FC002010214E4ACDE9C0
:1033600000101469E21704EB5272C2F3C7014A4A13
:10337000107A01234A4A1278FFF7E4FC0020494AF8
:1033800000905468E21704EB5272C2F3C701454A39
:10339000107810233A22FFF763FC0020424A009085
:1033A0005468E21704EB5272C2F3C7013E4A107828
:1033B00010233A22FFF754FC00201021364ACDE9B1
:1033C00000101469E21704EB5272C2F3C701324ACB
:1033D00010790123354A1278FFF7B4FC0020102140
:1033E0002D4ACDE900101469E21704EB5272C2F3C2
:1033F000C701294A107801232D4A1278FFF7A2FC51
:1034000000200C210123CDE900102A480278002178
:103410003820FFF797FC00200C210123CDE9001094
:103420002548027800214220FFF78CFCFA2004F0A6
:103430003DF92248007828B9002202A91248006804
:1034400004F0BEFD9DF80A0001280ED1642140F66B
:10345000C41000F0D3FD0548006804F0A3F9002073
:1034600004F044FA00208DF80A0052E72000002002
:103470002C00002030000020280000202400002024
:103480003800002040000020440000205057520027
:1034900047414D4500000000140100200D010020AF
:1034A0000E01002034010020440100200F01002003
:1034B0001001002012010020110100200C01002049
:1034C00038B5FFF781FB0020102350A20146009081
:1034D0002820FFF781FC012000904E48006800EB97
:1034E00080004D4901EB40020C2301212820FFF709
:1034F00073FC4A48007808B9012000E000200C2342
:1035000047A2022100900A20FFF766FC434800789A
:10351000012800D100E000200C2342A202210090EB
:103520003220FFF759FC3D480078022801D10120E4
:1035300000E000200C233DA2022100905A20FFF75A
:103540004BFC36480078032801D1012000E0002020
:103550000C2337A2042100900A20FFF73DFC2F48DE
:103560000078042801D1012000E000200C2332A2C1
:10357000042100903220FFF72FFC00200C232FA203
:10358000042100905A20FFF727FC00200C232DA2D5
:1035900006210090FFF720FC00200C232AA2062120
:1035A00000907820FFF718FC00241BE01B480078EF
:1035B00084420BD10020C4EB04111E310090C8B22C
:1035C0000C2323220621FFF74BFB0AE00020C4EB6B
:1035D00004111E310090C8B20C232E220621FFF7E1
:1035E0003FFB641C062CE1DB00200C2317A2072103
:1035F00000900A20FFF7F0FB00200C2315A2072102
:1036000000904620FFF7E8FB38BD00004D454E55C1
:1036100000000000C80100204A940008BC010020FE
:1036200043616C004C6967687400000048756D0068
:10363000436C6F636B000000536574004D6F7265DF
:10364000000000003C0000003E00000053656C3AA2
:103650004F4B00004261636B3A55700008B50A4851
:10366000006858B104F044FE044600200346224698
:10367000012100900448006805F05AF800BF0120BD
:1036800002F036FEFBE700001000002010B500BF7E
:10369000502080F31188BFF34F8FBFF36F8F00BFAF
:1036A00004F02CFE18B14FF080500449086000BFB0
:1036B000002080F3118800BF10BD000004ED00E081
:1036C00000B58FB0282105A8FCF703FE1421684639
:1036D000FCF7FFFD012005900004069000200790F4
:1036E0000120099002200C90C1030D914FF4E011CC
:1036F0000E9105A8FDF786FE08B1FCF7E8FF0F2044
:10370000009002200190002002904FF4806003900E
:103710000020049002216846FDF73EFD08B1FCF749
:10372000D6FF0FB000BD704710B504460020FFF76C
:10373000AFFB10BD10B50248FEF743FA10BD000004
:103740000003002010B50248FEF73BFA10BD000050
:103750004803002010B50268184B984208D0B0F119
:10376000804F05D0164B984202D0164B984203D199
:1037700022F070024B681A43104B984208D0B0F107
:10378000804F05D00E4B984202D00E4B984203D189
:1037900022F44072CB681A4322F080034C6943EA5A
:1037A000040202608B68C3620B688362034B984219
:1037B00001D10B6903630123436110BD002C01405B
:1037C000000400400008004030B501F01F0501244E
:1037D00004FA05F3046A9C430462046A01F01F05BD
:1037E00002FA05F52C43046230BD30B50C46816801
:1037F00021F47F4142EA032525432943816030BDFE
:103800000A46816821F0700142F007031943816084
:103810007047000030B5026A056A25F001050562AF
:103820004368846924F0700424F003040D682C4379
:1038300022F002028D682A430D4DA84206D100BF36
:1038400022F00802CD682A4322F00402084DA84263
:1038500007D123F4807323F400734D692B438D69E2
:103860002B43436084614D684563026230BD0000B4
:10387000002C014030B5026A056A25F0100505628A
:103880004368846924F4E04424F440740D6844EAF5
:10389000052422F020028D6842EA05120E4DA8424E
:1038A00007D100BF22F08002CD6842EA051222F063
:1038B0004002094DA84209D123F4806323F4006338
:1038C0004D6943EA85038D6943EA8503436084615A
:1038D0004D688563026230BD002C014030B5026A3C
:1038E000056A25F4807505624368C46924F0700494
:1038F00024F003040D682C4322F400728D6842EA20
:1039000005220F4DA84207D100BF22F40062CD6806
:1039100042EA052222F48062094DA84209D123F42B
:10392000805323F400534D6943EA05138D6943EA3C
:1039300005134360C4614D68C563026230BD000079
:10394000002C014030B5036A056A25F480550562F4
:103950004468C26922F4E04222F440720D6842EAEF
:10396000052223F400538D6843EA0533064DA8422F
:1039700004D124F480444D6944EA85144460C26152
:103980004D680564036230BD002C014030B50B4624
:103990001446026A056A25F001050562816921F075
:1039A000F00141EA041122F00A021A438161026225
:1039B00030BD30B50B461446026A056A25F0100585
:1039C0000562816921F4704141EA043122F0A002CC
:1039D00042EA03128161026230BD00002049097889
:1039E000491C1F4A117011460978092906DD00217A
:1039F00011701C490978491C1A4A11701949097833
:103A0000052907DD0021174A117017490978491C5B
:103A1000154A117014490978092907DD0021124A55
:103A2000117012490978491C104A11700F49097820
:103A3000052907DD00210D4A11700D490978491C3F
:103A40000B4A11700A490978052907DD0021084A47
:103A5000117008490978491C064A11707047000026
:103A60000D0100200E0100200F0100201001002098
:103A7000110100201201002000BFFEE70FB4054B2A
:103A800010B503A9044A029800F03CF810BC5DF898
:103A900014FB0000BD4B0008A8020020024800688B
:103AA000C0F30220704700000CED00E010B50028C4
:103AB00004DB0A07130E054A135406E00A07140E26
:103AC000034A00F00F031B1FD45410BD00E400E0B4
:103AD00018ED00E0EFF311807047EFF305807047B9
:103AE000EFF31080704702E008C8121F08C1002AD7
:103AF000FAD170477047002001E001C1121F002A6F
:103B0000FBD170472DE9FF4F8DB00F4605460026CB
:103B100006E025280BD0DDE90F1290476D1C761CBE
:103B200028780028F5D111B03046BDE8F08F002488
:103B3000A246A1460122EC4900E0044315F8013FEA
:103B4000203B02FA03F00842F7D128782A2810D047
:103B50006FF02F022878A0F13001092914D80AEB60
:103B60008A0102EB410144F0020400EB010A6D1CE2
:103B7000F0E701CF5FEA000A03D544F40054CAF12C
:103B8000000A44F002046D1C28782E2817D115F87D
:103B9000010F44F004042A280ED06FF02F02287879
:103BA000A0F1300109290AD809EB890102EB410192
:103BB00000EB01096D1CF2E757F8049B6D1C287897
:103BC0006C280FD006DC4C2817D068280DD06A2846
:103BD00014D104E0742810D07A280FD10DE044F4F9
:103BE00000140AE044F4801401E044F440146978BD
:103BF000814202D104F580146D1C6D1C2A786E2A56
:103C00001FD00CDC632A31D004DC002A8BD0582A68
:103C100011D1A3E0642A68D0692A0CD165E0732A27
:103C20002ED004DC6F2A73D0702A04D19BE0752A51
:103C30006FD0782A6ED01046DDE90F129047761CBF
:103C400050E1C4F30250022806D0032809D004280A
:103C500001CF09D0066045E101CFF117C0E900614D
:103C600040E101CF06803DE106703BE117F8040B0F
:103C70008DF8000000208DF80100EB46012003E0E4
:103C800057F804BB4FF0FF3061074FF0000102D43A
:103C90000DE008F10101884649450FDA8045F8DB5F
:103CA0001BF808100029F4D108E008F1010188464A
:103CB0008142FADB1BF808100029F6D1DDE90F2359
:103CC000AAEB08008146214600F036F9304400EBAB
:103CD000080604E0DDE90F121BF8010B9047B8F16C
:103CE0000108F7D221464846F7E00A21C4F30253FF
:103CF0004FF0000B0891022B04D001CFC117032B0A
:103D000009D00AE0FF1D27F00707F7E8020108E0E5
:103D100032E01FE020E000B2C117042B01D140B215
:103D2000C117031E71F1000307DA4FF0000CD0EB4E
:103D30000C006CEB01012D2302E0230504D52B239D
:103D40008DF82430012303E0E30701D02023F7E7B7
:103D5000984658E00A2110E010210EE010204FF0A4
:103D6000000B08900CE010214FF0000B44F004040D
:103D70004FF00809089103E008214FF0000B08916B
:103D8000C4F30253022B04D001CF0021032B06D031
:103D900006E0FF1D27F00707F7E8020103E080B205
:103DA000042B00D1C0B24FF0000823072BD5702A96
:103DB00007D0DDF820C08CF0100C5CEA0B0C05D0AD
:103DC0000EE040238DF82430012308E050EA01037F
:103DD00006D030238DF824308DF825200223984614
:103DE000DDF820C08CF0080C5CEA0B0C0BD150EA1B
:103DF000010301D1630706D530238DF824304FF03D
:103E00000108A9F10109582A04D038A20B9208AA86
:103E10000A920BE03AA2F9E75B46089AFCF7CEF962
:103E20000B9B9B5C0A9A521E0A92137050EA010285
:103E3000F2D10A98ADEB000000F1200B600702D52B
:103E400024F4803401E04FF00109D94502DDA9EBEB
:103E50000B0000E0002000EB0B0141440890AAEBAE
:103E6000010AE00306D4DDE90F232146504600F0A5
:103E700063F806444FF0000908E009A911F80900A9
:103E8000DDE90F12904709F10109761CC145F4DB09
:103E9000E0030CD5DDE90F232146504600F04CF835
:103EA000064404E0DDE90F1230209047761C0899A3
:103EB000481E08900029F5DC08E00A980A99007865
:103EC000491C0A91DDE90F129047761CBBF10001F5
:103ED000ABF1010BF1DC21465046DDE90F2300F088
:103EE00019F806446D1C1BE60928010030313233F5
:103EF0003435363738396162636465660000000026
:103F0000303132333435363738394142434445460F
:103F1000000000002DE9F041044600251E4617462A
:103F2000880404D405E039462020B0476D1C641E87
:103F3000F9D52846BDE8F0812DE9F0410446002579
:103F40001E469046C80301D5302700E0202788048C
:103F500004D505E041463846B0476D1C641EF9D5CE
:103F60002846BDE8F08100002DE9FE4F05460E46CB
:103F70000027684600F02CFE002437E055F82400A6
:103F800056F82410A0EB010ABAF1000F01DB5146EC
:103F900001E0CAF100010846FCF77BFA83464FF0C6
:103FA0008F41FCF738FA80465DF824000021FCF7C9
:103FB000ABFA0BD05DF824104046FCF72CFA824691
:103FC0004FF07E51FCF7EFF981460EE00A48C169D7
:103FD0004046FCF799FA05D30748016A4046FCF7CA
:103FE0009DFA02D20120A0400743641C032CC5DBCC
:103FF0003846BDE8FE8F00002C88000838B505461D
:104000000C460848006860B932212846FEF7A2FF36
:10401000002003462246042100900348006804F073
:1040200087FB38BD7C020020D000002008B5FEF7D9
:1040300041FF054800231A46C821009003A004F060
:104040001FFB0549086008BD2937000853797374C0
:10405000656D536F756E6400D00000202DE9F0414E
:1040600004460D461746204601F007F9064636B1CC
:10407000012E05D0022E1AD0032E46D12EE045E0A7
:10408000B4F90C20B4F91230D11801EBD1725210EE
:1040900010B2B5F90610814208DDB5F90010814271
:1040A00004DA1C490968491C1A4A11602EE0B4F967
:1040B0000E30B4F91420991801EBD172521010B2DD
:1040C000B5F90810814208DDB5F90210814204DA21
:1040D00010490968491C0F4A116017E0B4F9103003
:1040E000B4F91620991801EBD172521010B2B5F93B
:1040F0000A10814208DDB5F90410814204DA05494D
:104100000968491C034A116000E000BF00BFBDE818
:10411000F08100008002002038B5044664B1202000
:104120008DF8000028208DF8010030208DF8020065
:1041300038208DF8030004E0A32204216846FCF730
:10414000C1F86A46042140F69E2002F085F801F08D
:104150006FFC38BD3EB5044602208DF80000CA2031
:104160008DF80100E3208DF8020009208DF803008E
:104170006A460421682002F06FF8A3208DF8000041
:1041800004F0400048B1C0208DF80100C8208DF82F
:104190000200C2208DF8030006E0A3208DF8010084
:1041A0008DF802008DF8030004F4C07048B1C420FB
:1041B0008DF80400CC208DF80500C6208DF806008F
:1041C00006E0A3208DF804008DF805008DF80600A8
:1041D000A3208DF807008DF808008DF809006A46C5
:1041E0000A2140F6A72002F037F804F0030018B1C6
:1041F00020208DF8000002E0D8208DF800006A46EB
:10420000012140F6B62002F027F804F0200018B192
:10421000012000F0ADF802E0002000F0A9F804F45D
:10422000C07008B304F4807060B1B2208DF8000053
:104230008B208DF80100B6208DF802009B208DF8B0
:1042400003000BE0B0208DF8000080208DF8010005
:10425000B4208DF8020090208DF803006A460421F6
:1042600040F6A22001F0F8FF04F0010020B3F8208E
:104270008DF800006A4601214FF40B6001F0ECFF5D
:10428000FA21072000F046FB072000F00DFB01207B
:1042900000F02DFB642000F00DFC4FF4FA7000F0EC
:1042A0001CFCC821304800F0BDFA282000F0D6FAE6
:1042B0000A2000F0E6FA08E0D8208DF800006A46EF
:1042C00001214FF40B6001F0C7FF04F0020018B1A8
:1042D000D9208DF8000002E0D8208DF800006A4651
:1042E000012140F23D7001F0B7FF04F0040018B165
:1042F000012000F069F802E0002000F065F804F009
:10430000100018B10120FFF707FF02E00020FFF7BF
:1043100003FF44F008001549488101F089FB0020A3
:104320001249887304F0400018B10846807B801D54
:10433000887304F4C07020B10C48807B801D0B4949
:10434000887304F0140020B10848807B10300749BE
:10435000887304F0030020B10448807B001D0349EA
:10436000887300203EBD000009E3CA0264300020CB
:104370003EB504466CB10EA1D1E900208968CDE9B3
:10438000002002916A4609214FF4976001F064FF12
:104390003EBD0AA2D2E900109268CDE90102009167
:1043A0006A4609214FF4976001F056FFF0E70000DC
:1043B000B8AAB38DB4980D355D000000B8AAAAAABA
:1043C000B088C3C5C700000038B5044664B1C0203A
:1043D0008DF80000C2208DF80100C4208DF8020085
:1043E000C6208DF8030004E08B2204216846FBF709
:1043F00069FF6A46042140F6982001F02DFF01F084
:1044000017FB38BD10B5C8234FF48062024940F64F
:10441000F63001F001FA10BD5488000870B588B07C
:10442000064601A801F04CF8BDF804000021C903BC
:1044300041EA5045C4034448007A00F0030056F8AE
:10444000200005904048007A00F0040010B1059863
:10445000404205903C48007AC0F3C10056F8200065
:1044600006903948007A00F0200010B106984042CA
:1044700006903548007AC0F3811056F82000079066
:104480003148008900F4807010B1079840420790CD
:104490000598C117A0FB042301FB043100FB0510A4
:1044A000810041EA927005900698C117A0FB042391
:1044B00001FB043100FB0510810041EA9270069077
:1044C0000798C117A0FB042301FB043100FB051072
:1044D000810041EA927007900598000E8DF808005F
:1044E0000598000C8DF809000598000A8DF80A005F
:1044F0000598C0B28DF80B000698000E8DF80C00E0
:104500000698000C8DF80D000698000A8DF80E0034
:104510000698C0B28DF80F000798000E8DF81000B5
:104520000798000C8DF811000798000A8DF812000A
:104530000798C0B28DF8130002AA0C214FF4257021
:1045400001F08AFE08B070BD6430002030B585B03F
:10455000044616A207CA02AB07C3C82C03DD4FF0FE
:10456000FF3005B030BDC82090FBF4F0401E85B28E
:10457000280A8DF80000E8B28DF801006A46022191
:1045800040F2162001F068FE10B14FF0FF30E8E76E
:1045900002AA0C2140F6C12001F05EFE10B14FF0DE
:1045A000FF30DEE7044884810020DAE7FEF2ABC486
:1045B000AAF1DFDFBBAFDFDF643000201FB50446A8
:1045C0004848007A00F0030054F820000190454864
:1045D000007A00F0040010B1019840420190414877
:1045E000007AC0F3C10054F8200002903D48007AE0
:1045F00000F0200010B10298404202903948007A41
:10460000C0F3811054F8200003903648008900F46C
:10461000807010B10398404203903349019880FBA9
:104620000101800F40EA810001902F49029880FB30
:104630000110820042EA917002902B49039880FB9E
:104640000110820042EA917003900198000E8DF8EB
:1046500000000198000C8DF801000198000A8DF807
:1046600002000198C0B28DF803006A4604214FF49D
:10467000747001F0F1FD18B14FF0FF3004B010BDBF
:104680000298000E8DF800000298000C8DF80100D1
:104690000298000A8DF802000298C0B28DF803005B
:1046A0006A4604214FF4757001F0D6FD10B14FF049
:1046B000FF30E3E70398000E8DF800000398000C2C
:1046C0008DF801000398000A8DF802000398C0B22B
:1046D0008DF803006A4604214FF4767001F0BCFDAA
:1046E000CCE700006430002009E3CA0210B586B0B0
:1046F000044647A00068039046A00068029046A0C8
:104700000068019045A00068009004F0030003A930
:10471000085C8DF8140003A8C4F3C101405C8DF857
:10472000150003A8C4F38111405C8DF8160004F055
:10473000030002A9085C8DF8100002A8C4F3C101AF
:10474000405C8DF8110002A8C4F38111405C8DF823
:10475000120005AA032140F2264001F07DFD18B1A8
:104760004FF0FF3006B010BD04AA032140F22A40EA
:1047700001F072FD10B14FF0FF30F3E701980590A2
:104780000098049004F0040058B19DF8140040F023
:1047900001008DF814009DF8100040F001008DF824
:1047A000100004F0200058B19DF8150040F0010001
:1047B0008DF815009DF8110040F001008DF81100F2
:1047C00004F4807058B19DF8160040F001008DF897
:1047D00016009DF8120040F001008DF8120005AAA5
:1047E00003214FF4886001F037FD10B14FF0FF3026
:1047F000B8E704AA032140F2314001F02DFD10B1C9
:104800004FF0FF30AEE7064804810020AAE7000021
:104810004CCD6C000CC92C0036567600264666003E
:1048200064300020F8B505460E464FF47A7095FBCB
:10483000F0F000FB06F4200E8DF80000200C8DF83F
:104840000100200A8DF80200E0B28DF803006A46EC
:1048500004214FF4AE7001F0FFFCF8BD38B50446FA
:10486000052094FBF0F084B220128DF80000E0B235
:104870008DF801006A4602214FF4AD7001F0ECFCA6
:1048800038BD38B50446052094FBF0F084B2201200
:104890008DF80000E0B28DF801006A4602214FF465
:1048A000AC7001F0D9FC38BD38B50446002000904A
:1048B00004F0010020B19DF8000040F030000090AD
:1048C00004F0020020B19DF8000040F00C000090C0
:1048D00004F0040020B19DF8000040F003000090B7
:1048E0006A4601214FF4A47001F0B6FC38BD38B51A
:1048F0000446012C01DA012402E0042C00DD04242A
:10490000601EC0B200906A46012140F24F1001F0D3
:10491000A3FC38BD2DE9FC4706460F4606F007000C
:1049200010B1B7F5C86F03DD4FF0FF30BDE8FC876D
:104930003846FBF7B7FD81465949FBF76CFD8046C9
:10494000684600F097FD9DF80000022806D0042874
:1049500016D0082826D0102848D135E04FF08D41D8
:104960004046FBF726FD8146FBF7BAFD84B24D4970
:104970004046FBF71EFD8146FBF7B2FD85B238E0ED
:104980004FF08C414046FBF714FD8146FBF7A8FD34
:1049900084B245494046FBF70CFD8146FBF7A0FD7C
:1049A00085B226E04FF08B414046FBF702FD814681
:1049B000FBF796FD84B23D494046FBF7FAFC814681
:1049C000FBF78EFD85B214E04FF08A414046FBF7BD
:1049D000F0FC8146FBF784FD84B235494046FBF785
:1049E000E8FC8146FBF77CFD85B202E04FF0FF302A
:1049F0009CE700BF20128DF80400E0B28DF805009E
:104A000028128DF80600E8B28DF8070006F00100C4
:104A1000A0B101AA02214FF4EA7001F01DFC10B10F
:104A20004FF0FF3082E70DF1060202214FF4927041
:104A300001F012FC10B14FF0FF3077E706F00200F2
:104A4000A0B101AA02214FF4EC7001F005FC10B1F5
:104A50004FF0FF306AE70DF1060202214FF4947027
:104A600001F0FAFB10B14FF0FF305FE706F00400F1
:104A7000A0B101AA02214FF4EE7001F0EDFB10B1DC
:104A80004FF0FF3052E70DF1060202214FF496700D
:104A900001F0E2FB10B14FF0FF3047E7002045E79F
:104AA00000004843000040460000C045000040456B
:104AB0000000C04438B50446052094FBF0F085B2F0
:104AC00028128DF80000E8B28DF801006A46022134
:104AD0004FF4EF7001F0C0FB38BD38B50446052037
:104AE00094FBF0F085B228128DF80000E8B28DF842
:104AF00001006A4602214FF4ED7001F0ADFB38BDB4
:104B00002DE9F04704460E460025AA460027A84690
:104B1000A9460420207600BF35E00AE0642002F0B8
:104B200021FC0AF1010000F0FF0ABAF1140F00DDC8
:104B300011E005EB450304EB43031A1D05EB4503A8
:104B400004EB4303991C05EB450304EB4300FDF71D
:104B50001FFC0028E2D100BF05EB450034F810002F
:104B6000384407B205EB450004EB40004088404460
:104B70000FFA80F805EB450004EB400080884844BC
:104B80000FFA80F96D1C042DC7D33846F91707EBCF
:104B90009171891009B2318040464FEAE87108EB03
:104BA0009171891009B2718048464FEAE97109EBA9
:104BB0009171891009B2B180BDE8F08738B504461B
:104BC0008DF8000069460320ABBE204638BD0000CA
:104BD0007CB5054628494968087801AB04220D21B7
:104BE000FDF788FD08B107207CBD9DF80700C0F3E4
:104BF00001109DF8041001F0E00140EAE1008DF899
:104C000000009DF80700C0F381009DF8051001F039
:104C1000E00140EAE1008DF801009DF8070000F096
:104C200003009DF8061001F0E00140EAE1008DF874
:104C3000020000241CE01DF8040018B9002045F80B
:104C4000240013E00D4845F8240006E055F8240040
:104C50000B49FBF7AEFB45F824001DF80400401E8D
:104C6000C0B20DF804000028F0D100BF601CC4B22F
:104C7000032CE0DB0020B7E7D40000207B14AE3E1D
:104C80001D5A843F2DE9F04F87B005460C469146EA
:104C900001208DF8100000208DF81100FE4A1268E6
:104CA000917CFD4A5268107804AB0222FDF7F4FDB6
:104CB00020B14FF0FF3007B0BDE8F08FC82000F002
:104CC00045FB00208DF81000F34A1268D17BF24AB0
:104CD0005268107804AB0122FDF7DEFD10B14FF0F1
:104CE000FF30E8E7EC4A12685179EB4A52681078D5
:104CF00004AB0122FDF7D0FD10B14FF0FF30DAE731
:104D0000E54A1268917CE44A5268107804AB0122AB
:104D1000FDF7C2FD10B14FF0FF30CCE7DE4A12685C
:104D2000D17DDD4A5268107804AB0122FDF7B4FD55
:104D300010B14FF0FF30BEE7D74A12681179D64A5A
:104D40005268107804AB0122FDF7A6FD10B14FF0B8
:104D5000FF30B0E70C208DF81000CF4A12681179AF
:104D6000CD4A5268107804AB0122FDF795FD10B1D1
:104D70004FF0FF309FE70F2000F0E8FAC648806A46
:104D8000407A8DF81000C44A12689178C24A52687D
:104D9000107804AB0122FDF77FFD10B14FF0FF301A
:104DA00089E7BD48806A007A8DF81000BA4A126817
:104DB0005178B94A5268107804AB0122FDF76CFDB6
:104DC00010B14FF0FF3076E7B9F1000F07D0B248CD
:104DD000806A807A40F0E0008DF8100004E0AE4870
:104DE000806A807A8DF81000AB4A12689179AA4ADD
:104DF0005268107804AB0122FDF74EFD10B14FF060
:104E0000FF3058E7B9F1000F07D0A348806AC07A95
:104E100040F0E0008DF8100003E0A048C07A8DF863
:104E200010009D4A1268D1799B4A5268107804ABF1
:104E30000122FDF731FD10B14FF0FF303BE7B9F132
:104E4000000F02D0C82000F081FA40208DF8100039
:104E5000914A12681179904A5268107804AB012285
:104E6000FDF71AFD10B14FF0FF3024E778208DF8E0
:104E70001000894A12685179874A5268107804AB49
:104E80000122FDF709FD10B14FF0FF3013E7834910
:104E9000888900F05BFA00208DF810007E4A1268C5
:104EA00051797D4A5268107804AB0122FDF7F4FC79
:104EB00010B14FF0FF30FEE6774A1268917A764AD9
:104EC0005268107804AB0222FDF714FC10B14FF0C9
:104ED000FF30F0E69DF811009DF8101040EA012B1C
:104EE0000C209BFBF0F0C6B20020A8606860286030
:104EF000A06060602060824665E0674A1268D17AEF
:104F0000654A5268107804AB0C22FDF7F3FB10B130
:104F10004FF0FF30CFE69DF811009DF8101040EAE9
:104F2000012000B2ADF808009DF813009DF81210A2
:104F300040EA012000B2ADF80A009DF815009DF886
:104F4000141040EA012000B2ADF80C00BDF90810C1
:104F5000206808442060BDF90A1060680844606059
:104F6000BDF90C10A0680844A0609DF817009DF8DA
:104F7000161040EA012000B2ADF800009DF81900BB
:104F80009DF8181040EA012000B2ADF802009DF82B
:104F90001B009DF81A1040EA012000B2ADF8040091
:104FA000BDF90010286808442860BDF9021068683F
:104FB00008446860BDF90410A8680844A8600AF1B4
:104FC000010000F0FF0AB24597DB3448D0F800C07A
:104FD0002868C117090441EA10410704624600230A
:104FE0003846FBF71CF932460023CDE90201FBF7F6
:104FF00016F928602948D0F800C06868C11709046C
:1050000041EA10410704624600233846FBF707F9DE
:1050100032460023CDE90201FBF701F968601F4821
:10502000D0F800C0A868C117090441EA104107047C
:10503000624600233846FBF7F2F832460023CDE9FA
:105040000201FBF7ECF8A8601448D0F804C021680E
:10505000C817000440EA11480F046246002338468E
:105060004146FBF7DCF832460023CDE90201FBF7AD
:10507000D6F820600948D0F804C06068C117090458
:1050800041EA10410704624600233846FBF7C7F89F
:105090003246002304E00000D40000202C880008E1
:1050A000CDE90201FBF7BBF860601148D0F804C0FD
:1050B000A068C117090441EA1041070462460023B1
:1050C0003846FBF7ACF832460023CDE90201FBF786
:1050D000A6F8A060A068002804DDA068A0F58030D4
:1050E000A06003E0A06800F58030A0600020E2E549
:1050F0002C8800082DE9FC5F06460F4600253D4937
:105100004968087801AB03220D21FDF7F3FA10B1CD
:105110000720BDE8FC9F9DF8040000F01F008DF8FB
:1051200004009DF8050000F01F008DF805009DF8B3
:10513000060000F01F008DF80600002456E056F827
:10514000240057F82410A0EB010BBBF1000F01DB8A
:10515000594601E0CBF100010846FBF79AF94FF000
:105160008F410090FBF757F9814601A8005D68B3B5
:1051700021490868FBF796F9834659461F48FBF713
:105180004AF9804604E01E494046FBF712F9804682
:1051900001A8005D401EC0B201A908550028F2D147
:1051A00041464846FBF737F983464FF07E51FBF7FF
:1051B000FAF882462AF0004B0F4881695846FBF7FF
:1051C000ADF912D20120A04005430EE00A48016962
:1051D0004846FBF799F905D3074841694846FBF76C
:1051E0009DF902D20120A0400543641C032CA6DBDC
:1051F00028468EE7D40000202C88000800B04C45DB
:1052000054E3853F10B50446204600F00FF80346EE
:10521000E01C00F00BF843EAC00083B2A01D00F0D0
:1052200005F843EA801083B2184610BD014691F993
:105230000020002A01DD00201EE091F90020002A54
:1052400001DA042018E091F90120002A01DD012093
:1052500012E091F90120002A01DA05200CE091F911
:105260000220002A01DD022006E091F90220002A36
:1052700001DA062000E00720704770B501460020E3
:10528000B1F90050B1F90660AD1B6D42002D05DD8E
:10529000B1F90650B1F90060AD1B04E0B1F900505E
:1052A000B1F90660AD1B2AB2B1F90260B1F908503C
:1052B000751B6D42002D05DDB1F90850B1F9026092
:1052C000AD1B04E0B1F90260B1F90850751B2BB2B7
:1052D000B1F90460B1F90A50751B6D42002D05DD6E
:1052E000B1F90A50B1F90460AD1B04E0B1F90460F2
:1052F000B1F90A50751B2CB29A4205DDA24203DDBA
:105300003C2A01DB01200EE0934205DDA34203DDD0
:105310003C2B01DB022006E0944204DD9C4202DDCE
:105320003C2C00DB032070BDFBF714FEFEF7C8F930
:10533000FDF75CFBFDF7EAFBFDF706FC00F0F4FF70
:10534000FDF7DAFA01F010F800BFFEE730B50446C9
:10535000002504E04FF47A7002F004F86D1CA542B9
:10536000F8DB30BD70B50446002624F0010418486F
:1053700090F8240008B1002070BD1548807A10B95B
:105380004FF0FF30F8E71248057C807A2040104942
:1053900008740846007CA04202D04FF0FF3600E0BF
:1053A000002614B90A48007D18B1012001F0FEFE64
:1053B00002E0002001F0FAFE3CB100F039FB20B120
:1053C000034805744FF0FF30D6E73046D4E70000BD
:1053D000D400002070B50024FDF726F800F024F971
:1053E000002840D1782000F0CFFEC4B20CB10120DB
:1053F00070BD7820FFF7B6FFC4B20CB10220F7E70A
:10540000642000F073FEC4B20CB10320F0E7FEF795
:10541000F9FFC4B20CB10420EAE71548FFF7F2FE29
:105420000546FFF763F9C4B20CB10520E0E740F28E
:105430007310FEF78FFEC4B20CB10620D8E76420CB
:10544000FFF784F8C4B20CB10720D1E701F064FE85
:1054500004460CB10820CBE7012000F043FDC4B2A4
:105460001CB10920C4E70A20C2E70020C0E7000001
:105470000001002001461148407A30B1012807D0D0
:10548000022808D003280CD108E0022008700BE0A5
:105490000420087008E00820087005E0102008705B
:1054A00002E04FF0FF30704700BF0448C07C18B1E5
:1054B00008784006000E08700020F4E7D4000020B1
:1054C00001461348407A30B1012808D002280AD09A
:1054D000032810D10BE04FF4804008800EE041F625
:1054E0009C7008800AE04FF48050088006E04FF47A
:1054F0000060088002E04FF0FF30704700BF0448B2
:10550000C07C10B10888401008800020F5E700003A
:10551000D400002001460248007C0870002070473B
:10552000D400002001460F48007A30B1012807D08E
:10553000022809D003280FD10AE0FA2008800EE0E3
:105540004FF4FA7008800AE04FF47A70088006E0A1
:105550004FF4FA60088002E00020088000BF00BF1E
:1055600000207047D400002001460E48007A30B178
:10557000012807D0022808D003280CD108E00A48E7
:1055800008600BE00948086008E00948086005E089
:105590000848086002E04FF0FF30704700BF00206D
:1055A000FBE70000D400002000000343000083421A
:1055B000333303423333834101461248C07A08280B
:1055C00017D2DFE800F01704070A0D101318BC20EB
:1055D000088013E06220088010E02A2008800DE097
:1055E000142008800AE00A20088007E005200880CF
:1055F00004E000BF00BF0020088000BF00BF002003
:1056000070470000D40000200146064890F82400AE
:1056100010B14FF0FF3070470248C0890880002069
:10562000F9E70000D40000201CB580208DF80000B0
:10563000654A1268917C644A526810786B46012270
:10564000FDF72AF910B14FF0FF301CBD6420FFF7C1
:105650007DFE00208DF800005B4A1268917C5A4A5A
:10566000526810786B460122FDF716F910B14FF021
:10567000FF30EAE7544A1268917D534A5268107825
:105680006B460622FDF736F810B14FF0FF30DCE72D
:105690009DF80500C007400F9DF8031001F00101BF
:1056A00040EA41009DF8011001F0010140EA0104C7
:1056B00094B1012C03D101214348C17431E0022C83
:1056C00003D100214048C1742BE021463FA0FEF7E2
:1056D000D5F94FF0FF30B8E73B4A1268D1783A4A23
:1056E000526810786B460122FDF704F810B14FF0B4
:1056F000FF30AAE79DF8000000F00F042CB93D48E8
:10570000FEF7BCF94FF0FF309FE7042C06D13AA01A
:10571000FEF7B4F901212C48C17402E000212A48A7
:10572000C174FF2128488172FF2027490872FF2198
:1057300025484172C1724FF6FF71C181FF2101748A
:1057400081740121017380F82210002180F8231058
:10575000417501751630016041608160163880F82E
:10576000241080F82510C1844FF4FA6000F002FC88
:1057700010B14FF0FF3068E7022000F0CBFA10B113
:105780004FF0FF3061E72A2000F06EFC10B14FF0BF
:10579000FF305AE7322000F0A9FC10B14FF0FF3083
:1057A00053E70020FFF7DEFD10B14FF0FF304CE76C
:1057B000002000F0F1FA10B14FF0FF3045E7002073
:1057C00000F0E2FC002040E7D4000020556E737525
:1057D00070706F7274656420736F66747761726540
:1057E0002070726F64756374207265762025642E54
:1057F0000A000000509D000848616C662073656EC9
:105800007369746976697479207061727420666F47
:10581000756E642E0A0000002DE9F04385B0054640
:105820000E4690469946294890F8250020B14FF041
:10583000FF3005B0BDE8F08316B94FF0FF30F8E750
:10584000002423E0281B102801DD102000E0281B85
:1058500087B232193946204600F0FEFC10B14FF0F5
:10586000FF30E6E701AA3946204600F0A1F810B162
:105870004FF0FF30DDE730193A4601A9FAF734FD61
:1058800010B16FF00100D4E7E01984B2AC42D9DB6B
:105890004FEA28208DF8000008F0FF008DF8010085
:1058A0000A4A1268917E094A526810786B460222B1
:1058B000FCF7F2FF10B14FF0FF30BAE701210348C7
:1058C00080F82510A0F826900020B2E7D400002030
:1058D00038B50446282C02DD4FF0FF3038BDDCB966
:1058E000002000F08BFB00208DF8000007208DF8D1
:1058F00001002E4A1268917C2C4A526810786B463F
:105900000222FCF7C9FF10B14FF0FF30E6E700219B
:10591000264801750020E1E7012000F06FFB202000
:105920008DF80000012C06D100208DF80100052023
:1059300000F09AFB17E0052C06DC01208DF8010031
:10594000052000F091FB0EE0142C06DC02208DF8FF
:1059500001000A2000F088FB05E003208DF801001B
:10596000142000F081FB9DF80100072101EB80105D
:10597000C0B28DF801000D4A1268917C0B4A526842
:1059800010786B460222FCF787FF10B14FF0FF3012
:10599000A4E70821054881720021017301210175E6
:1059A0000020FFF7DFFC002098E70000D400002073
:1059B000F8B504460D46164616B94FF0FF30F8BD4F
:1059C0001A48807A10B94FF0FF30F8E720128DF8AE
:1059D0000000E0B28DF801009DF801002844134951
:1059E00049684989884202DD4FF0FF30E7E70F4AF6
:1059F0001268117E0D4A526810786B460222FCF73D
:105A00004BFF10B14FF0FF30D9E7EAB2074B1B68EC
:105A1000597D064B5B6818783346FCF76BFE10B176
:105A20004FF0FF30CBE70020C9E70000D400002092
:105A300008B57048807A10B94FF0FF3008BD0020DB
:105A400000906C4A1268D17B6A4A526810786B46A3
:105A50000122FCF721FF10B14FF0FF30EEE7654A5D
:105A600012685179634A526810786B460122FCF73C
:105A700013FF10B14FF0FF30E0E75E4A1268117972
:105A80005C4A526810786B460122FCF705FF10B1A2
:105A90004FF0FF30D2E7574890F82400002853D049
:105AA0000C200090534A12681179524A52681078BB
:105AB0006B460122FCF7F0FE10B14FF0FF30BDE75E
:105AC0003220FFF743FCC02000904A48807A00F063
:105AD000010020B19DF8000040F020000090454AF0
